{
  "_format": "hh-sol-artifact-1",
  "contractName": "NFT",
  "sourceName": "contracts/NFT.sol",
  "abi": [
    {
      "inputs": [
        {
          "internalType": "string",
          "name": "uri",
          "type": "string"
        }
      ],
      "stateMutability": "nonpayable",
      "type": "constructor"
    },
    {
      "anonymous": false,
      "inputs": [
        {
          "indexed": true,
          "internalType": "address",
          "name": "account",
          "type": "address"
        },
        {
          "indexed": true,
          "internalType": "address",
          "name": "operator",
          "type": "address"
        },
        {
          "indexed": false,
          "internalType": "bool",
          "name": "approved",
          "type": "bool"
        }
      ],
      "name": "ApprovalForAll",
      "type": "event"
    },
    {
      "anonymous": false,
      "inputs": [
        {
          "indexed": true,
          "internalType": "bytes32",
          "name": "role",
          "type": "bytes32"
        },
        {
          "indexed": true,
          "internalType": "bytes32",
          "name": "previousAdminRole",
          "type": "bytes32"
        },
        {
          "indexed": true,
          "internalType": "bytes32",
          "name": "newAdminRole",
          "type": "bytes32"
        }
      ],
      "name": "RoleAdminChanged",
      "type": "event"
    },
    {
      "anonymous": false,
      "inputs": [
        {
          "indexed": true,
          "internalType": "bytes32",
          "name": "role",
          "type": "bytes32"
        },
        {
          "indexed": true,
          "internalType": "address",
          "name": "account",
          "type": "address"
        },
        {
          "indexed": true,
          "internalType": "address",
          "name": "sender",
          "type": "address"
        }
      ],
      "name": "RoleGranted",
      "type": "event"
    },
    {
      "anonymous": false,
      "inputs": [
        {
          "indexed": true,
          "internalType": "bytes32",
          "name": "role",
          "type": "bytes32"
        },
        {
          "indexed": true,
          "internalType": "address",
          "name": "account",
          "type": "address"
        },
        {
          "indexed": true,
          "internalType": "address",
          "name": "sender",
          "type": "address"
        }
      ],
      "name": "RoleRevoked",
      "type": "event"
    },
    {
      "anonymous": false,
      "inputs": [
        {
          "indexed": true,
          "internalType": "address",
          "name": "operator",
          "type": "address"
        },
        {
          "indexed": true,
          "internalType": "address",
          "name": "from",
          "type": "address"
        },
        {
          "indexed": true,
          "internalType": "address",
          "name": "to",
          "type": "address"
        },
        {
          "indexed": false,
          "internalType": "uint256[]",
          "name": "ids",
          "type": "uint256[]"
        },
        {
          "indexed": false,
          "internalType": "uint256[]",
          "name": "values",
          "type": "uint256[]"
        }
      ],
      "name": "TransferBatch",
      "type": "event"
    },
    {
      "anonymous": false,
      "inputs": [
        {
          "indexed": true,
          "internalType": "address",
          "name": "operator",
          "type": "address"
        },
        {
          "indexed": true,
          "internalType": "address",
          "name": "from",
          "type": "address"
        },
        {
          "indexed": true,
          "internalType": "address",
          "name": "to",
          "type": "address"
        },
        {
          "indexed": false,
          "internalType": "uint256",
          "name": "id",
          "type": "uint256"
        },
        {
          "indexed": false,
          "internalType": "uint256",
          "name": "value",
          "type": "uint256"
        }
      ],
      "name": "TransferSingle",
      "type": "event"
    },
    {
      "anonymous": false,
      "inputs": [
        {
          "indexed": false,
          "internalType": "string",
          "name": "value",
          "type": "string"
        },
        {
          "indexed": true,
          "internalType": "uint256",
          "name": "id",
          "type": "uint256"
        }
      ],
      "name": "URI",
      "type": "event"
    },
    {
      "anonymous": false,
      "inputs": [
        {
          "indexed": false,
          "internalType": "uint256",
          "name": "objectID",
          "type": "uint256"
        },
        {
          "indexed": false,
          "internalType": "address",
          "name": "creator",
          "type": "address"
        }
      ],
      "name": "newSpaceObject",
      "type": "event"
    },
    {
      "inputs": [],
      "name": "BURNER",
      "outputs": [
        {
          "internalType": "bytes32",
          "name": "",
          "type": "bytes32"
        }
      ],
      "stateMutability": "view",
      "type": "function"
    },
    {
      "inputs": [],
      "name": "DEFAULT_ADMIN_ROLE",
      "outputs": [
        {
          "internalType": "bytes32",
          "name": "",
          "type": "bytes32"
        }
      ],
      "stateMutability": "view",
      "type": "function"
    },
    {
      "inputs": [],
      "name": "GUEST",
      "outputs": [
        {
          "internalType": "bytes32",
          "name": "",
          "type": "bytes32"
        }
      ],
      "stateMutability": "view",
      "type": "function"
    },
    {
      "inputs": [],
      "name": "METADATA_ADMIN",
      "outputs": [
        {
          "internalType": "bytes32",
          "name": "",
          "type": "bytes32"
        }
      ],
      "stateMutability": "view",
      "type": "function"
    },
    {
      "inputs": [],
      "name": "MINTER",
      "outputs": [
        {
          "internalType": "bytes32",
          "name": "",
          "type": "bytes32"
        }
      ],
      "stateMutability": "view",
      "type": "function"
    },
    {
      "inputs": [
        {
          "internalType": "uint256",
          "name": "",
          "type": "uint256"
        }
      ],
      "name": "_tokenURIs",
      "outputs": [
        {
          "internalType": "string",
          "name": "",
          "type": "string"
        }
      ],
      "stateMutability": "view",
      "type": "function"
    },
    {
      "inputs": [
        {
          "internalType": "uint256",
          "name": "creator",
          "type": "uint256"
        },
        {
          "internalType": "uint256",
          "name": "value",
          "type": "uint256"
        }
      ],
      "name": "addObjectCreations",
      "outputs": [],
      "stateMutability": "nonpayable",
      "type": "function"
    },
    {
      "inputs": [
        {
          "internalType": "address",
          "name": "account",
          "type": "address"
        },
        {
          "internalType": "uint256",
          "name": "id",
          "type": "uint256"
        }
      ],
      "name": "balanceOf",
      "outputs": [
        {
          "internalType": "uint256",
          "name": "",
          "type": "uint256"
        }
      ],
      "stateMutability": "view",
      "type": "function"
    },
    {
      "inputs": [
        {
          "internalType": "address[]",
          "name": "accounts",
          "type": "address[]"
        },
        {
          "internalType": "uint256[]",
          "name": "ids",
          "type": "uint256[]"
        }
      ],
      "name": "balanceOfBatch",
      "outputs": [
        {
          "internalType": "uint256[]",
          "name": "",
          "type": "uint256[]"
        }
      ],
      "stateMutability": "view",
      "type": "function"
    },
    {
      "inputs": [
        {
          "internalType": "uint256",
          "name": "id",
          "type": "uint256"
        },
        {
          "internalType": "uint256",
          "name": "value",
          "type": "uint256"
        }
      ],
      "name": "burn",
      "outputs": [],
      "stateMutability": "nonpayable",
      "type": "function"
    },
    {
      "inputs": [
        {
          "internalType": "uint256[]",
          "name": "ids",
          "type": "uint256[]"
        },
        {
          "internalType": "uint256[]",
          "name": "values",
          "type": "uint256[]"
        }
      ],
      "name": "burnBatch",
      "outputs": [],
      "stateMutability": "nonpayable",
      "type": "function"
    },
    {
      "inputs": [
        {
          "internalType": "uint256",
          "name": "formID",
          "type": "uint256"
        },
        {
          "internalType": "address",
          "name": "to",
          "type": "address"
        }
      ],
      "name": "copyform",
      "outputs": [],
      "stateMutability": "nonpayable",
      "type": "function"
    },
    {
      "inputs": [
        {
          "internalType": "uint256",
          "name": "",
          "type": "uint256"
        }
      ],
      "name": "creatableObjects",
      "outputs": [
        {
          "internalType": "uint256",
          "name": "",
          "type": "uint256"
        }
      ],
      "stateMutability": "view",
      "type": "function"
    },
    {
      "inputs": [
        {
          "internalType": "address",
          "name": "",
          "type": "address"
        }
      ],
      "name": "creator",
      "outputs": [
        {
          "internalType": "uint256",
          "name": "",
          "type": "uint256"
        }
      ],
      "stateMutability": "view",
      "type": "function"
    },
    {
      "inputs": [
        {
          "internalType": "uint256",
          "name": "",
          "type": "uint256"
        },
        {
          "internalType": "uint256",
          "name": "",
          "type": "uint256"
        }
      ],
      "name": "formTypesMinted",
      "outputs": [
        {
          "internalType": "uint256",
          "name": "",
          "type": "uint256"
        }
      ],
      "stateMutability": "view",
      "type": "function"
    },
    {
      "inputs": [
        {
          "internalType": "uint256",
          "name": "_type",
          "type": "uint256"
        },
        {
          "internalType": "uint256",
          "name": "object",
          "type": "uint256"
        },
        {
          "internalType": "uint256",
          "name": "creator",
          "type": "uint256"
        },
        {
          "internalType": "uint256",
          "name": "minted",
          "type": "uint256"
        }
      ],
      "name": "getFormId",
      "outputs": [
        {
          "internalType": "uint256",
          "name": "",
          "type": "uint256"
        }
      ],
      "stateMutability": "view",
      "type": "function"
    },
    {
      "inputs": [
        {
          "internalType": "uint256",
          "name": "token",
          "type": "uint256"
        }
      ],
      "name": "getFormObject",
      "outputs": [
        {
          "internalType": "uint256",
          "name": "",
          "type": "uint256"
        }
      ],
      "stateMutability": "view",
      "type": "function"
    },
    {
      "inputs": [
        {
          "internalType": "bytes32",
          "name": "role",
          "type": "bytes32"
        }
      ],
      "name": "getRoleAdmin",
      "outputs": [
        {
          "internalType": "bytes32",
          "name": "",
          "type": "bytes32"
        }
      ],
      "stateMutability": "view",
      "type": "function"
    },
    {
      "inputs": [
        {
          "internalType": "bytes32",
          "name": "role",
          "type": "bytes32"
        },
        {
          "internalType": "uint256",
          "name": "index",
          "type": "uint256"
        }
      ],
      "name": "getRoleMember",
      "outputs": [
        {
          "internalType": "address",
          "name": "",
          "type": "address"
        }
      ],
      "stateMutability": "view",
      "type": "function"
    },
    {
      "inputs": [
        {
          "internalType": "bytes32",
          "name": "role",
          "type": "bytes32"
        }
      ],
      "name": "getRoleMemberCount",
      "outputs": [
        {
          "internalType": "uint256",
          "name": "",
          "type": "uint256"
        }
      ],
      "stateMutability": "view",
      "type": "function"
    },
    {
      "inputs": [
        {
          "internalType": "address",
          "name": "u",
          "type": "address"
        }
      ],
      "name": "getUserObjects",
      "outputs": [
        {
          "internalType": "uint256[]",
          "name": "",
          "type": "uint256[]"
        }
      ],
      "stateMutability": "view",
      "type": "function"
    },
    {
      "inputs": [
        {
          "internalType": "bytes32",
          "name": "role",
          "type": "bytes32"
        },
        {
          "internalType": "address",
          "name": "account",
          "type": "address"
        }
      ],
      "name": "grantRole",
      "outputs": [],
      "stateMutability": "nonpayable",
      "type": "function"
    },
    {
      "inputs": [
        {
          "internalType": "bytes32",
          "name": "role",
          "type": "bytes32"
        },
        {
          "internalType": "address",
          "name": "account",
          "type": "address"
        }
      ],
      "name": "hasRole",
      "outputs": [
        {
          "internalType": "bool",
          "name": "",
          "type": "bool"
        }
      ],
      "stateMutability": "view",
      "type": "function"
    },
    {
      "inputs": [
        {
          "internalType": "address",
          "name": "account",
          "type": "address"
        },
        {
          "internalType": "address",
          "name": "operator",
          "type": "address"
        }
      ],
      "name": "isApprovedForAll",
      "outputs": [
        {
          "internalType": "bool",
          "name": "",
          "type": "bool"
        }
      ],
      "stateMutability": "view",
      "type": "function"
    },
    {
      "inputs": [
        {
          "internalType": "uint256",
          "name": "id",
          "type": "uint256"
        }
      ],
      "name": "isLockedToken",
      "outputs": [
        {
          "internalType": "bool",
          "name": "",
          "type": "bool"
        }
      ],
      "stateMutability": "nonpayable",
      "type": "function"
    },
    {
      "inputs": [
        {
          "internalType": "address",
          "name": "to",
          "type": "address"
        },
        {
          "internalType": "uint256",
          "name": "id",
          "type": "uint256"
        },
        {
          "internalType": "uint256",
          "name": "value",
          "type": "uint256"
        },
        {
          "internalType": "bytes",
          "name": "data",
          "type": "bytes"
        }
      ],
      "name": "mint",
      "outputs": [],
      "stateMutability": "nonpayable",
      "type": "function"
    },
    {
      "inputs": [
        {
          "internalType": "address",
          "name": "to",
          "type": "address"
        },
        {
          "internalType": "uint256[]",
          "name": "ids",
          "type": "uint256[]"
        },
        {
          "internalType": "uint256[]",
          "name": "values",
          "type": "uint256[]"
        },
        {
          "internalType": "bytes",
          "name": "data",
          "type": "bytes"
        }
      ],
      "name": "mintBatch",
      "outputs": [],
      "stateMutability": "nonpayable",
      "type": "function"
    },
    {
      "inputs": [
        {
          "internalType": "uint256",
          "name": "formType",
          "type": "uint256"
        },
        {
          "internalType": "uint256",
          "name": "objectType",
          "type": "uint256"
        },
        {
          "internalType": "string",
          "name": "formData",
          "type": "string"
        }
      ],
      "name": "mintform",
      "outputs": [],
      "stateMutability": "nonpayable",
      "type": "function"
    },
    {
      "inputs": [
        {
          "internalType": "uint256",
          "name": "",
          "type": "uint256"
        }
      ],
      "name": "objectCreator",
      "outputs": [
        {
          "internalType": "address",
          "name": "",
          "type": "address"
        }
      ],
      "stateMutability": "view",
      "type": "function"
    },
    {
      "inputs": [
        {
          "internalType": "uint256",
          "name": "",
          "type": "uint256"
        }
      ],
      "name": "objectURI",
      "outputs": [
        {
          "internalType": "string",
          "name": "",
          "type": "string"
        }
      ],
      "stateMutability": "view",
      "type": "function"
    },
    {
      "inputs": [
        {
          "internalType": "address",
          "name": "a",
          "type": "address"
        },
        {
          "internalType": "uint256",
          "name": "limit",
          "type": "uint256"
        }
      ],
      "name": "registerCreator",
      "outputs": [],
      "stateMutability": "nonpayable",
      "type": "function"
    },
    {
      "inputs": [
        {
          "internalType": "string",
          "name": "data",
          "type": "string"
        }
      ],
      "name": "registerNewObject",
      "outputs": [],
      "stateMutability": "nonpayable",
      "type": "function"
    },
    {
      "inputs": [
        {
          "internalType": "address",
          "name": "",
          "type": "address"
        },
        {
          "internalType": "uint256",
          "name": "",
          "type": "uint256"
        }
      ],
      "name": "registeredObjects",
      "outputs": [
        {
          "internalType": "uint256",
          "name": "",
          "type": "uint256"
        }
      ],
      "stateMutability": "view",
      "type": "function"
    },
    {
      "inputs": [
        {
          "internalType": "bytes32",
          "name": "role",
          "type": "bytes32"
        },
        {
          "internalType": "address",
          "name": "account",
          "type": "address"
        }
      ],
      "name": "renounceRole",
      "outputs": [],
      "stateMutability": "nonpayable",
      "type": "function"
    },
    {
      "inputs": [
        {
          "internalType": "uint256",
          "name": "creator",
          "type": "uint256"
        }
      ],
      "name": "revokeCreatorPriveledges",
      "outputs": [],
      "stateMutability": "nonpayable",
      "type": "function"
    },
    {
      "inputs": [
        {
          "internalType": "bytes32",
          "name": "role",
          "type": "bytes32"
        },
        {
          "internalType": "address",
          "name": "account",
          "type": "address"
        }
      ],
      "name": "revokeRole",
      "outputs": [],
      "stateMutability": "nonpayable",
      "type": "function"
    },
    {
      "inputs": [
        {
          "internalType": "uint256",
          "name": "",
          "type": "uint256"
        }
      ],
      "name": "revokedCreator",
      "outputs": [
        {
          "internalType": "bool",
          "name": "",
          "type": "bool"
        }
      ],
      "stateMutability": "view",
      "type": "function"
    },
    {
      "inputs": [
        {
          "internalType": "address",
          "name": "from",
          "type": "address"
        },
        {
          "internalType": "address",
          "name": "to",
          "type": "address"
        },
        {
          "internalType": "uint256[]",
          "name": "ids",
          "type": "uint256[]"
        },
        {
          "internalType": "uint256[]",
          "name": "amounts",
          "type": "uint256[]"
        },
        {
          "internalType": "bytes",
          "name": "data",
          "type": "bytes"
        }
      ],
      "name": "safeBatchTransferFrom",
      "outputs": [],
      "stateMutability": "nonpayable",
      "type": "function"
    },
    {
      "inputs": [
        {
          "internalType": "address",
          "name": "from",
          "type": "address"
        },
        {
          "internalType": "address",
          "name": "to",
          "type": "address"
        },
        {
          "internalType": "uint256",
          "name": "id",
          "type": "uint256"
        },
        {
          "internalType": "uint256",
          "name": "amount",
          "type": "uint256"
        },
        {
          "internalType": "bytes",
          "name": "data",
          "type": "bytes"
        }
      ],
      "name": "safeTransferFrom",
      "outputs": [],
      "stateMutability": "nonpayable",
      "type": "function"
    },
    {
      "inputs": [
        {
          "internalType": "address",
          "name": "operator",
          "type": "address"
        },
        {
          "internalType": "bool",
          "name": "approved",
          "type": "bool"
        }
      ],
      "name": "setApprovalForAll",
      "outputs": [],
      "stateMutability": "nonpayable",
      "type": "function"
    },
    {
      "inputs": [
        {
          "internalType": "string",
          "name": "newuri",
          "type": "string"
        }
      ],
      "name": "setBaseURI",
      "outputs": [],
      "stateMutability": "nonpayable",
      "type": "function"
    },
    {
      "inputs": [
        {
          "internalType": "uint256",
          "name": "max",
          "type": "uint256"
        }
      ],
      "name": "setMaxFormTypes",
      "outputs": [],
      "stateMutability": "nonpayable",
      "type": "function"
    },
    {
      "inputs": [
        {
          "internalType": "uint256[]",
          "name": "_types",
          "type": "uint256[]"
        }
      ],
      "name": "setTransferLock",
      "outputs": [],
      "stateMutability": "nonpayable",
      "type": "function"
    },
    {
      "inputs": [
        {
          "internalType": "string",
          "name": "newuri",
          "type": "string"
        },
        {
          "internalType": "uint256",
          "name": "id",
          "type": "uint256"
        }
      ],
      "name": "setURI",
      "outputs": [],
      "stateMutability": "nonpayable",
      "type": "function"
    },
    {
      "inputs": [
        {
          "internalType": "bytes4",
          "name": "interfaceId",
          "type": "bytes4"
        }
      ],
      "name": "supportsInterface",
      "outputs": [
        {
          "internalType": "bool",
          "name": "",
          "type": "bool"
        }
      ],
      "stateMutability": "view",
      "type": "function"
    },
    {
      "inputs": [
        {
          "internalType": "uint256",
          "name": "creator",
          "type": "uint256"
        },
        {
          "internalType": "address",
          "name": "newOwner",
          "type": "address"
        }
      ],
      "name": "transferFormOwner",
      "outputs": [],
      "stateMutability": "nonpayable",
      "type": "function"
    },
    {
      "inputs": [
        {
          "internalType": "uint256",
          "name": "tokenid",
          "type": "uint256"
        }
      ],
      "name": "uri",
      "outputs": [
        {
          "internalType": "string",
          "name": "",
          "type": "string"
        }
      ],
      "stateMutability": "view",
      "type": "function"
    }
  ],
  "bytecode": "0x60806040526d04ee2d6d415b85acef8100000000600155633b9aca00600855600a6011553480156200003057600080fd5b506040516200619338038062006193833981810160405260208110156200005657600080fd5b81019080805160405193929190846401000000008211156200007757600080fd5b838201915060208201858111156200008e57600080fd5b8251866001820283011164010000000082111715620000ac57600080fd5b8083526020830192505050908051906020019080838360005b83811015620000e2578082015181840152602081019050620000c5565b50505050905090810190601f168015620001105780820380516001836020036101000a031916815260200191505b506040525050506200012f6301ffc9a760e01b620002c460201b60201c565b6200014763d9b67a2660e01b620002c460201b60201c565b6200015f630e89341c60e01b620002c460201b60201c565b620001836000801b62000177620003cd60201b60201c565b620003d560201b60201c565b620001c47ff6e33f9720e4529cb1c710e3344dc00830589a3239198ffa39b07117085d250e620001b8620003cd60201b60201c565b620003d560201b60201c565b620002057ff0887ba65ee2024ea881d91b74c2450ef19e1557f03bed3ea9f16b037cbe2dc9620001f9620003cd60201b60201c565b620003d560201b60201c565b6200023a6000801b7ff0887ba65ee2024ea881d91b74c2450ef19e1557f03bed3ea9f16b037cbe2dc9620003eb60201b60201c565b6200026f6000801b7fb298fa9636e9050fbd8ff56bd93a3fca017e3e18b3a30f173dee3380c98765ca620003eb60201b60201c565b620002a46000801b7ff6e33f9720e4529cb1c710e3344dc00830589a3239198ffa39b07117085d250e620003eb60201b60201c565b8060079080519060200190620002bc929190620005c8565b50506200066e565b63ffffffff60e01b817bffffffffffffffffffffffffffffffffffffffffffffffffffffffff1916141562000361576040517f08c379a000000000000000000000000000000000000000000000000000000000815260040180806020018281038252601c8152602001807f4552433136353a20696e76616c696420696e746572666163652069640000000081525060200191505060405180910390fd5b6001600080837bffffffffffffffffffffffffffffffffffffffffffffffffffffffff19167bffffffffffffffffffffffffffffffffffffffffffffffffffffffff1916815260200190815260200160002060006101000a81548160ff02191690831515021790555050565b600033905090565b620003e782826200044f60201b60201c565b5050565b806006600084815260200190815260200160002060020154837fbd79b86ffe0ab8e8776151514217cd7cacd52c909f66475c3af44e129f0b00ff60405160405180910390a48060066000848152602001908152602001600020600201819055505050565b6200047e8160066000858152602001908152602001600020600001620004f360201b62003ce51790919060201c565b15620004ef5762000494620003cd60201b60201c565b73ffffffffffffffffffffffffffffffffffffffff168173ffffffffffffffffffffffffffffffffffffffff16837f2f8788117e7eff1d82e926ec794901d17c78024a50270940304540a733656f0d60405160405180910390a45b5050565b600062000523836000018373ffffffffffffffffffffffffffffffffffffffff1660001b6200052b60201b60201c565b905092915050565b60006200053f8383620005a560201b60201c565b6200059a5782600001829080600181540180825580915050600190039060005260206000200160009091909190915055826000018054905083600101600084815260200190815260200160002081905550600190506200059f565b600090505b92915050565b600080836001016000848152602001908152602001600020541415905092915050565b828054600181600116156101000203166002900490600052602060002090601f016020900481019282601f106200060b57805160ff19168380011785556200063c565b828001600101855582156200063c579182015b828111156200063b5782518255916020019190600101906200061e565b5b5090506200064b91906200064f565b5090565b5b808211156200066a57600081600090555060010162000650565b5090565b615b15806200067e6000396000f3fe608060405234801561001057600080fd5b50600436106102945760003560e01c8063839be51011610167578063beba3d43116100ce578063e985e9c511610087578063e985e9c5146117ce578063ed346d2814611848578063f242432a14611896578063fc014a9c146119a5578063fc0cdf7614611a5d578063fe6d812414611ab557610294565b8063beba3d4314611558578063c2735c7c146115ff578063c55cf4d81461162d578063ca15c873146116fc578063d547741f1461173e578063daeb0f661461178c57610294565b8063a217fddf11610120578063a217fddf146113f8578063a22cb46514611416578063b1de303e14611466578063b2af175814611484578063b390c0ab146114dc578063bba75c831461151457610294565b8063839be5101461110057806383ca4b6f1461114e5780638caefd701461129a5780638da1ee0a146112d25780639010d07c1461133257806391d148541461139457610294565b80632f2ff15d1161020b5780634e1273f4116101c45780634e1273f414610bf357806354e74e6c14610d9457806355f804b314610e4f5780635dcefa2914610f0a57806367db3b8f14610f4c578063731133e91461101157610294565b80632f2ff15d14610a2657806336568abe14610a7457806337cbe14b14610ac257806342d141a114610b0e578063492bc7e114610b2c5780634ab6b24914610bc557610294565b8063188c698a1161025d578063188c698a146104ca5780631a89bac81461052c5780631f7fdffa14610570578063248a9ca3146107735780632768a9b6146107b55780632eb2c2d61461080357610294565b8062fdd58e1461029957806301ffc9a7146102fb5780630bb78ec11461035e5780630e89341c14610405578063118c4f13146104ac575b600080fd5b6102e5600480360360408110156102af57600080fd5b81019080803573ffffffffffffffffffffffffffffffffffffffff16906020019092919080359060200190929190505050611ad3565b6040518082815260200191505060405180910390f35b6103466004803603602081101561031157600080fd5b8101908080357bffffffffffffffffffffffffffffffffffffffffffffffffffffffff19169060200190929190505050611bb3565b60405180821515815260200191505060405180910390f35b61038a6004803603602081101561037457600080fd5b8101908080359060200190929190505050611c1a565b6040518080602001828103825283818151815260200191508051906020019080838360005b838110156103ca5780820151818401526020810190506103af565b50505050905090810190601f1680156103f75780820380516001836020036101000a031916815260200191505b509250505060405180910390f35b6104316004803603602081101561041b57600080fd5b8101908080359060200190929190505050611cca565b6040518080602001828103825283818151815260200191508051906020019080838360005b83811015610471578082015181840152602081019050610456565b50505050905090810190601f16801561049e5780820380516001836020036101000a031916815260200191505b509250505060405180910390f35b6104b4611f54565b6040518082815260200191505060405180910390f35b610516600480360360408110156104e057600080fd5b81019080803573ffffffffffffffffffffffffffffffffffffffff16906020019092919080359060200190929190505050611f78565b6040518082815260200191505060405180910390f35b6105586004803603602081101561054257600080fd5b8101908080359060200190929190505050611fa6565b60405180821515815260200191505060405180910390f35b6107716004803603608081101561058657600080fd5b81019080803573ffffffffffffffffffffffffffffffffffffffff169060200190929190803590602001906401000000008111156105c357600080fd5b8201836020820111156105d557600080fd5b803590602001918460208302840111640100000000831117156105f757600080fd5b919080806020026020016040519081016040528093929190818152602001838360200280828437600081840152601f19601f8201169050808301925050505050505091929192908035906020019064010000000081111561065757600080fd5b82018360208201111561066957600080fd5b8035906020019184602083028401116401000000008311171561068b57600080fd5b919080806020026020016040519081016040528093929190818152602001838360200280828437600081840152601f19601f820116905080830192505050505050509192919290803590602001906401000000008111156106eb57600080fd5b8201836020820111156106fd57600080fd5b8035906020019184600183028401116401000000008311171561071f57600080fd5b91908080601f016020809104026020016040519081016040528093929190818152602001838380828437600081840152601f19601f820116905080830192505050505050509192919290505050611fc6565b005b61079f6004803603602081101561078957600080fd5b810190808035906020019092919050505061200b565b6040518082815260200191505060405180910390f35b610801600480360360408110156107cb57600080fd5b81019080803573ffffffffffffffffffffffffffffffffffffffff1690602001909291908035906020019092919050505061202b565b005b610a24600480360360a081101561081957600080fd5b81019080803573ffffffffffffffffffffffffffffffffffffffff169060200190929190803573ffffffffffffffffffffffffffffffffffffffff1690602001909291908035906020019064010000000081111561087657600080fd5b82018360208201111561088857600080fd5b803590602001918460208302840111640100000000831117156108aa57600080fd5b919080806020026020016040519081016040528093929190818152602001838360200280828437600081840152601f19601f8201169050808301925050505050505091929192908035906020019064010000000081111561090a57600080fd5b82018360208201111561091c57600080fd5b8035906020019184602083028401116401000000008311171561093e57600080fd5b919080806020026020016040519081016040528093929190818152602001838360200280828437600081840152601f19601f8201169050808301925050505050505091929192908035906020019064010000000081111561099e57600080fd5b8201836020820111156109b057600080fd5b803590602001918460018302840111640100000000831117156109d257600080fd5b91908080601f016020809104026020016040519081016040528093929190818152602001838380828437600081840152601f19601f8201169050808301925050505050505091929192905050506120bf565b005b610a7260048036036040811015610a3c57600080fd5b8101908080359060200190929190803573ffffffffffffffffffffffffffffffffffffffff1690602001909291905050506125c2565b005b610ac060048036036040811015610a8a57600080fd5b8101908080359060200190929190803573ffffffffffffffffffffffffffffffffffffffff16906020019092919050505061264c565b005b610af860048036036040811015610ad857600080fd5b8101908080359060200190929190803590602001909291905050506126e5565b6040518082815260200191505060405180910390f35b610b1661270a565b6040518082815260200191505060405180910390f35b610b6e60048036036020811015610b4257600080fd5b81019080803573ffffffffffffffffffffffffffffffffffffffff16906020019092919050505061272e565b6040518080602001828103825283818151815260200191508051906020019060200280838360005b83811015610bb1578082015181840152602081019050610b96565b505050509050019250505060405180910390f35b610bf160048036036020811015610bdb57600080fd5b81019080803590602001909291905050506127c5565b005b610d3d60048036036040811015610c0957600080fd5b8101908080359060200190640100000000811115610c2657600080fd5b820183602082011115610c3857600080fd5b80359060200191846020830284011164010000000083111715610c5a57600080fd5b919080806020026020016040519081016040528093929190818152602001838360200280828437600081840152601f19601f82011690508083019250505050505050919291929080359060200190640100000000811115610cba57600080fd5b820183602082011115610ccc57600080fd5b80359060200191846020830284011164010000000083111715610cee57600080fd5b919080806020026020016040519081016040528093929190818152602001838360200280828437600081840152601f19601f8201169050808301925050505050505091929192905050506127e5565b6040518080602001828103825283818151815260200191508051906020019060200280838360005b83811015610d80578082015181840152602081019050610d65565b505050509050019250505060405180910390f35b610e4d60048036036020811015610daa57600080fd5b8101908080359060200190640100000000811115610dc757600080fd5b820183602082011115610dd957600080fd5b80359060200191846001830284011164010000000083111715610dfb57600080fd5b91908080601f016020809104026020016040519081016040528093929190818152602001838380828437600081840152601f19601f8201169050808301925050505050505091929192905050506129d7565b005b610f0860048036036020811015610e6557600080fd5b8101908080359060200190640100000000811115610e8257600080fd5b820183602082011115610e9457600080fd5b80359060200191846001830284011164010000000083111715610eb657600080fd5b91908080601f016020809104026020016040519081016040528093929190818152602001838380828437600081840152601f19601f820116905080830192505050505050509192919290505050612dc2565b005b610f3660048036036020811015610f2057600080fd5b8101908080359060200190929190505050612e0f565b6040518082815260200191505060405180910390f35b61100f60048036036040811015610f6257600080fd5b8101908080359060200190640100000000811115610f7f57600080fd5b820183602082011115610f9157600080fd5b80359060200191846001830284011164010000000083111715610fb357600080fd5b91908080601f016020809104026020016040519081016040528093929190818152602001838380828437600081840152601f19601f82011690508083019250505050505050919291929080359060200190929190505050612e46565b005b6110fe6004803603608081101561102757600080fd5b81019080803573ffffffffffffffffffffffffffffffffffffffff16906020019092919080359060200190929190803590602001909291908035906020019064010000000081111561107857600080fd5b82018360208201111561108a57600080fd5b803590602001918460018302840111640100000000831117156110ac57600080fd5b91908080601f016020809104026020016040519081016040528093929190818152602001838380828437600081840152601f19601f820116905080830192505050505050509192919290505050612ea5565b005b61114c6004803603604081101561111657600080fd5b8101908080359060200190929190803573ffffffffffffffffffffffffffffffffffffffff169060200190929190505050612eea565b005b6112986004803603604081101561116457600080fd5b810190808035906020019064010000000081111561118157600080fd5b82018360208201111561119357600080fd5b803590602001918460208302840111640100000000831117156111b557600080fd5b919080806020026020016040519081016040528093929190818152602001838360200280828437600081840152601f19601f8201169050808301925050505050505091929192908035906020019064010000000081111561121557600080fd5b82018360208201111561122757600080fd5b8035906020019184602083028401116401000000008311171561124957600080fd5b919080806020026020016040519081016040528093929190818152602001838360200280828437600081840152601f19601f820116905080830192505050505050509192919290505050612f56565b005b6112d0600480360360408110156112b057600080fd5b810190808035906020019092919080359060200190929190505050612f65565b005b61131c600480360360808110156112e857600080fd5b8101908080359060200190929190803590602001909291908035906020019092919080359060200190929190505050612fa0565b6040518082815260200191505060405180910390f35b6113686004803603604081101561134857600080fd5b810190808035906020019092919080359060200190929190505050612ff6565b604051808273ffffffffffffffffffffffffffffffffffffffff16815260200191505060405180910390f35b6113e0600480360360408110156113aa57600080fd5b8101908080359060200190929190803573ffffffffffffffffffffffffffffffffffffffff169060200190929190505050613028565b60405180821515815260200191505060405180910390f35b61140061305a565b6040518082815260200191505060405180910390f35b6114646004803603604081101561142c57600080fd5b81019080803573ffffffffffffffffffffffffffffffffffffffff169060200190929190803515159060200190929190505050613061565b005b61146e6131fa565b6040518082815260200191505060405180910390f35b6114b06004803603602081101561149a57600080fd5b810190808035906020019092919050505061321e565b604051808273ffffffffffffffffffffffffffffffffffffffff16815260200191505060405180910390f35b611512600480360360408110156114f257600080fd5b810190808035906020019092919080359060200190929190505050613251565b005b6115406004803603602081101561152a57600080fd5b8101908080359060200190929190505050613260565b60405180821515815260200191505060405180910390f35b6115846004803603602081101561156e57600080fd5b81019080803590602001909291905050506132c8565b6040518080602001828103825283818151815260200191508051906020019080838360005b838110156115c45780820151818401526020810190506115a9565b50505050905090810190601f1680156115f15780820380516001836020036101000a031916815260200191505b509250505060405180910390f35b61162b6004803603602081101561161557600080fd5b8101908080359060200190929190505050613378565b005b6116fa6004803603606081101561164357600080fd5b8101908080359060200190929190803590602001909291908035906020019064010000000081111561167457600080fd5b82018360208201111561168657600080fd5b803590602001918460018302840111640100000000831117156116a857600080fd5b91908080601f016020809104026020016040519081016040528093929190818152602001838380828437600081840152601f19601f8201169050808301925050505050505091929192905050506133dd565b005b6117286004803603602081101561171257600080fd5b81019080803590602001909291905050506135be565b6040518082815260200191505060405180910390f35b61178a6004803603604081101561175457600080fd5b8101908080359060200190929190803573ffffffffffffffffffffffffffffffffffffffff1690602001909291905050506135e5565b005b6117b8600480360360208110156117a257600080fd5b810190808035906020019092919050505061366f565b6040518082815260200191505060405180910390f35b611830600480360360408110156117e457600080fd5b81019080803573ffffffffffffffffffffffffffffffffffffffff169060200190929190803573ffffffffffffffffffffffffffffffffffffffff169060200190929190505050613687565b60405180821515815260200191505060405180910390f35b6118946004803603604081101561185e57600080fd5b8101908080359060200190929190803573ffffffffffffffffffffffffffffffffffffffff16906020019092919050505061371b565b005b6119a3600480360360a08110156118ac57600080fd5b81019080803573ffffffffffffffffffffffffffffffffffffffff169060200190929190803573ffffffffffffffffffffffffffffffffffffffff16906020019092919080359060200190929190803590602001909291908035906020019064010000000081111561191d57600080fd5b82018360208201111561192f57600080fd5b8035906020019184600183028401116401000000008311171561195157600080fd5b91908080601f016020809104026020016040519081016040528093929190818152602001838380828437600081840152601f19601f8201169050808301925050505050505091929192905050506137fa565b005b611a5b600480360360208110156119bb57600080fd5b81019080803590602001906401000000008111156119d857600080fd5b8201836020820111156119ea57600080fd5b80359060200191846020830284011164010000000083111715611a0c57600080fd5b919080806020026020016040519081016040528093929190818152602001838360200280828437600081840152601f19601f820116905080830192505050505050509192919290505050613c5a565b005b611a9f60048036036020811015611a7357600080fd5b81019080803573ffffffffffffffffffffffffffffffffffffffff169060200190929190505050613ca9565b6040518082815260200191505060405180910390f35b611abd613cc1565b6040518082815260200191505060405180910390f35b60008073ffffffffffffffffffffffffffffffffffffffff168373ffffffffffffffffffffffffffffffffffffffff161415611b5a576040517f08c379a000000000000000000000000000000000000000000000000000000000815260040180806020018281038252602b815260200180615825602b913960400191505060405180910390fd5b6002600083815260200190815260200160002060008473ffffffffffffffffffffffffffffffffffffffff1673ffffffffffffffffffffffffffffffffffffffff16815260200190815260200160002054905092915050565b6000806000837bffffffffffffffffffffffffffffffffffffffffffffffffffffffff19167bffffffffffffffffffffffffffffffffffffffffffffffffffffffff1916815260200190815260200160002060009054906101000a900460ff169050919050565b60146020528060005260406000206000915090508054600181600116156101000203166002900480601f016020809104026020016040519081016040528092919081815260200182805460018160011615610100020316600290048015611cc25780601f10611c9757610100808354040283529160200191611cc2565b820191906000526020600020905b815481529060010190602001808311611ca557829003601f168201915b505050505081565b606080601460008481526020019081526020016000208054600181600116156101000203166002900480601f016020809104026020016040519081016040528092919081815260200182805460018160011615610100020316600290048015611d745780601f10611d4957610100808354040283529160200191611d74565b820191906000526020600020905b815481529060010190602001808311611d5757829003601f168201915b50505050509050600060078054600181600116156101000203166002900490501415611da35780915050611f4f565b600081511115611e7c576007816040516020018083805460018160011615610100020316600290048015611e0e5780601f10611dec576101008083540402835291820191611e0e565b820191906000526020600020905b815481529060010190602001808311611dfa575b505082805190602001908083835b60208310611e3f5780518252602082019150602081019050602083039250611e1c565b6001836020036101000a03801982511681845116808217855250505050505090500192505050604051602081830303815290604052915050611f4f565b6007611e8784613d15565b6040516020018083805460018160011615610100020316600290048015611ee55780601f10611ec3576101008083540402835291820191611ee5565b820191906000526020600020905b815481529060010190602001808311611ed1575b505082805190602001908083835b60208310611f165780518252602082019150602081019050602083039250611ef3565b6001836020036101000a038019825116818451168082178552505050505050905001925050506040516020818303038152906040529150505b919050565b7f9667e80708b6eeeb0053fa0cca44e028ff548e2a9f029edfeac87c118b08b7c881565b600b6020528160005260406000208181548110611f9157fe5b90600052602060002001600091509150505481565b600f6020528060005260406000206000915054906101000a900460ff1681565b611ff07ff0887ba65ee2024ea881d91b74c2450ef19e1557f03bed3ea9f16b037cbe2dc933613028565b611ff957600080fd5b61200584848484613e5c565b50505050565b600060066000838152602001908152602001600020600201549050919050565b6120386000801b33613028565b61204157600080fd5b6001601360008282540192505081905550601354600e60008473ffffffffffffffffffffffffffffffffffffffff1673ffffffffffffffffffffffffffffffffffffffff1681526020019081526020016000208190555080601060006013548152602001908152602001600020600082825401925050819055505050565b8151835114612119576040517f08c379a0000000000000000000000000000000000000000000000000000000008152600401808060200182810382526028815260200180615a686028913960400191505060405180910390fd5b600073ffffffffffffffffffffffffffffffffffffffff168473ffffffffffffffffffffffffffffffffffffffff16141561219f576040517f08c379a00000000000000000000000000000000000000000000000000000000081526004018080602001828103825260258152602001806158fe6025913960400191505060405180910390fd5b6121a761417e565b73ffffffffffffffffffffffffffffffffffffffff168573ffffffffffffffffffffffffffffffffffffffff1614806121ed57506121ec856121e761417e565b613687565b5b612242576040517f08c379a00000000000000000000000000000000000000000000000000000000081526004018080602001828103825260328152602001806159236032913960400191505060405180910390fd5b600061224c61417e565b905061225c818787878787614186565b60005b84518110156124a5576000151561228886838151811061227b57fe5b6020026020010151613260565b1515146122e0576040517f08c379a00000000000000000000000000000000000000000000000000000000081526004018080602001828103825260288152602001806159a26028913960400191505060405180910390fd5b60008582815181106122ee57fe5b60200260200101519050600085838151811061230657fe5b6020026020010151905061238d816040518060600160405280602a8152602001615978602a91396002600086815260200190815260200160002060008d73ffffffffffffffffffffffffffffffffffffffff1673ffffffffffffffffffffffffffffffffffffffff1681526020019081526020016000205461418e9092919063ffffffff16565b6002600084815260200190815260200160002060008b73ffffffffffffffffffffffffffffffffffffffff1673ffffffffffffffffffffffffffffffffffffffff16815260200190815260200160002081905550612444816002600085815260200190815260200160002060008b73ffffffffffffffffffffffffffffffffffffffff1673ffffffffffffffffffffffffffffffffffffffff1681526020019081526020016000205461424e90919063ffffffff16565b6002600084815260200190815260200160002060008a73ffffffffffffffffffffffffffffffffffffffff1673ffffffffffffffffffffffffffffffffffffffff16815260200190815260200160002081905550505080600101905061225f565b508473ffffffffffffffffffffffffffffffffffffffff168673ffffffffffffffffffffffffffffffffffffffff168273ffffffffffffffffffffffffffffffffffffffff167f4a39dc06d4c0dbc64b70af90fd698a233a518aa5d07e595d983b8c0526c8f7fb8787604051808060200180602001838103835285818151815260200191508051906020019060200280838360005b8381101561255557808201518184015260208101905061253a565b50505050905001838103825284818151815260200191508051906020019060200280838360005b8381101561259757808201518184015260208101905061257c565b5050505090500194505050505060405180910390a46125ba8187878787876142d6565b505050505050565b6125e960066000848152602001908152602001600020600201546125e461417e565b613028565b61263e576040517f08c379a000000000000000000000000000000000000000000000000000000000815260040180806020018281038252602f8152602001806157f6602f913960400191505060405180910390fd5b6126488282614665565b5050565b61265461417e565b73ffffffffffffffffffffffffffffffffffffffff168173ffffffffffffffffffffffffffffffffffffffff16146126d7576040517f08c379a000000000000000000000000000000000000000000000000000000000815260040180806020018281038252602f815260200180615ab1602f913960400191505060405180910390fd5b6126e182826146f9565b5050565b600a602052816000526040600020602052806000526040600020600091509150505481565b7fb298fa9636e9050fbd8ff56bd93a3fca017e3e18b3a30f173dee3380c98765ca81565b6060600b60008373ffffffffffffffffffffffffffffffffffffffff1673ffffffffffffffffffffffffffffffffffffffff1681526020019081526020016000208054806020026020016040519081016040528092919081815260200182805480156127b957602002820191906000526020600020905b8154815260200190600101908083116127a5575b50505050509050919050565b6127d26000801b33613028565b6127db57600080fd5b8060118190555050565b60608151835114612841576040517f08c379a0000000000000000000000000000000000000000000000000000000008152600401808060200182810382526029815260200180615a3f6029913960400191505060405180910390fd5b6060835167ffffffffffffffff8111801561285b57600080fd5b5060405190808252806020026020018201604052801561288a5781602001602082028036833780820191505090505b50905060005b84518110156129cc57600073ffffffffffffffffffffffffffffffffffffffff168582815181106128bd57fe5b602002602001015173ffffffffffffffffffffffffffffffffffffffff161415612932576040517f08c379a00000000000000000000000000000000000000000000000000000000081526004018080602001828103825260318152602001806158506031913960400191505060405180910390fd5b6002600085838151811061294257fe5b60200260200101518152602001908152602001600020600086838151811061296657fe5b602002602001015173ffffffffffffffffffffffffffffffffffffffff1673ffffffffffffffffffffffffffffffffffffffff168152602001908152602001600020548282815181106129b557fe5b602002602001018181525050806001019050612890565b508091505092915050565b6000600e60003373ffffffffffffffffffffffffffffffffffffffff1673ffffffffffffffffffffffffffffffffffffffff1681526020019081526020016000205411612a6f576040517f08c379a00000000000000000000000000000000000000000000000000000000081526004018080602001828103825260298152602001806159ed6029913960400191505060405180910390fd5b60001515600f6000600e60003373ffffffffffffffffffffffffffffffffffffffff1673ffffffffffffffffffffffffffffffffffffffff16815260200190815260200160002054815260200190815260200160002060009054906101000a900460ff16151514612b48576040517f08c379a000000000000000000000000000000000000000000000000000000000815260040180806020018281038252601c8152602001807f63726561746f7220686173206c6f73742070726976696c65646765730000000081525060200191505060405180910390fd5b600060106000600e60003373ffffffffffffffffffffffffffffffffffffffff1673ffffffffffffffffffffffffffffffffffffffff1681526020019081526020016000205481526020019081526020016000205411612c10576040517f08c379a000000000000000000000000000000000000000000000000000000000815260040180806020018281038252601a8152602001807f63726561746f7220686173206e6f206f626a656374732079657400000000000081525060200191505060405180910390fd5b6001601260008282540192505081905550600160106000600e60003373ffffffffffffffffffffffffffffffffffffffff1673ffffffffffffffffffffffffffffffffffffffff16815260200190815260200160002054815260200190815260200160002060008282540392505081905550600b60003373ffffffffffffffffffffffffffffffffffffffff1673ffffffffffffffffffffffffffffffffffffffff168152602001908152602001600020601254908060018154018082558091505060019003906000526020600020016000909190919091505533600c6000601254815260200190815260200160002060006101000a81548173ffffffffffffffffffffffffffffffffffffffff021916908373ffffffffffffffffffffffffffffffffffffffff16021790555080600d600060125481526020019081526020016000209080519060200190612d67929190615606565b507f13c537f8179f2a70d98f03586c0cbfda0347d567ae5d7768962f515004900f6860125433604051808381526020018273ffffffffffffffffffffffffffffffffffffffff1681526020019250505060405180910390a150565b612dec7ff6e33f9720e4529cb1c710e3344dc00830589a3239198ffa39b07117085d250e33613028565b612df557600080fd5b8060079080519060200190612e0b929190615606565b5050565b6000662386f26fc1000073af298d050e4395d69670b12b7f410000000000008381612e3657fe5b0481612e3e57fe5b069050919050565b612e707ff6e33f9720e4529cb1c710e3344dc00830589a3239198ffa39b07117085d250e33613028565b612e7957600080fd5b81601460008381526020019081526020016000209080519060200190612ea0929190615606565b505050565b612ecf7ff0887ba65ee2024ea881d91b74c2450ef19e1557f03bed3ea9f16b037cbe2dc933613028565b612ed857600080fd5b612ee48484848461478d565b50505050565b612ef76000801b33613028565b612f0057600080fd5b80600c600084815260200190815260200160002060006101000a81548173ffffffffffffffffffffffffffffffffffffffff021916908373ffffffffffffffffffffffffffffffffffffffff1602179055505050565b612f61338383614990565b5050565b612f726000801b33613028565b612f7b57600080fd5b8060106000848152602001908152602001600020600082825401925050819055505050565b6000816d04ee2d6d415b85acef8100000000860273af298d050e4395d69670b12b7f4100000000000086027a184f03e93ff9f4daa797ed6e38ed64bf6a1f01000000000000000086020101019050949350505050565b60006130208260066000868152602001908152602001600020600001614ccb90919063ffffffff16565b905092915050565b60006130528260066000868152602001908152602001600020600001614ce590919063ffffffff16565b905092915050565b6000801b81565b8173ffffffffffffffffffffffffffffffffffffffff1661308061417e565b73ffffffffffffffffffffffffffffffffffffffff1614156130ed576040517f08c379a0000000000000000000000000000000000000000000000000000000008152600401808060200182810382526029815260200180615a166029913960400191505060405180910390fd5b80600460006130fa61417e565b73ffffffffffffffffffffffffffffffffffffffff1673ffffffffffffffffffffffffffffffffffffffff16815260200190815260200160002060008473ffffffffffffffffffffffffffffffffffffffff1673ffffffffffffffffffffffffffffffffffffffff16815260200190815260200160002060006101000a81548160ff0219169083151502179055508173ffffffffffffffffffffffffffffffffffffffff166131a761417e565b73ffffffffffffffffffffffffffffffffffffffff167f17307eab39ab6107e8899845ad3d59bd9653f200f220920489ca2b5937696c318360405180821515815260200191505060405180910390a35050565b7ff6e33f9720e4529cb1c710e3344dc00830589a3239198ffa39b07117085d250e81565b600c6020528060005260406000206000915054906101000a900473ffffffffffffffffffffffffffffffffffffffff1681565b61325c338383614d15565b5050565b6000613276600154838161327057fe5b04614f31565b6000662386f26fc10000600154848161328b57fe5b048161329357fe5b06905061329f81614f31565b6003600082815260200190815260200160002060009054906101000a900460ff16915050919050565b600d6020528060005260406000206000915090508054600181600116156101000203166002900480601f0160208091040260200160405190810160405280929190818152602001828054600181600116156101000203166002900480156133705780601f1061334557610100808354040283529160200191613370565b820191906000526020600020905b81548152906001019060200180831161335357829003601f168201915b505050505081565b6133856000801b33613028565b61338e57600080fd5b600f600082815260200190815260200160002060009054906101000a900460ff1615600f600083815260200190815260200160002060006101000a81548160ff02191690831515021790555050565b6001815111613454576040517f08c379a000000000000000000000000000000000000000000000000000000000815260040180806020018281038252601d8152602001807f666f726d2064617461206d7573742065786973742070726f7065726c7900000081525060200191505060405180910390fd5b3373ffffffffffffffffffffffffffffffffffffffff16600c600084815260200190815260200160002060009054906101000a900473ffffffffffffffffffffffffffffffffffffffff1673ffffffffffffffffffffffffffffffffffffffff16146134bf57600080fd5b6000600e60003373ffffffffffffffffffffffffffffffffffffffff1673ffffffffffffffffffffffffffffffffffffffff1681526020019081526020016000205490506001600a60008581526020019081526020016000206000868152602001908152602001600020600082825401925050819055506000613568858584600a600089815260200190815260200160002060008a815260200190815260200160002054612fa0565b905061357381614f31565b8260146000838152602001908152602001600020908051906020019061359a929190615606565b506135b7338260016040518060200160405280600081525061478d565b5050505050565b60006135de60066000848152602001908152602001600020600001614fca565b9050919050565b61360c600660008481526020019081526020016000206002015461360761417e565b613028565b613661576040517f08c379a00000000000000000000000000000000000000000000000000000000081526004018080602001828103825260308152602001806158ce6030913960400191505060405180910390fd5b61366b82826146f9565b5050565b60106020528060005260406000206000915090505481565b6000600460008473ffffffffffffffffffffffffffffffffffffffff1673ffffffffffffffffffffffffffffffffffffffff16815260200190815260200160002060008373ffffffffffffffffffffffffffffffffffffffff1673ffffffffffffffffffffffffffffffffffffffff16815260200190815260200160002060009054906101000a900460ff16905092915050565b3373ffffffffffffffffffffffffffffffffffffffff16600c600061373f85612e0f565b815260200190815260200160002060009054906101000a900473ffffffffffffffffffffffffffffffffffffffff1673ffffffffffffffffffffffffffffffffffffffff16146137da576040517f08c379a00000000000000000000000000000000000000000000000000000000081526004018080602001828103825260238152602001806159ca6023913960400191505060405180910390fd5b6137f6818360016040518060200160405280600081525061478d565b5050565b600073ffffffffffffffffffffffffffffffffffffffff168473ffffffffffffffffffffffffffffffffffffffff161415613880576040517f08c379a00000000000000000000000000000000000000000000000000000000081526004018080602001828103825260258152602001806158fe6025913960400191505060405180910390fd5b600073ffffffffffffffffffffffffffffffffffffffff168473ffffffffffffffffffffffffffffffffffffffff161415613906576040517f08c379a00000000000000000000000000000000000000000000000000000000081526004018080602001828103825260258152602001806158fe6025913960400191505060405180910390fd5b61390e61417e565b73ffffffffffffffffffffffffffffffffffffffff168573ffffffffffffffffffffffffffffffffffffffff16148061395457506139538561394e61417e565b613687565b5b6139a9576040517f08c379a00000000000000000000000000000000000000000000000000000000081526004018080602001828103825260298152602001806158a56029913960400191505060405180910390fd5b600015156139b684613260565b151514613a0e576040517f08c379a00000000000000000000000000000000000000000000000000000000081526004018080602001828103825260288152602001806159a26028913960400191505060405180910390fd5b6000613a1861417e565b9050613a38818787613a2988614fdf565b613a3288614fdf565b87614186565b613ab5836040518060600160405280602a8152602001615978602a91396002600088815260200190815260200160002060008a73ffffffffffffffffffffffffffffffffffffffff1673ffffffffffffffffffffffffffffffffffffffff1681526020019081526020016000205461418e9092919063ffffffff16565b6002600086815260200190815260200160002060008873ffffffffffffffffffffffffffffffffffffffff1673ffffffffffffffffffffffffffffffffffffffff16815260200190815260200160002081905550613b6c836002600087815260200190815260200160002060008873ffffffffffffffffffffffffffffffffffffffff1673ffffffffffffffffffffffffffffffffffffffff1681526020019081526020016000205461424e90919063ffffffff16565b6002600086815260200190815260200160002060008773ffffffffffffffffffffffffffffffffffffffff1673ffffffffffffffffffffffffffffffffffffffff168152602001908152602001600020819055508473ffffffffffffffffffffffffffffffffffffffff168673ffffffffffffffffffffffffffffffffffffffff168273ffffffffffffffffffffffffffffffffffffffff167fc3d58168c5ae7397731d063d5bbf3d657854427343f4c083240f7aacaa2d0f628787604051808381526020018281526020019250505060405180910390a4613c5281878787878761504f565b505050505050565b613c676000801b33613028565b613c7057600080fd5b60005b8151811015613ca557613c98828281518110613c8b57fe5b602002602001015161535c565b8080600101915050613c73565b5050565b600e6020528060005260406000206000915090505481565b7ff0887ba65ee2024ea881d91b74c2450ef19e1557f03bed3ea9f16b037cbe2dc981565b6000613d0d836000018373ffffffffffffffffffffffffffffffffffffffff1660001b61538b565b905092915050565b60606000821415613d5d576040518060400160405280600181526020017f30000000000000000000000000000000000000000000000000000000000000008152509050613e57565b600082905060005b60008214613d87578080600101915050600a8281613d7f57fe5b049150613d65565b60608167ffffffffffffffff81118015613da057600080fd5b506040519080825280601f01601f191660200182016040528015613dd35781602001600182028036833780820191505090505b50905060006001830390508593505b60008414613e4f57600a8481613df457fe5b0660300160f81b82828060019003935081518110613e0e57fe5b60200101907effffffffffffffffffffffffffffffffffffffffffffffffffffffffffffff1916908160001a905350600a8481613e4757fe5b049350613de2565b819450505050505b919050565b600073ffffffffffffffffffffffffffffffffffffffff168473ffffffffffffffffffffffffffffffffffffffff161415613ee2576040517f08c379a0000000000000000000000000000000000000000000000000000000008152600401808060200182810382526021815260200180615a906021913960400191505060405180910390fd5b8151835114613f3c576040517f08c379a0000000000000000000000000000000000000000000000000000000008152600401808060200182810382526028815260200180615a686028913960400191505060405180910390fd5b6000613f4661417e565b9050613f5781600087878787614186565b60005b845181101561406057613fec60026000878481518110613f7657fe5b6020026020010151815260200190815260200160002060008873ffffffffffffffffffffffffffffffffffffffff1673ffffffffffffffffffffffffffffffffffffffff16815260200190815260200160002054858381518110613fd657fe5b602002602001015161424e90919063ffffffff16565b60026000878481518110613ffc57fe5b6020026020010151815260200190815260200160002060008873ffffffffffffffffffffffffffffffffffffffff1673ffffffffffffffffffffffffffffffffffffffff168152602001908152602001600020819055508080600101915050613f5a565b508473ffffffffffffffffffffffffffffffffffffffff16600073ffffffffffffffffffffffffffffffffffffffff168273ffffffffffffffffffffffffffffffffffffffff167f4a39dc06d4c0dbc64b70af90fd698a233a518aa5d07e595d983b8c0526c8f7fb8787604051808060200180602001838103835285818151815260200191508051906020019060200280838360005b838110156141115780820151818401526020810190506140f6565b50505050905001838103825284818151815260200191508051906020019060200280838360005b83811015614153578082015181840152602081019050614138565b5050505090500194505050505060405180910390a4614177816000878787876142d6565b5050505050565b600033905090565b505050505050565b600083831115829061423b576040517f08c379a00000000000000000000000000000000000000000000000000000000081526004018080602001828103825283818151815260200191508051906020019080838360005b838110156142005780820151818401526020810190506141e5565b50505050905090810190601f16801561422d5780820380516001836020036101000a031916815260200191505b509250505060405180910390fd5b5060008385039050809150509392505050565b6000808284019050838110156142cc576040517f08c379a000000000000000000000000000000000000000000000000000000000815260040180806020018281038252601b8152602001807f536166654d6174683a206164646974696f6e206f766572666c6f77000000000081525060200191505060405180910390fd5b8091505092915050565b6142f58473ffffffffffffffffffffffffffffffffffffffff166153fb565b1561465d578373ffffffffffffffffffffffffffffffffffffffff1663bc197c8187878686866040518663ffffffff1660e01b8152600401808673ffffffffffffffffffffffffffffffffffffffff1681526020018573ffffffffffffffffffffffffffffffffffffffff168152602001806020018060200180602001848103845287818151815260200191508051906020019060200280838360005b838110156143ad578082015181840152602081019050614392565b50505050905001848103835286818151815260200191508051906020019060200280838360005b838110156143ef5780820151818401526020810190506143d4565b50505050905001848103825285818151815260200191508051906020019080838360005b8381101561442e578082015181840152602081019050614413565b50505050905090810190601f16801561445b5780820380516001836020036101000a031916815260200191505b5098505050505050505050602060405180830381600087803b15801561448057600080fd5b505af19250505080156144b457506040513d60208110156144a057600080fd5b810190808051906020019092919050505060015b6145be576144c06156c1565b806144cb575061456d565b806040517f08c379a00000000000000000000000000000000000000000000000000000000081526004018080602001828103825283818151815260200191508051906020019080838360005b83811015614532578082015181840152602081019050614517565b50505050905090810190601f16801561455f5780820380516001836020036101000a031916815260200191505b509250505060405180910390fd5b6040517f08c379a00000000000000000000000000000000000000000000000000000000081526004018080602001828103825260348152602001806157786034913960400191505060405180910390fd5b63bc197c8160e01b7bffffffffffffffffffffffffffffffffffffffffffffffffffffffff1916817bffffffffffffffffffffffffffffffffffffffffffffffffffffffff19161461465b576040517f08c379a00000000000000000000000000000000000000000000000000000000081526004018080602001828103825260288152602001806157ce6028913960400191505060405180910390fd5b505b505050505050565b61468d8160066000858152602001908152602001600020600001613ce590919063ffffffff16565b156146f55761469a61417e565b73ffffffffffffffffffffffffffffffffffffffff168173ffffffffffffffffffffffffffffffffffffffff16837f2f8788117e7eff1d82e926ec794901d17c78024a50270940304540a733656f0d60405160405180910390a45b5050565b614721816006600085815260200190815260200160002060000161540e90919063ffffffff16565b156147895761472e61417e565b73ffffffffffffffffffffffffffffffffffffffff168173ffffffffffffffffffffffffffffffffffffffff16837ff6391f5c32d9c69d2a47ea670b442974b53935d1edc7fd64eb21e047a839171b60405160405180910390a45b5050565b600073ffffffffffffffffffffffffffffffffffffffff168473ffffffffffffffffffffffffffffffffffffffff161415614813576040517f08c379a0000000000000000000000000000000000000000000000000000000008152600401808060200182810382526021815260200180615a906021913960400191505060405180910390fd5b600061481d61417e565b905061483e8160008761482f88614fdf565b61483888614fdf565b87614186565b6148a1836002600087815260200190815260200160002060008873ffffffffffffffffffffffffffffffffffffffff1673ffffffffffffffffffffffffffffffffffffffff1681526020019081526020016000205461424e90919063ffffffff16565b6002600086815260200190815260200160002060008773ffffffffffffffffffffffffffffffffffffffff1673ffffffffffffffffffffffffffffffffffffffff168152602001908152602001600020819055508473ffffffffffffffffffffffffffffffffffffffff16600073ffffffffffffffffffffffffffffffffffffffff168273ffffffffffffffffffffffffffffffffffffffff167fc3d58168c5ae7397731d063d5bbf3d657854427343f4c083240f7aacaa2d0f628787604051808381526020018281526020019250505060405180910390a46149898160008787878761504f565b5050505050565b600073ffffffffffffffffffffffffffffffffffffffff168373ffffffffffffffffffffffffffffffffffffffff161415614a16576040517f08c379a00000000000000000000000000000000000000000000000000000000081526004018080602001828103825260238152602001806159556023913960400191505060405180910390fd5b8051825114614a70576040517f08c379a0000000000000000000000000000000000000000000000000000000008152600401808060200182810382526028815260200180615a686028913960400191505060405180910390fd5b6000614a7a61417e565b9050614a9a81856000868660405180602001604052806000815250614186565b60005b8351811015614bbd57614b49838281518110614ab557fe5b60200260200101516040518060600160405280602481526020016158816024913960026000888681518110614ae657fe5b6020026020010151815260200190815260200160002060008973ffffffffffffffffffffffffffffffffffffffff1673ffffffffffffffffffffffffffffffffffffffff1681526020019081526020016000205461418e9092919063ffffffff16565b60026000868481518110614b5957fe5b6020026020010151815260200190815260200160002060008773ffffffffffffffffffffffffffffffffffffffff1673ffffffffffffffffffffffffffffffffffffffff168152602001908152602001600020819055508080600101915050614a9d565b50600073ffffffffffffffffffffffffffffffffffffffff168473ffffffffffffffffffffffffffffffffffffffff168273ffffffffffffffffffffffffffffffffffffffff167f4a39dc06d4c0dbc64b70af90fd698a233a518aa5d07e595d983b8c0526c8f7fb8686604051808060200180602001838103835285818151815260200191508051906020019060200280838360005b83811015614c6e578082015181840152602081019050614c53565b50505050905001838103825284818151815260200191508051906020019060200280838360005b83811015614cb0578082015181840152602081019050614c95565b5050505090500194505050505060405180910390a450505050565b6000614cda836000018361543e565b60001c905092915050565b6000614d0d836000018373ffffffffffffffffffffffffffffffffffffffff1660001b6154c1565b905092915050565b600073ffffffffffffffffffffffffffffffffffffffff168373ffffffffffffffffffffffffffffffffffffffff161415614d9b576040517f08c379a00000000000000000000000000000000000000000000000000000000081526004018080602001828103825260238152602001806159556023913960400191505060405180910390fd5b6000614da561417e565b9050614dd581856000614db787614fdf565b614dc087614fdf565b60405180602001604052806000815250614186565b614e5282604051806060016040528060248152602001615881602491396002600087815260200190815260200160002060008873ffffffffffffffffffffffffffffffffffffffff1673ffffffffffffffffffffffffffffffffffffffff1681526020019081526020016000205461418e9092919063ffffffff16565b6002600085815260200190815260200160002060008673ffffffffffffffffffffffffffffffffffffffff1673ffffffffffffffffffffffffffffffffffffffff16815260200190815260200160002081905550600073ffffffffffffffffffffffffffffffffffffffff168473ffffffffffffffffffffffffffffffffffffffff168273ffffffffffffffffffffffffffffffffffffffff167fc3d58168c5ae7397731d063d5bbf3d657854427343f4c083240f7aacaa2d0f628686604051808381526020018281526020019250505060405180910390a450505050565b614fc781604051602401808281526020019150506040516020818303038152906040527ff5b1bba9000000000000000000000000000000000000000000000000000000007bffffffffffffffffffffffffffffffffffffffffffffffffffffffff19166020820180517bffffffffffffffffffffffffffffffffffffffffffffffffffffffff83818316178352505050506154e4565b50565b6000614fd88260000161550d565b9050919050565b606080600167ffffffffffffffff81118015614ffa57600080fd5b506040519080825280602002602001820160405280156150295781602001602082028036833780820191505090505b509050828160008151811061503a57fe5b60200260200101818152505080915050919050565b61506e8473ffffffffffffffffffffffffffffffffffffffff166153fb565b15615354578373ffffffffffffffffffffffffffffffffffffffff1663f23a6e6187878686866040518663ffffffff1660e01b8152600401808673ffffffffffffffffffffffffffffffffffffffff1681526020018573ffffffffffffffffffffffffffffffffffffffff16815260200184815260200183815260200180602001828103825283818151815260200191508051906020019080838360005b8381101561512757808201518184015260208101905061510c565b50505050905090810190601f1680156151545780820380516001836020036101000a031916815260200191505b509650505050505050602060405180830381600087803b15801561517757600080fd5b505af19250505080156151ab57506040513d602081101561519757600080fd5b810190808051906020019092919050505060015b6152b5576151b76156c1565b806151c25750615264565b806040517f08c379a00000000000000000000000000000000000000000000000000000000081526004018080602001828103825283818151815260200191508051906020019080838360005b8381101561522957808201518184015260208101905061520e565b50505050905090810190601f1680156152565780820380516001836020036101000a031916815260200191505b509250505060405180910390fd5b6040517f08c379a00000000000000000000000000000000000000000000000000000000081526004018080602001828103825260348152602001806157786034913960400191505060405180910390fd5b63f23a6e6160e01b7bffffffffffffffffffffffffffffffffffffffffffffffffffffffff1916817bffffffffffffffffffffffffffffffffffffffffffffffffffffffff191614615352576040517f08c379a00000000000000000000000000000000000000000000000000000000081526004018080602001828103825260288152602001806157ce6028913960400191505060405180910390fd5b505b505050505050565b60016003600083815260200190815260200160002060006101000a81548160ff02191690831515021790555050565b600061539783836154c1565b6153f05782600001829080600181540180825580915050600190039060005260206000200160009091909190915055826000018054905083600101600084815260200190815260200160002081905550600190506153f5565b600090505b92915050565b600080823b905060008111915050919050565b6000615436836000018373ffffffffffffffffffffffffffffffffffffffff1660001b61551e565b905092915050565b60008183600001805490501161549f576040517f08c379a00000000000000000000000000000000000000000000000000000000081526004018080602001828103825260228152602001806157ac6022913960400191505060405180910390fd5b8260000182815481106154ae57fe5b9060005260206000200154905092915050565b600080836001016000848152602001908152602001600020541415905092915050565b60008151905060006a636f6e736f6c652e6c6f679050602083016000808483855afa5050505050565b600081600001805490509050919050565b600080836001016000848152602001908152602001600020549050600081146155fa576000600182039050600060018660000180549050039050600086600001828154811061556957fe5b906000526020600020015490508087600001848154811061558657fe5b90600052602060002001819055506001830187600101600083815260200190815260200160002081905550866000018054806155be57fe5b60019003818190600052602060002001600090559055866001016000878152602001908152602001600020600090556001945050505050615600565b60009150505b92915050565b828054600181600116156101000203166002900490600052602060002090601f016020900481019282601f1061564757805160ff1916838001178555615675565b82800160010185558215615675579182015b82811115615674578251825591602001919060010190615659565b5b5090506156829190615686565b5090565b5b8082111561569f576000816000905550600101615687565b5090565b6000601f19601f8301169050919050565b60008160e01c9050919050565b600060443d10156156d157615774565b60046000803e6156e26000516156b4565b6308c379a081146156f35750615774565b60405160043d036004823e80513d602482011167ffffffffffffffff8211171561571f57505050615774565b808201805167ffffffffffffffff81111561573e575050505050615774565b8060208301013d850181111561575957505050505050615774565b615762826156a3565b60208401016040528296505050505050505b9056fe455243313135353a207472616e7366657220746f206e6f6e2045524331313535526563656976657220696d706c656d656e746572456e756d657261626c655365743a20696e646578206f7574206f6620626f756e6473455243313135353a204552433131353552656365697665722072656a656374656420746f6b656e73416363657373436f6e74726f6c3a2073656e646572206d75737420626520616e2061646d696e20746f206772616e74455243313135353a2062616c616e636520717565727920666f7220746865207a65726f2061646472657373455243313135353a2062617463682062616c616e636520717565727920666f7220746865207a65726f2061646472657373455243313135353a206275726e20616d6f756e7420657863656564732062616c616e6365455243313135353a2063616c6c6572206973206e6f74206f776e6572206e6f7220617070726f766564416363657373436f6e74726f6c3a2073656e646572206d75737420626520616e2061646d696e20746f207265766f6b65455243313135353a207472616e7366657220746f20746865207a65726f2061646472657373455243313135353a207472616e736665722063616c6c6572206973206e6f74206f776e6572206e6f7220617070726f766564455243313135353a206275726e2066726f6d20746865207a65726f2061646472657373455243313135353a20696e73756666696369656e742062616c616e636520666f72207472616e73666572746f6b656e207472616e736665727320617265206c6f636b656420666f72207468697320747970656f6e6c79206f626a6563742063726561746f722063616e20636f7079206120666f726d75736572206d75737420612063726561746f7220746f20726567697374657220616e206f626a656374455243313135353a2073657474696e6720617070726f76616c2073746174757320666f722073656c66455243313135353a206163636f756e747320616e6420696473206c656e677468206d69736d61746368455243313135353a2069647320616e6420616d6f756e7473206c656e677468206d69736d61746368455243313135353a206d696e7420746f20746865207a65726f2061646472657373416363657373436f6e74726f6c3a2063616e206f6e6c792072656e6f756e636520726f6c657320666f722073656c66a26469706673582212202d8cf3a4bfed7151118c50b100be1596c3d29e87698d9da8397e3f5cb2e07eda64736f6c63430007030033",
  "linkReferences": {},
  "deployedLinkReferences": {}
}