{
  "_format": "hh-sol-artifact-1",
  "contractName": "NFT",
  "sourceName": "contracts/accessNFT.sol",
  "abi": [
    {
      "inputs": [
        {
          "internalType": "string",
          "name": "uri",
          "type": "string"
        }
      ],
      "stateMutability": "nonpayable",
      "type": "constructor"
    },
    {
      "anonymous": false,
      "inputs": [
        {
          "indexed": true,
          "internalType": "address",
          "name": "account",
          "type": "address"
        },
        {
          "indexed": true,
          "internalType": "address",
          "name": "operator",
          "type": "address"
        },
        {
          "indexed": false,
          "internalType": "bool",
          "name": "approved",
          "type": "bool"
        }
      ],
      "name": "ApprovalForAll",
      "type": "event"
    },
    {
      "anonymous": false,
      "inputs": [
        {
          "indexed": true,
          "internalType": "bytes32",
          "name": "role",
          "type": "bytes32"
        },
        {
          "indexed": true,
          "internalType": "bytes32",
          "name": "previousAdminRole",
          "type": "bytes32"
        },
        {
          "indexed": true,
          "internalType": "bytes32",
          "name": "newAdminRole",
          "type": "bytes32"
        }
      ],
      "name": "RoleAdminChanged",
      "type": "event"
    },
    {
      "anonymous": false,
      "inputs": [
        {
          "indexed": true,
          "internalType": "bytes32",
          "name": "role",
          "type": "bytes32"
        },
        {
          "indexed": true,
          "internalType": "address",
          "name": "account",
          "type": "address"
        },
        {
          "indexed": true,
          "internalType": "address",
          "name": "sender",
          "type": "address"
        }
      ],
      "name": "RoleGranted",
      "type": "event"
    },
    {
      "anonymous": false,
      "inputs": [
        {
          "indexed": true,
          "internalType": "bytes32",
          "name": "role",
          "type": "bytes32"
        },
        {
          "indexed": true,
          "internalType": "address",
          "name": "account",
          "type": "address"
        },
        {
          "indexed": true,
          "internalType": "address",
          "name": "sender",
          "type": "address"
        }
      ],
      "name": "RoleRevoked",
      "type": "event"
    },
    {
      "anonymous": false,
      "inputs": [
        {
          "indexed": true,
          "internalType": "address",
          "name": "operator",
          "type": "address"
        },
        {
          "indexed": true,
          "internalType": "address",
          "name": "from",
          "type": "address"
        },
        {
          "indexed": true,
          "internalType": "address",
          "name": "to",
          "type": "address"
        },
        {
          "indexed": false,
          "internalType": "uint256[]",
          "name": "ids",
          "type": "uint256[]"
        },
        {
          "indexed": false,
          "internalType": "uint256[]",
          "name": "values",
          "type": "uint256[]"
        }
      ],
      "name": "TransferBatch",
      "type": "event"
    },
    {
      "anonymous": false,
      "inputs": [
        {
          "indexed": true,
          "internalType": "address",
          "name": "operator",
          "type": "address"
        },
        {
          "indexed": true,
          "internalType": "address",
          "name": "from",
          "type": "address"
        },
        {
          "indexed": true,
          "internalType": "address",
          "name": "to",
          "type": "address"
        },
        {
          "indexed": false,
          "internalType": "uint256",
          "name": "id",
          "type": "uint256"
        },
        {
          "indexed": false,
          "internalType": "uint256",
          "name": "value",
          "type": "uint256"
        }
      ],
      "name": "TransferSingle",
      "type": "event"
    },
    {
      "anonymous": false,
      "inputs": [
        {
          "indexed": false,
          "internalType": "string",
          "name": "value",
          "type": "string"
        },
        {
          "indexed": true,
          "internalType": "uint256",
          "name": "id",
          "type": "uint256"
        }
      ],
      "name": "URI",
      "type": "event"
    },
    {
      "inputs": [],
      "name": "BURNER",
      "outputs": [
        {
          "internalType": "bytes32",
          "name": "",
          "type": "bytes32"
        }
      ],
      "stateMutability": "view",
      "type": "function"
    },
    {
      "inputs": [],
      "name": "DEFAULT_ADMIN_ROLE",
      "outputs": [
        {
          "internalType": "bytes32",
          "name": "",
          "type": "bytes32"
        }
      ],
      "stateMutability": "view",
      "type": "function"
    },
    {
      "inputs": [],
      "name": "GUEST",
      "outputs": [
        {
          "internalType": "bytes32",
          "name": "",
          "type": "bytes32"
        }
      ],
      "stateMutability": "view",
      "type": "function"
    },
    {
      "inputs": [],
      "name": "METADATA_ADMIN",
      "outputs": [
        {
          "internalType": "bytes32",
          "name": "",
          "type": "bytes32"
        }
      ],
      "stateMutability": "view",
      "type": "function"
    },
    {
      "inputs": [],
      "name": "MINTER",
      "outputs": [
        {
          "internalType": "bytes32",
          "name": "",
          "type": "bytes32"
        }
      ],
      "stateMutability": "view",
      "type": "function"
    },
    {
      "inputs": [
        {
          "internalType": "uint256",
          "name": "",
          "type": "uint256"
        }
      ],
      "name": "_tokenURIs",
      "outputs": [
        {
          "internalType": "string",
          "name": "",
          "type": "string"
        }
      ],
      "stateMutability": "view",
      "type": "function"
    },
    {
      "inputs": [
        {
          "internalType": "address",
          "name": "account",
          "type": "address"
        },
        {
          "internalType": "uint256",
          "name": "id",
          "type": "uint256"
        }
      ],
      "name": "balanceOf",
      "outputs": [
        {
          "internalType": "uint256",
          "name": "",
          "type": "uint256"
        }
      ],
      "stateMutability": "view",
      "type": "function"
    },
    {
      "inputs": [
        {
          "internalType": "address[]",
          "name": "accounts",
          "type": "address[]"
        },
        {
          "internalType": "uint256[]",
          "name": "ids",
          "type": "uint256[]"
        }
      ],
      "name": "balanceOfBatch",
      "outputs": [
        {
          "internalType": "uint256[]",
          "name": "",
          "type": "uint256[]"
        }
      ],
      "stateMutability": "view",
      "type": "function"
    },
    {
      "inputs": [
        {
          "internalType": "uint256",
          "name": "id",
          "type": "uint256"
        },
        {
          "internalType": "uint256",
          "name": "value",
          "type": "uint256"
        }
      ],
      "name": "burn",
      "outputs": [],
      "stateMutability": "nonpayable",
      "type": "function"
    },
    {
      "inputs": [
        {
          "internalType": "uint256[]",
          "name": "ids",
          "type": "uint256[]"
        },
        {
          "internalType": "uint256[]",
          "name": "values",
          "type": "uint256[]"
        }
      ],
      "name": "burnBatch",
      "outputs": [],
      "stateMutability": "nonpayable",
      "type": "function"
    },
    {
      "inputs": [
        {
          "internalType": "bytes32",
          "name": "role",
          "type": "bytes32"
        }
      ],
      "name": "getRoleAdmin",
      "outputs": [
        {
          "internalType": "bytes32",
          "name": "",
          "type": "bytes32"
        }
      ],
      "stateMutability": "view",
      "type": "function"
    },
    {
      "inputs": [
        {
          "internalType": "bytes32",
          "name": "role",
          "type": "bytes32"
        },
        {
          "internalType": "uint256",
          "name": "index",
          "type": "uint256"
        }
      ],
      "name": "getRoleMember",
      "outputs": [
        {
          "internalType": "address",
          "name": "",
          "type": "address"
        }
      ],
      "stateMutability": "view",
      "type": "function"
    },
    {
      "inputs": [
        {
          "internalType": "bytes32",
          "name": "role",
          "type": "bytes32"
        }
      ],
      "name": "getRoleMemberCount",
      "outputs": [
        {
          "internalType": "uint256",
          "name": "",
          "type": "uint256"
        }
      ],
      "stateMutability": "view",
      "type": "function"
    },
    {
      "inputs": [
        {
          "internalType": "bytes32",
          "name": "role",
          "type": "bytes32"
        },
        {
          "internalType": "address",
          "name": "account",
          "type": "address"
        }
      ],
      "name": "grantRole",
      "outputs": [],
      "stateMutability": "nonpayable",
      "type": "function"
    },
    {
      "inputs": [
        {
          "internalType": "bytes32",
          "name": "role",
          "type": "bytes32"
        },
        {
          "internalType": "address",
          "name": "account",
          "type": "address"
        }
      ],
      "name": "hasRole",
      "outputs": [
        {
          "internalType": "bool",
          "name": "",
          "type": "bool"
        }
      ],
      "stateMutability": "view",
      "type": "function"
    },
    {
      "inputs": [
        {
          "internalType": "address",
          "name": "account",
          "type": "address"
        },
        {
          "internalType": "address",
          "name": "operator",
          "type": "address"
        }
      ],
      "name": "isApprovedForAll",
      "outputs": [
        {
          "internalType": "bool",
          "name": "",
          "type": "bool"
        }
      ],
      "stateMutability": "view",
      "type": "function"
    },
    {
      "inputs": [
        {
          "internalType": "uint256",
          "name": "id",
          "type": "uint256"
        }
      ],
      "name": "isLockedToken",
      "outputs": [
        {
          "internalType": "bool",
          "name": "",
          "type": "bool"
        }
      ],
      "stateMutability": "nonpayable",
      "type": "function"
    },
    {
      "inputs": [
        {
          "internalType": "address",
          "name": "to",
          "type": "address"
        },
        {
          "internalType": "uint256",
          "name": "id",
          "type": "uint256"
        },
        {
          "internalType": "uint256",
          "name": "value",
          "type": "uint256"
        },
        {
          "internalType": "bytes",
          "name": "data",
          "type": "bytes"
        }
      ],
      "name": "mint",
      "outputs": [],
      "stateMutability": "nonpayable",
      "type": "function"
    },
    {
      "inputs": [
        {
          "internalType": "address",
          "name": "to",
          "type": "address"
        },
        {
          "internalType": "uint256[]",
          "name": "ids",
          "type": "uint256[]"
        },
        {
          "internalType": "uint256[]",
          "name": "values",
          "type": "uint256[]"
        },
        {
          "internalType": "bytes",
          "name": "data",
          "type": "bytes"
        }
      ],
      "name": "mintBatch",
      "outputs": [],
      "stateMutability": "nonpayable",
      "type": "function"
    },
    {
      "inputs": [
        {
          "internalType": "bytes32",
          "name": "role",
          "type": "bytes32"
        },
        {
          "internalType": "address",
          "name": "account",
          "type": "address"
        }
      ],
      "name": "renounceRole",
      "outputs": [],
      "stateMutability": "nonpayable",
      "type": "function"
    },
    {
      "inputs": [
        {
          "internalType": "bytes32",
          "name": "role",
          "type": "bytes32"
        },
        {
          "internalType": "address",
          "name": "account",
          "type": "address"
        }
      ],
      "name": "revokeRole",
      "outputs": [],
      "stateMutability": "nonpayable",
      "type": "function"
    },
    {
      "inputs": [
        {
          "internalType": "address",
          "name": "from",
          "type": "address"
        },
        {
          "internalType": "address",
          "name": "to",
          "type": "address"
        },
        {
          "internalType": "uint256[]",
          "name": "ids",
          "type": "uint256[]"
        },
        {
          "internalType": "uint256[]",
          "name": "amounts",
          "type": "uint256[]"
        },
        {
          "internalType": "bytes",
          "name": "data",
          "type": "bytes"
        }
      ],
      "name": "safeBatchTransferFrom",
      "outputs": [],
      "stateMutability": "nonpayable",
      "type": "function"
    },
    {
      "inputs": [
        {
          "internalType": "address",
          "name": "from",
          "type": "address"
        },
        {
          "internalType": "address",
          "name": "to",
          "type": "address"
        },
        {
          "internalType": "uint256",
          "name": "id",
          "type": "uint256"
        },
        {
          "internalType": "uint256",
          "name": "amount",
          "type": "uint256"
        },
        {
          "internalType": "bytes",
          "name": "data",
          "type": "bytes"
        }
      ],
      "name": "safeTransferFrom",
      "outputs": [],
      "stateMutability": "nonpayable",
      "type": "function"
    },
    {
      "inputs": [
        {
          "internalType": "address",
          "name": "operator",
          "type": "address"
        },
        {
          "internalType": "bool",
          "name": "approved",
          "type": "bool"
        }
      ],
      "name": "setApprovalForAll",
      "outputs": [],
      "stateMutability": "nonpayable",
      "type": "function"
    },
    {
      "inputs": [
        {
          "internalType": "string",
          "name": "newuri",
          "type": "string"
        }
      ],
      "name": "setBaseURI",
      "outputs": [],
      "stateMutability": "nonpayable",
      "type": "function"
    },
    {
      "inputs": [
        {
          "internalType": "string",
          "name": "newuri",
          "type": "string"
        },
        {
          "internalType": "uint256",
          "name": "id",
          "type": "uint256"
        }
      ],
      "name": "setURI",
      "outputs": [],
      "stateMutability": "nonpayable",
      "type": "function"
    },
    {
      "inputs": [
        {
          "internalType": "bytes4",
          "name": "interfaceId",
          "type": "bytes4"
        }
      ],
      "name": "supportsInterface",
      "outputs": [
        {
          "internalType": "bool",
          "name": "",
          "type": "bool"
        }
      ],
      "stateMutability": "view",
      "type": "function"
    },
    {
      "inputs": [
        {
          "internalType": "uint256",
          "name": "tokenid",
          "type": "uint256"
        }
      ],
      "name": "uri",
      "outputs": [
        {
          "internalType": "string",
          "name": "",
          "type": "string"
        }
      ],
      "stateMutability": "view",
      "type": "function"
    }
  ],
  "bytecode": "0x60806040526d04ee2d6d415b85acef81000000006001553480156200002357600080fd5b5060405162004d5038038062004d50833981810160405260208110156200004957600080fd5b81019080805160405193929190846401000000008211156200006a57600080fd5b838201915060208201858111156200008157600080fd5b82518660018202830111640100000000821117156200009f57600080fd5b8083526020830192505050908051906020019080838360005b83811015620000d5578082015181840152602081019050620000b8565b50505050905090810190601f168015620001035780820380516001836020036101000a031916815260200191505b50604052505050620001226301ffc9a760e01b620002b760201b60201c565b6200013a63d9b67a2660e01b620002b760201b60201c565b62000152630e89341c60e01b620002b760201b60201c565b620001766000801b6200016a620003c060201b60201c565b620003c860201b60201c565b620001b77ff6e33f9720e4529cb1c710e3344dc00830589a3239198ffa39b07117085d250e620001ab620003c060201b60201c565b620003c860201b60201c565b620001f87ff0887ba65ee2024ea881d91b74c2450ef19e1557f03bed3ea9f16b037cbe2dc9620001ec620003c060201b60201c565b620003c860201b60201c565b6200022d6000801b7ff0887ba65ee2024ea881d91b74c2450ef19e1557f03bed3ea9f16b037cbe2dc9620003de60201b60201c565b620002626000801b7fb298fa9636e9050fbd8ff56bd93a3fca017e3e18b3a30f173dee3380c98765ca620003de60201b60201c565b620002976000801b7ff6e33f9720e4529cb1c710e3344dc00830589a3239198ffa39b07117085d250e620003de60201b60201c565b8060079080519060200190620002af929190620005bb565b505062000661565b63ffffffff60e01b817bffffffffffffffffffffffffffffffffffffffffffffffffffffffff1916141562000354576040517f08c379a000000000000000000000000000000000000000000000000000000000815260040180806020018281038252601c8152602001807f4552433136353a20696e76616c696420696e746572666163652069640000000081525060200191505060405180910390fd5b6001600080837bffffffffffffffffffffffffffffffffffffffffffffffffffffffff19167bffffffffffffffffffffffffffffffffffffffffffffffffffffffff1916815260200190815260200160002060006101000a81548160ff02191690831515021790555050565b600033905090565b620003da82826200044260201b60201c565b5050565b806006600084815260200190815260200160002060020154837fbd79b86ffe0ab8e8776151514217cd7cacd52c909f66475c3af44e129f0b00ff60405160405180910390a48060066000848152602001908152602001600020600201819055505050565b620004718160066000858152602001908152602001600020600001620004e660201b6200292a1790919060201c565b15620004e25762000487620003c060201b60201c565b73ffffffffffffffffffffffffffffffffffffffff168173ffffffffffffffffffffffffffffffffffffffff16837f2f8788117e7eff1d82e926ec794901d17c78024a50270940304540a733656f0d60405160405180910390a45b5050565b600062000516836000018373ffffffffffffffffffffffffffffffffffffffff1660001b6200051e60201b60201c565b905092915050565b60006200053283836200059860201b60201c565b6200058d57826000018290806001815401808255809150506001900390600052602060002001600090919091909150558260000180549050836001016000848152602001908152602001600020819055506001905062000592565b600090505b92915050565b600080836001016000848152602001908152602001600020541415905092915050565b828054600181600116156101000203166002900490600052602060002090601f016020900481019282601f10620005fe57805160ff19168380011785556200062f565b828001600101855582156200062f579182015b828111156200062e57825182559160200191906001019062000611565b5b5090506200063e919062000642565b5090565b5b808211156200065d57600081600090555060010162000643565b5090565b6146df80620006716000396000f3fe608060405234801561001057600080fd5b50600436106101c35760003560e01c8063731133e9116100f9578063b390c0ab11610097578063d547741f11610071578063d547741f14611087578063e985e9c5146110d5578063f242432a1461114f578063fe6d81241461125e576101c3565b8063b390c0ab14610fc9578063bba75c8314611001578063ca15c87314611045576101c3565b806391d14854116100d357806391d1485414610ed9578063a217fddf14610f3d578063a22cb46514610f5b578063b1de303e14610fab576101c3565b8063731133e914610c3c57806383ca4b6f14610d2b5780639010d07c14610e77576101c3565b80632eb2c2d61161016657806342d141a11161014057806342d141a1146108fd5780634e1273f41461091b57806355f804b314610abc57806367db3b8f14610b77576101c3565b80632eb2c2d61461063e5780632f2ff15d1461086157806336568abe146108af576101c3565b80630e89341c116101a25780630e89341c14610334578063118c4f13146103db5780631f7fdffa146103f9578063248a9ca3146105fc576101c3565b8062fdd58e146101c857806301ffc9a71461022a5780630bb78ec11461028d575b600080fd5b610214600480360360408110156101de57600080fd5b81019080803573ffffffffffffffffffffffffffffffffffffffff1690602001909291908035906020019092919050505061127c565b6040518082815260200191505060405180910390f35b6102756004803603602081101561024057600080fd5b8101908080357bffffffffffffffffffffffffffffffffffffffffffffffffffffffff1916906020019092919050505061135c565b60405180821515815260200191505060405180910390f35b6102b9600480360360208110156102a357600080fd5b81019080803590602001909291905050506113c3565b6040518080602001828103825283818151815260200191508051906020019080838360005b838110156102f95780820151818401526020810190506102de565b50505050905090810190601f1680156103265780820380516001836020036101000a031916815260200191505b509250505060405180910390f35b6103606004803603602081101561034a57600080fd5b8101908080359060200190929190505050611473565b6040518080602001828103825283818151815260200191508051906020019080838360005b838110156103a0578082015181840152602081019050610385565b50505050905090810190601f1680156103cd5780820380516001836020036101000a031916815260200191505b509250505060405180910390f35b6103e36116fd565b6040518082815260200191505060405180910390f35b6105fa6004803603608081101561040f57600080fd5b81019080803573ffffffffffffffffffffffffffffffffffffffff1690602001909291908035906020019064010000000081111561044c57600080fd5b82018360208201111561045e57600080fd5b8035906020019184602083028401116401000000008311171561048057600080fd5b919080806020026020016040519081016040528093929190818152602001838360200280828437600081840152601f19601f820116905080830192505050505050509192919290803590602001906401000000008111156104e057600080fd5b8201836020820111156104f257600080fd5b8035906020019184602083028401116401000000008311171561051457600080fd5b919080806020026020016040519081016040528093929190818152602001838360200280828437600081840152601f19601f8201169050808301925050505050505091929192908035906020019064010000000081111561057457600080fd5b82018360208201111561058657600080fd5b803590602001918460018302840111640100000000831117156105a857600080fd5b91908080601f016020809104026020016040519081016040528093929190818152602001838380828437600081840152601f19601f820116905080830192505050505050509192919290505050611721565b005b6106286004803603602081101561061257600080fd5b8101908080359060200190929190505050611766565b6040518082815260200191505060405180910390f35b61085f600480360360a081101561065457600080fd5b81019080803573ffffffffffffffffffffffffffffffffffffffff169060200190929190803573ffffffffffffffffffffffffffffffffffffffff169060200190929190803590602001906401000000008111156106b157600080fd5b8201836020820111156106c357600080fd5b803590602001918460208302840111640100000000831117156106e557600080fd5b919080806020026020016040519081016040528093929190818152602001838360200280828437600081840152601f19601f8201169050808301925050505050505091929192908035906020019064010000000081111561074557600080fd5b82018360208201111561075757600080fd5b8035906020019184602083028401116401000000008311171561077957600080fd5b919080806020026020016040519081016040528093929190818152602001838360200280828437600081840152601f19601f820116905080830192505050505050509192919290803590602001906401000000008111156107d957600080fd5b8201836020820111156107eb57600080fd5b8035906020019184600183028401116401000000008311171561080d57600080fd5b91908080601f016020809104026020016040519081016040528093929190818152602001838380828437600081840152601f19601f820116905080830192505050505050509192919290505050611786565b005b6108ad6004803603604081101561087757600080fd5b8101908080359060200190929190803573ffffffffffffffffffffffffffffffffffffffff169060200190929190505050611c89565b005b6108fb600480360360408110156108c557600080fd5b8101908080359060200190929190803573ffffffffffffffffffffffffffffffffffffffff169060200190929190505050611d13565b005b610905611dac565b6040518082815260200191505060405180910390f35b610a656004803603604081101561093157600080fd5b810190808035906020019064010000000081111561094e57600080fd5b82018360208201111561096057600080fd5b8035906020019184602083028401116401000000008311171561098257600080fd5b919080806020026020016040519081016040528093929190818152602001838360200280828437600081840152601f19601f820116905080830192505050505050509192919290803590602001906401000000008111156109e257600080fd5b8201836020820111156109f457600080fd5b80359060200191846020830284011164010000000083111715610a1657600080fd5b919080806020026020016040519081016040528093929190818152602001838360200280828437600081840152601f19601f820116905080830192505050505050509192919290505050611dd0565b6040518080602001828103825283818151815260200191508051906020019060200280838360005b83811015610aa8578082015181840152602081019050610a8d565b505050509050019250505060405180910390f35b610b7560048036036020811015610ad257600080fd5b8101908080359060200190640100000000811115610aef57600080fd5b820183602082011115610b0157600080fd5b80359060200191846001830284011164010000000083111715610b2357600080fd5b91908080601f016020809104026020016040519081016040528093929190818152602001838380828437600081840152601f19601f820116905080830192505050505050509192919290505050611fc2565b005b610c3a60048036036040811015610b8d57600080fd5b8101908080359060200190640100000000811115610baa57600080fd5b820183602082011115610bbc57600080fd5b80359060200191846001830284011164010000000083111715610bde57600080fd5b91908080601f016020809104026020016040519081016040528093929190818152602001838380828437600081840152601f19601f8201169050808301925050505050505091929192908035906020019092919050505061200f565b005b610d2960048036036080811015610c5257600080fd5b81019080803573ffffffffffffffffffffffffffffffffffffffff169060200190929190803590602001909291908035906020019092919080359060200190640100000000811115610ca357600080fd5b820183602082011115610cb557600080fd5b80359060200191846001830284011164010000000083111715610cd757600080fd5b91908080601f016020809104026020016040519081016040528093929190818152602001838380828437600081840152601f19601f82011690508083019250505050505050919291929050505061206e565b005b610e7560048036036040811015610d4157600080fd5b8101908080359060200190640100000000811115610d5e57600080fd5b820183602082011115610d7057600080fd5b80359060200191846020830284011164010000000083111715610d9257600080fd5b919080806020026020016040519081016040528093929190818152602001838360200280828437600081840152601f19601f82011690508083019250505050505050919291929080359060200190640100000000811115610df257600080fd5b820183602082011115610e0457600080fd5b80359060200191846020830284011164010000000083111715610e2657600080fd5b919080806020026020016040519081016040528093929190818152602001838360200280828437600081840152601f19601f8201169050808301925050505050505091929192905050506120b3565b005b610ead60048036036040811015610e8d57600080fd5b8101908080359060200190929190803590602001909291905050506120c2565b604051808273ffffffffffffffffffffffffffffffffffffffff16815260200191505060405180910390f35b610f2560048036036040811015610eef57600080fd5b8101908080359060200190929190803573ffffffffffffffffffffffffffffffffffffffff1690602001909291905050506120f4565b60405180821515815260200191505060405180910390f35b610f45612126565b6040518082815260200191505060405180910390f35b610fa960048036036040811015610f7157600080fd5b81019080803573ffffffffffffffffffffffffffffffffffffffff16906020019092919080351515906020019092919050505061212d565b005b610fb36122c6565b6040518082815260200191505060405180910390f35b610fff60048036036040811015610fdf57600080fd5b8101908080359060200190929190803590602001909291905050506122ea565b005b61102d6004803603602081101561101757600080fd5b81019080803590602001909291905050506122f9565b60405180821515815260200191505060405180910390f35b6110716004803603602081101561105b57600080fd5b8101908080359060200190929190505050612361565b6040518082815260200191505060405180910390f35b6110d36004803603604081101561109d57600080fd5b8101908080359060200190929190803573ffffffffffffffffffffffffffffffffffffffff169060200190929190505050612388565b005b611137600480360360408110156110eb57600080fd5b81019080803573ffffffffffffffffffffffffffffffffffffffff169060200190929190803573ffffffffffffffffffffffffffffffffffffffff169060200190929190505050612412565b60405180821515815260200191505060405180910390f35b61125c600480360360a081101561116557600080fd5b81019080803573ffffffffffffffffffffffffffffffffffffffff169060200190929190803573ffffffffffffffffffffffffffffffffffffffff1690602001909291908035906020019092919080359060200190929190803590602001906401000000008111156111d657600080fd5b8201836020820111156111e857600080fd5b8035906020019184600183028401116401000000008311171561120a57600080fd5b91908080601f016020809104026020016040519081016040528093929190818152602001838380828437600081840152601f19601f8201169050808301925050505050505091929192905050506124a6565b005b611266612906565b6040518082815260200191505060405180910390f35b60008073ffffffffffffffffffffffffffffffffffffffff168373ffffffffffffffffffffffffffffffffffffffff161415611303576040517f08c379a000000000000000000000000000000000000000000000000000000000815260040180806020018281038252602b81526020018061443b602b913960400191505060405180910390fd5b6002600083815260200190815260200160002060008473ffffffffffffffffffffffffffffffffffffffff1673ffffffffffffffffffffffffffffffffffffffff16815260200190815260200160002054905092915050565b6000806000837bffffffffffffffffffffffffffffffffffffffffffffffffffffffff19167bffffffffffffffffffffffffffffffffffffffffffffffffffffffff1916815260200190815260200160002060009054906101000a900460ff169050919050565b60086020528060005260406000206000915090508054600181600116156101000203166002900480601f01602080910402602001604051908101604052809291908181526020018280546001816001161561010002031660029004801561146b5780601f106114405761010080835404028352916020019161146b565b820191906000526020600020905b81548152906001019060200180831161144e57829003601f168201915b505050505081565b606080600860008481526020019081526020016000208054600181600116156101000203166002900480601f01602080910402602001604051908101604052809291908181526020018280546001816001161561010002031660029004801561151d5780601f106114f25761010080835404028352916020019161151d565b820191906000526020600020905b81548152906001019060200180831161150057829003601f168201915b5050505050905060006007805460018160011615610100020316600290049050141561154c57809150506116f8565b6000815111156116255760078160405160200180838054600181600116156101000203166002900480156115b75780601f106115955761010080835404028352918201916115b7565b820191906000526020600020905b8154815290600101906020018083116115a3575b505082805190602001908083835b602083106115e857805182526020820191506020810190506020830392506115c5565b6001836020036101000a038019825116818451168082178552505050505050905001925050506040516020818303038152906040529150506116f8565b60076116308461295a565b604051602001808380546001816001161561010002031660029004801561168e5780601f1061166c57610100808354040283529182019161168e565b820191906000526020600020905b81548152906001019060200180831161167a575b505082805190602001908083835b602083106116bf578051825260208201915060208101905060208303925061169c565b6001836020036101000a038019825116818451168082178552505050505050905001925050506040516020818303038152906040529150505b919050565b7f9667e80708b6eeeb0053fa0cca44e028ff548e2a9f029edfeac87c118b08b7c881565b61174b7ff0887ba65ee2024ea881d91b74c2450ef19e1557f03bed3ea9f16b037cbe2dc9336120f4565b61175457600080fd5b61176084848484612aa1565b50505050565b600060066000838152602001908152602001600020600201549050919050565b81518351146117e0576040517f08c379a00000000000000000000000000000000000000000000000000000000081526004018080602001828103825260288152602001806146326028913960400191505060405180910390fd5b600073ffffffffffffffffffffffffffffffffffffffff168473ffffffffffffffffffffffffffffffffffffffff161415611866576040517f08c379a00000000000000000000000000000000000000000000000000000000081526004018080602001828103825260258152602001806145146025913960400191505060405180910390fd5b61186e612dc3565b73ffffffffffffffffffffffffffffffffffffffff168573ffffffffffffffffffffffffffffffffffffffff1614806118b457506118b3856118ae612dc3565b612412565b5b611909576040517f08c379a00000000000000000000000000000000000000000000000000000000081526004018080602001828103825260328152602001806145396032913960400191505060405180910390fd5b6000611913612dc3565b9050611923818787878787612dcb565b60005b8451811015611b6c576000151561194f86838151811061194257fe5b60200260200101516122f9565b1515146119a7576040517f08c379a00000000000000000000000000000000000000000000000000000000081526004018080602001828103825260288152602001806145b86028913960400191505060405180910390fd5b60008582815181106119b557fe5b6020026020010151905060008583815181106119cd57fe5b60200260200101519050611a54816040518060600160405280602a815260200161458e602a91396002600086815260200190815260200160002060008d73ffffffffffffffffffffffffffffffffffffffff1673ffffffffffffffffffffffffffffffffffffffff16815260200190815260200160002054612dd39092919063ffffffff16565b6002600084815260200190815260200160002060008b73ffffffffffffffffffffffffffffffffffffffff1673ffffffffffffffffffffffffffffffffffffffff16815260200190815260200160002081905550611b0b816002600085815260200190815260200160002060008b73ffffffffffffffffffffffffffffffffffffffff1673ffffffffffffffffffffffffffffffffffffffff16815260200190815260200160002054612e9390919063ffffffff16565b6002600084815260200190815260200160002060008a73ffffffffffffffffffffffffffffffffffffffff1673ffffffffffffffffffffffffffffffffffffffff168152602001908152602001600020819055505050806001019050611926565b508473ffffffffffffffffffffffffffffffffffffffff168673ffffffffffffffffffffffffffffffffffffffff168273ffffffffffffffffffffffffffffffffffffffff167f4a39dc06d4c0dbc64b70af90fd698a233a518aa5d07e595d983b8c0526c8f7fb8787604051808060200180602001838103835285818151815260200191508051906020019060200280838360005b83811015611c1c578082015181840152602081019050611c01565b50505050905001838103825284818151815260200191508051906020019060200280838360005b83811015611c5e578082015181840152602081019050611c43565b5050505090500194505050505060405180910390a4611c81818787878787612f1b565b505050505050565b611cb06006600084815260200190815260200160002060020154611cab612dc3565b6120f4565b611d05576040517f08c379a000000000000000000000000000000000000000000000000000000000815260040180806020018281038252602f81526020018061440c602f913960400191505060405180910390fd5b611d0f82826132aa565b5050565b611d1b612dc3565b73ffffffffffffffffffffffffffffffffffffffff168173ffffffffffffffffffffffffffffffffffffffff1614611d9e576040517f08c379a000000000000000000000000000000000000000000000000000000000815260040180806020018281038252602f81526020018061467b602f913960400191505060405180910390fd5b611da8828261333e565b5050565b7fb298fa9636e9050fbd8ff56bd93a3fca017e3e18b3a30f173dee3380c98765ca81565b60608151835114611e2c576040517f08c379a00000000000000000000000000000000000000000000000000000000081526004018080602001828103825260298152602001806146096029913960400191505060405180910390fd5b6060835167ffffffffffffffff81118015611e4657600080fd5b50604051908082528060200260200182016040528015611e755781602001602082028036833780820191505090505b50905060005b8451811015611fb757600073ffffffffffffffffffffffffffffffffffffffff16858281518110611ea857fe5b602002602001015173ffffffffffffffffffffffffffffffffffffffff161415611f1d576040517f08c379a00000000000000000000000000000000000000000000000000000000081526004018080602001828103825260318152602001806144666031913960400191505060405180910390fd5b60026000858381518110611f2d57fe5b602002602001015181526020019081526020016000206000868381518110611f5157fe5b602002602001015173ffffffffffffffffffffffffffffffffffffffff1673ffffffffffffffffffffffffffffffffffffffff16815260200190815260200160002054828281518110611fa057fe5b602002602001018181525050806001019050611e7b565b508091505092915050565b611fec7ff6e33f9720e4529cb1c710e3344dc00830589a3239198ffa39b07117085d250e336120f4565b611ff557600080fd5b806007908051906020019061200b92919061421c565b5050565b6120397ff6e33f9720e4529cb1c710e3344dc00830589a3239198ffa39b07117085d250e336120f4565b61204257600080fd5b8160086000838152602001908152602001600020908051906020019061206992919061421c565b505050565b6120987ff0887ba65ee2024ea881d91b74c2450ef19e1557f03bed3ea9f16b037cbe2dc9336120f4565b6120a157600080fd5b6120ad848484846133d2565b50505050565b6120be3383836135d5565b5050565b60006120ec826006600086815260200190815260200160002060000161391090919063ffffffff16565b905092915050565b600061211e826006600086815260200190815260200160002060000161392a90919063ffffffff16565b905092915050565b6000801b81565b8173ffffffffffffffffffffffffffffffffffffffff1661214c612dc3565b73ffffffffffffffffffffffffffffffffffffffff1614156121b9576040517f08c379a00000000000000000000000000000000000000000000000000000000081526004018080602001828103825260298152602001806145e06029913960400191505060405180910390fd5b80600460006121c6612dc3565b73ffffffffffffffffffffffffffffffffffffffff1673ffffffffffffffffffffffffffffffffffffffff16815260200190815260200160002060008473ffffffffffffffffffffffffffffffffffffffff1673ffffffffffffffffffffffffffffffffffffffff16815260200190815260200160002060006101000a81548160ff0219169083151502179055508173ffffffffffffffffffffffffffffffffffffffff16612273612dc3565b73ffffffffffffffffffffffffffffffffffffffff167f17307eab39ab6107e8899845ad3d59bd9653f200f220920489ca2b5937696c318360405180821515815260200191505060405180910390a35050565b7ff6e33f9720e4529cb1c710e3344dc00830589a3239198ffa39b07117085d250e81565b6122f533838361395a565b5050565b600061230f600154838161230957fe5b04613b76565b6000662386f26fc10000600154848161232457fe5b048161232c57fe5b06905061233881613b76565b6003600082815260200190815260200160002060009054906101000a900460ff16915050919050565b600061238160066000848152602001908152602001600020600001613c0f565b9050919050565b6123af60066000848152602001908152602001600020600201546123aa612dc3565b6120f4565b612404576040517f08c379a00000000000000000000000000000000000000000000000000000000081526004018080602001828103825260308152602001806144e46030913960400191505060405180910390fd5b61240e828261333e565b5050565b6000600460008473ffffffffffffffffffffffffffffffffffffffff1673ffffffffffffffffffffffffffffffffffffffff16815260200190815260200160002060008373ffffffffffffffffffffffffffffffffffffffff1673ffffffffffffffffffffffffffffffffffffffff16815260200190815260200160002060009054906101000a900460ff16905092915050565b600073ffffffffffffffffffffffffffffffffffffffff168473ffffffffffffffffffffffffffffffffffffffff16141561252c576040517f08c379a00000000000000000000000000000000000000000000000000000000081526004018080602001828103825260258152602001806145146025913960400191505060405180910390fd5b600073ffffffffffffffffffffffffffffffffffffffff168473ffffffffffffffffffffffffffffffffffffffff1614156125b2576040517f08c379a00000000000000000000000000000000000000000000000000000000081526004018080602001828103825260258152602001806145146025913960400191505060405180910390fd5b6125ba612dc3565b73ffffffffffffffffffffffffffffffffffffffff168573ffffffffffffffffffffffffffffffffffffffff16148061260057506125ff856125fa612dc3565b612412565b5b612655576040517f08c379a00000000000000000000000000000000000000000000000000000000081526004018080602001828103825260298152602001806144bb6029913960400191505060405180910390fd5b60001515612662846122f9565b1515146126ba576040517f08c379a00000000000000000000000000000000000000000000000000000000081526004018080602001828103825260288152602001806145b86028913960400191505060405180910390fd5b60006126c4612dc3565b90506126e48187876126d588613c24565b6126de88613c24565b87612dcb565b612761836040518060600160405280602a815260200161458e602a91396002600088815260200190815260200160002060008a73ffffffffffffffffffffffffffffffffffffffff1673ffffffffffffffffffffffffffffffffffffffff16815260200190815260200160002054612dd39092919063ffffffff16565b6002600086815260200190815260200160002060008873ffffffffffffffffffffffffffffffffffffffff1673ffffffffffffffffffffffffffffffffffffffff16815260200190815260200160002081905550612818836002600087815260200190815260200160002060008873ffffffffffffffffffffffffffffffffffffffff1673ffffffffffffffffffffffffffffffffffffffff16815260200190815260200160002054612e9390919063ffffffff16565b6002600086815260200190815260200160002060008773ffffffffffffffffffffffffffffffffffffffff1673ffffffffffffffffffffffffffffffffffffffff168152602001908152602001600020819055508473ffffffffffffffffffffffffffffffffffffffff168673ffffffffffffffffffffffffffffffffffffffff168273ffffffffffffffffffffffffffffffffffffffff167fc3d58168c5ae7397731d063d5bbf3d657854427343f4c083240f7aacaa2d0f628787604051808381526020018281526020019250505060405180910390a46128fe818787878787613c94565b505050505050565b7ff0887ba65ee2024ea881d91b74c2450ef19e1557f03bed3ea9f16b037cbe2dc981565b6000612952836000018373ffffffffffffffffffffffffffffffffffffffff1660001b613fa1565b905092915050565b606060008214156129a2576040518060400160405280600181526020017f30000000000000000000000000000000000000000000000000000000000000008152509050612a9c565b600082905060005b600082146129cc578080600101915050600a82816129c457fe5b0491506129aa565b60608167ffffffffffffffff811180156129e557600080fd5b506040519080825280601f01601f191660200182016040528015612a185781602001600182028036833780820191505090505b50905060006001830390508593505b60008414612a9457600a8481612a3957fe5b0660300160f81b82828060019003935081518110612a5357fe5b60200101907effffffffffffffffffffffffffffffffffffffffffffffffffffffffffffff1916908160001a905350600a8481612a8c57fe5b049350612a27565b819450505050505b919050565b600073ffffffffffffffffffffffffffffffffffffffff168473ffffffffffffffffffffffffffffffffffffffff161415612b27576040517f08c379a000000000000000000000000000000000000000000000000000000000815260040180806020018281038252602181526020018061465a6021913960400191505060405180910390fd5b8151835114612b81576040517f08c379a00000000000000000000000000000000000000000000000000000000081526004018080602001828103825260288152602001806146326028913960400191505060405180910390fd5b6000612b8b612dc3565b9050612b9c81600087878787612dcb565b60005b8451811015612ca557612c3160026000878481518110612bbb57fe5b6020026020010151815260200190815260200160002060008873ffffffffffffffffffffffffffffffffffffffff1673ffffffffffffffffffffffffffffffffffffffff16815260200190815260200160002054858381518110612c1b57fe5b6020026020010151612e9390919063ffffffff16565b60026000878481518110612c4157fe5b6020026020010151815260200190815260200160002060008873ffffffffffffffffffffffffffffffffffffffff1673ffffffffffffffffffffffffffffffffffffffff168152602001908152602001600020819055508080600101915050612b9f565b508473ffffffffffffffffffffffffffffffffffffffff16600073ffffffffffffffffffffffffffffffffffffffff168273ffffffffffffffffffffffffffffffffffffffff167f4a39dc06d4c0dbc64b70af90fd698a233a518aa5d07e595d983b8c0526c8f7fb8787604051808060200180602001838103835285818151815260200191508051906020019060200280838360005b83811015612d56578082015181840152602081019050612d3b565b50505050905001838103825284818151815260200191508051906020019060200280838360005b83811015612d98578082015181840152602081019050612d7d565b5050505090500194505050505060405180910390a4612dbc81600087878787612f1b565b5050505050565b600033905090565b505050505050565b6000838311158290612e80576040517f08c379a00000000000000000000000000000000000000000000000000000000081526004018080602001828103825283818151815260200191508051906020019080838360005b83811015612e45578082015181840152602081019050612e2a565b50505050905090810190601f168015612e725780820380516001836020036101000a031916815260200191505b509250505060405180910390fd5b5060008385039050809150509392505050565b600080828401905083811015612f11576040517f08c379a000000000000000000000000000000000000000000000000000000000815260040180806020018281038252601b8152602001807f536166654d6174683a206164646974696f6e206f766572666c6f77000000000081525060200191505060405180910390fd5b8091505092915050565b612f3a8473ffffffffffffffffffffffffffffffffffffffff16614011565b156132a2578373ffffffffffffffffffffffffffffffffffffffff1663bc197c8187878686866040518663ffffffff1660e01b8152600401808673ffffffffffffffffffffffffffffffffffffffff1681526020018573ffffffffffffffffffffffffffffffffffffffff168152602001806020018060200180602001848103845287818151815260200191508051906020019060200280838360005b83811015612ff2578082015181840152602081019050612fd7565b50505050905001848103835286818151815260200191508051906020019060200280838360005b83811015613034578082015181840152602081019050613019565b50505050905001848103825285818151815260200191508051906020019080838360005b83811015613073578082015181840152602081019050613058565b50505050905090810190601f1680156130a05780820380516001836020036101000a031916815260200191505b5098505050505050505050602060405180830381600087803b1580156130c557600080fd5b505af19250505080156130f957506040513d60208110156130e557600080fd5b810190808051906020019092919050505060015b613203576131056142d7565b8061311057506131b2565b806040517f08c379a00000000000000000000000000000000000000000000000000000000081526004018080602001828103825283818151815260200191508051906020019080838360005b8381101561317757808201518184015260208101905061315c565b50505050905090810190601f1680156131a45780820380516001836020036101000a031916815260200191505b509250505060405180910390fd5b6040517f08c379a000000000000000000000000000000000000000000000000000000000815260040180806020018281038252603481526020018061438e6034913960400191505060405180910390fd5b63bc197c8160e01b7bffffffffffffffffffffffffffffffffffffffffffffffffffffffff1916817bffffffffffffffffffffffffffffffffffffffffffffffffffffffff1916146132a0576040517f08c379a00000000000000000000000000000000000000000000000000000000081526004018080602001828103825260288152602001806143e46028913960400191505060405180910390fd5b505b505050505050565b6132d2816006600085815260200190815260200160002060000161292a90919063ffffffff16565b1561333a576132df612dc3565b73ffffffffffffffffffffffffffffffffffffffff168173ffffffffffffffffffffffffffffffffffffffff16837f2f8788117e7eff1d82e926ec794901d17c78024a50270940304540a733656f0d60405160405180910390a45b5050565b613366816006600085815260200190815260200160002060000161402490919063ffffffff16565b156133ce57613373612dc3565b73ffffffffffffffffffffffffffffffffffffffff168173ffffffffffffffffffffffffffffffffffffffff16837ff6391f5c32d9c69d2a47ea670b442974b53935d1edc7fd64eb21e047a839171b60405160405180910390a45b5050565b600073ffffffffffffffffffffffffffffffffffffffff168473ffffffffffffffffffffffffffffffffffffffff161415613458576040517f08c379a000000000000000000000000000000000000000000000000000000000815260040180806020018281038252602181526020018061465a6021913960400191505060405180910390fd5b6000613462612dc3565b90506134838160008761347488613c24565b61347d88613c24565b87612dcb565b6134e6836002600087815260200190815260200160002060008873ffffffffffffffffffffffffffffffffffffffff1673ffffffffffffffffffffffffffffffffffffffff16815260200190815260200160002054612e9390919063ffffffff16565b6002600086815260200190815260200160002060008773ffffffffffffffffffffffffffffffffffffffff1673ffffffffffffffffffffffffffffffffffffffff168152602001908152602001600020819055508473ffffffffffffffffffffffffffffffffffffffff16600073ffffffffffffffffffffffffffffffffffffffff168273ffffffffffffffffffffffffffffffffffffffff167fc3d58168c5ae7397731d063d5bbf3d657854427343f4c083240f7aacaa2d0f628787604051808381526020018281526020019250505060405180910390a46135ce81600087878787613c94565b5050505050565b600073ffffffffffffffffffffffffffffffffffffffff168373ffffffffffffffffffffffffffffffffffffffff16141561365b576040517f08c379a000000000000000000000000000000000000000000000000000000000815260040180806020018281038252602381526020018061456b6023913960400191505060405180910390fd5b80518251146136b5576040517f08c379a00000000000000000000000000000000000000000000000000000000081526004018080602001828103825260288152602001806146326028913960400191505060405180910390fd5b60006136bf612dc3565b90506136df81856000868660405180602001604052806000815250612dcb565b60005b83518110156138025761378e8382815181106136fa57fe5b6020026020010151604051806060016040528060248152602001614497602491396002600088868151811061372b57fe5b6020026020010151815260200190815260200160002060008973ffffffffffffffffffffffffffffffffffffffff1673ffffffffffffffffffffffffffffffffffffffff16815260200190815260200160002054612dd39092919063ffffffff16565b6002600086848151811061379e57fe5b6020026020010151815260200190815260200160002060008773ffffffffffffffffffffffffffffffffffffffff1673ffffffffffffffffffffffffffffffffffffffff1681526020019081526020016000208190555080806001019150506136e2565b50600073ffffffffffffffffffffffffffffffffffffffff168473ffffffffffffffffffffffffffffffffffffffff168273ffffffffffffffffffffffffffffffffffffffff167f4a39dc06d4c0dbc64b70af90fd698a233a518aa5d07e595d983b8c0526c8f7fb8686604051808060200180602001838103835285818151815260200191508051906020019060200280838360005b838110156138b3578082015181840152602081019050613898565b50505050905001838103825284818151815260200191508051906020019060200280838360005b838110156138f55780820151818401526020810190506138da565b5050505090500194505050505060405180910390a450505050565b600061391f8360000183614054565b60001c905092915050565b6000613952836000018373ffffffffffffffffffffffffffffffffffffffff1660001b6140d7565b905092915050565b600073ffffffffffffffffffffffffffffffffffffffff168373ffffffffffffffffffffffffffffffffffffffff1614156139e0576040517f08c379a000000000000000000000000000000000000000000000000000000000815260040180806020018281038252602381526020018061456b6023913960400191505060405180910390fd5b60006139ea612dc3565b9050613a1a818560006139fc87613c24565b613a0587613c24565b60405180602001604052806000815250612dcb565b613a9782604051806060016040528060248152602001614497602491396002600087815260200190815260200160002060008873ffffffffffffffffffffffffffffffffffffffff1673ffffffffffffffffffffffffffffffffffffffff16815260200190815260200160002054612dd39092919063ffffffff16565b6002600085815260200190815260200160002060008673ffffffffffffffffffffffffffffffffffffffff1673ffffffffffffffffffffffffffffffffffffffff16815260200190815260200160002081905550600073ffffffffffffffffffffffffffffffffffffffff168473ffffffffffffffffffffffffffffffffffffffff168273ffffffffffffffffffffffffffffffffffffffff167fc3d58168c5ae7397731d063d5bbf3d657854427343f4c083240f7aacaa2d0f628686604051808381526020018281526020019250505060405180910390a450505050565b613c0c81604051602401808281526020019150506040516020818303038152906040527ff5b1bba9000000000000000000000000000000000000000000000000000000007bffffffffffffffffffffffffffffffffffffffffffffffffffffffff19166020820180517bffffffffffffffffffffffffffffffffffffffffffffffffffffffff83818316178352505050506140fa565b50565b6000613c1d82600001614123565b9050919050565b606080600167ffffffffffffffff81118015613c3f57600080fd5b50604051908082528060200260200182016040528015613c6e5781602001602082028036833780820191505090505b5090508281600081518110613c7f57fe5b60200260200101818152505080915050919050565b613cb38473ffffffffffffffffffffffffffffffffffffffff16614011565b15613f99578373ffffffffffffffffffffffffffffffffffffffff1663f23a6e6187878686866040518663ffffffff1660e01b8152600401808673ffffffffffffffffffffffffffffffffffffffff1681526020018573ffffffffffffffffffffffffffffffffffffffff16815260200184815260200183815260200180602001828103825283818151815260200191508051906020019080838360005b83811015613d6c578082015181840152602081019050613d51565b50505050905090810190601f168015613d995780820380516001836020036101000a031916815260200191505b509650505050505050602060405180830381600087803b158015613dbc57600080fd5b505af1925050508015613df057506040513d6020811015613ddc57600080fd5b810190808051906020019092919050505060015b613efa57613dfc6142d7565b80613e075750613ea9565b806040517f08c379a00000000000000000000000000000000000000000000000000000000081526004018080602001828103825283818151815260200191508051906020019080838360005b83811015613e6e578082015181840152602081019050613e53565b50505050905090810190601f168015613e9b5780820380516001836020036101000a031916815260200191505b509250505060405180910390fd5b6040517f08c379a000000000000000000000000000000000000000000000000000000000815260040180806020018281038252603481526020018061438e6034913960400191505060405180910390fd5b63f23a6e6160e01b7bffffffffffffffffffffffffffffffffffffffffffffffffffffffff1916817bffffffffffffffffffffffffffffffffffffffffffffffffffffffff191614613f97576040517f08c379a00000000000000000000000000000000000000000000000000000000081526004018080602001828103825260288152602001806143e46028913960400191505060405180910390fd5b505b505050505050565b6000613fad83836140d7565b61400657826000018290806001815401808255809150506001900390600052602060002001600090919091909150558260000180549050836001016000848152602001908152602001600020819055506001905061400b565b600090505b92915050565b600080823b905060008111915050919050565b600061404c836000018373ffffffffffffffffffffffffffffffffffffffff1660001b614134565b905092915050565b6000818360000180549050116140b5576040517f08c379a00000000000000000000000000000000000000000000000000000000081526004018080602001828103825260228152602001806143c26022913960400191505060405180910390fd5b8260000182815481106140c457fe5b9060005260206000200154905092915050565b600080836001016000848152602001908152602001600020541415905092915050565b60008151905060006a636f6e736f6c652e6c6f679050602083016000808483855afa5050505050565b600081600001805490509050919050565b60008083600101600084815260200190815260200160002054905060008114614210576000600182039050600060018660000180549050039050600086600001828154811061417f57fe5b906000526020600020015490508087600001848154811061419c57fe5b90600052602060002001819055506001830187600101600083815260200190815260200160002081905550866000018054806141d457fe5b60019003818190600052602060002001600090559055866001016000878152602001908152602001600020600090556001945050505050614216565b60009150505b92915050565b828054600181600116156101000203166002900490600052602060002090601f016020900481019282601f1061425d57805160ff191683800117855561428b565b8280016001018555821561428b579182015b8281111561428a57825182559160200191906001019061426f565b5b509050614298919061429c565b5090565b5b808211156142b557600081600090555060010161429d565b5090565b6000601f19601f8301169050919050565b60008160e01c9050919050565b600060443d10156142e75761438a565b60046000803e6142f86000516142ca565b6308c379a08114614309575061438a565b60405160043d036004823e80513d602482011167ffffffffffffffff821117156143355750505061438a565b808201805167ffffffffffffffff81111561435457505050505061438a565b8060208301013d850181111561436f5750505050505061438a565b614378826142b9565b60208401016040528296505050505050505b9056fe455243313135353a207472616e7366657220746f206e6f6e2045524331313535526563656976657220696d706c656d656e746572456e756d657261626c655365743a20696e646578206f7574206f6620626f756e6473455243313135353a204552433131353552656365697665722072656a656374656420746f6b656e73416363657373436f6e74726f6c3a2073656e646572206d75737420626520616e2061646d696e20746f206772616e74455243313135353a2062616c616e636520717565727920666f7220746865207a65726f2061646472657373455243313135353a2062617463682062616c616e636520717565727920666f7220746865207a65726f2061646472657373455243313135353a206275726e20616d6f756e7420657863656564732062616c616e6365455243313135353a2063616c6c6572206973206e6f74206f776e6572206e6f7220617070726f766564416363657373436f6e74726f6c3a2073656e646572206d75737420626520616e2061646d696e20746f207265766f6b65455243313135353a207472616e7366657220746f20746865207a65726f2061646472657373455243313135353a207472616e736665722063616c6c6572206973206e6f74206f776e6572206e6f7220617070726f766564455243313135353a206275726e2066726f6d20746865207a65726f2061646472657373455243313135353a20696e73756666696369656e742062616c616e636520666f72207472616e73666572746f6b656e207472616e736665727320617265206c6f636b656420666f7220746869732074797065455243313135353a2073657474696e6720617070726f76616c2073746174757320666f722073656c66455243313135353a206163636f756e747320616e6420696473206c656e677468206d69736d61746368455243313135353a2069647320616e6420616d6f756e7473206c656e677468206d69736d61746368455243313135353a206d696e7420746f20746865207a65726f2061646472657373416363657373436f6e74726f6c3a2063616e206f6e6c792072656e6f756e636520726f6c657320666f722073656c66a2646970667358221220bea8fc8d9e196642b587571f84f3aed14efe91c4fc21c66fe513df854602c40364736f6c63430007030033",
  "linkReferences": {},
  "deployedLinkReferences": {}
}