{
  "_format": "hh-sol-artifact-1",
  "contractName": "Admin",
  "sourceName": "contracts/Admin.sol",
  "abi": [
    {
      "inputs": [],
      "stateMutability": "nonpayable",
      "type": "constructor"
    },
    {
      "anonymous": false,
      "inputs": [
        {
          "indexed": true,
          "internalType": "bytes32",
          "name": "role",
          "type": "bytes32"
        },
        {
          "indexed": true,
          "internalType": "bytes32",
          "name": "previousAdminRole",
          "type": "bytes32"
        },
        {
          "indexed": true,
          "internalType": "bytes32",
          "name": "newAdminRole",
          "type": "bytes32"
        }
      ],
      "name": "RoleAdminChanged",
      "type": "event"
    },
    {
      "anonymous": false,
      "inputs": [
        {
          "indexed": true,
          "internalType": "bytes32",
          "name": "role",
          "type": "bytes32"
        },
        {
          "indexed": true,
          "internalType": "address",
          "name": "account",
          "type": "address"
        },
        {
          "indexed": true,
          "internalType": "address",
          "name": "sender",
          "type": "address"
        }
      ],
      "name": "RoleGranted",
      "type": "event"
    },
    {
      "anonymous": false,
      "inputs": [
        {
          "indexed": true,
          "internalType": "bytes32",
          "name": "role",
          "type": "bytes32"
        },
        {
          "indexed": true,
          "internalType": "address",
          "name": "account",
          "type": "address"
        },
        {
          "indexed": true,
          "internalType": "address",
          "name": "sender",
          "type": "address"
        }
      ],
      "name": "RoleRevoked",
      "type": "event"
    },
    {
      "inputs": [],
      "name": "BURNER",
      "outputs": [
        {
          "internalType": "bytes32",
          "name": "",
          "type": "bytes32"
        }
      ],
      "stateMutability": "view",
      "type": "function"
    },
    {
      "inputs": [],
      "name": "DEFAULT_ADMIN_ROLE",
      "outputs": [
        {
          "internalType": "bytes32",
          "name": "",
          "type": "bytes32"
        }
      ],
      "stateMutability": "view",
      "type": "function"
    },
    {
      "inputs": [],
      "name": "GUEST",
      "outputs": [
        {
          "internalType": "bytes32",
          "name": "",
          "type": "bytes32"
        }
      ],
      "stateMutability": "view",
      "type": "function"
    },
    {
      "inputs": [],
      "name": "METADATA_ADMIN",
      "outputs": [
        {
          "internalType": "bytes32",
          "name": "",
          "type": "bytes32"
        }
      ],
      "stateMutability": "view",
      "type": "function"
    },
    {
      "inputs": [],
      "name": "MINTER",
      "outputs": [
        {
          "internalType": "bytes32",
          "name": "",
          "type": "bytes32"
        }
      ],
      "stateMutability": "view",
      "type": "function"
    },
    {
      "inputs": [
        {
          "internalType": "bytes32",
          "name": "role",
          "type": "bytes32"
        }
      ],
      "name": "getRoleAdmin",
      "outputs": [
        {
          "internalType": "bytes32",
          "name": "",
          "type": "bytes32"
        }
      ],
      "stateMutability": "view",
      "type": "function"
    },
    {
      "inputs": [
        {
          "internalType": "bytes32",
          "name": "role",
          "type": "bytes32"
        },
        {
          "internalType": "uint256",
          "name": "index",
          "type": "uint256"
        }
      ],
      "name": "getRoleMember",
      "outputs": [
        {
          "internalType": "address",
          "name": "",
          "type": "address"
        }
      ],
      "stateMutability": "view",
      "type": "function"
    },
    {
      "inputs": [
        {
          "internalType": "bytes32",
          "name": "role",
          "type": "bytes32"
        }
      ],
      "name": "getRoleMemberCount",
      "outputs": [
        {
          "internalType": "uint256",
          "name": "",
          "type": "uint256"
        }
      ],
      "stateMutability": "view",
      "type": "function"
    },
    {
      "inputs": [
        {
          "internalType": "bytes32",
          "name": "role",
          "type": "bytes32"
        },
        {
          "internalType": "address",
          "name": "account",
          "type": "address"
        }
      ],
      "name": "grantRole",
      "outputs": [],
      "stateMutability": "nonpayable",
      "type": "function"
    },
    {
      "inputs": [
        {
          "internalType": "bytes32",
          "name": "role",
          "type": "bytes32"
        },
        {
          "internalType": "address",
          "name": "account",
          "type": "address"
        }
      ],
      "name": "hasRole",
      "outputs": [
        {
          "internalType": "bool",
          "name": "",
          "type": "bool"
        }
      ],
      "stateMutability": "view",
      "type": "function"
    },
    {
      "inputs": [
        {
          "internalType": "bytes32",
          "name": "role",
          "type": "bytes32"
        },
        {
          "internalType": "address",
          "name": "account",
          "type": "address"
        }
      ],
      "name": "renounceRole",
      "outputs": [],
      "stateMutability": "nonpayable",
      "type": "function"
    },
    {
      "inputs": [
        {
          "internalType": "bytes32",
          "name": "role",
          "type": "bytes32"
        },
        {
          "internalType": "address",
          "name": "account",
          "type": "address"
        }
      ],
      "name": "revokeRole",
      "outputs": [],
      "stateMutability": "nonpayable",
      "type": "function"
    }
  ],
  "bytecode": "0x60806040523480156200001157600080fd5b50620000366000801b6200002a6200015d60201b60201c565b6200016560201b60201c565b620000777ff6e33f9720e4529cb1c710e3344dc00830589a3239198ffa39b07117085d250e6200006b6200015d60201b60201c565b6200016560201b60201c565b620000b87ff0887ba65ee2024ea881d91b74c2450ef19e1557f03bed3ea9f16b037cbe2dc9620000ac6200015d60201b60201c565b6200016560201b60201c565b620000ed6000801b7ff0887ba65ee2024ea881d91b74c2450ef19e1557f03bed3ea9f16b037cbe2dc96200017b60201b60201c565b620001226000801b7fb298fa9636e9050fbd8ff56bd93a3fca017e3e18b3a30f173dee3380c98765ca6200017b60201b60201c565b620001576000801b7ff6e33f9720e4529cb1c710e3344dc00830589a3239198ffa39b07117085d250e6200017b60201b60201c565b62000355565b600033905090565b620001778282620001dd60201b60201c565b5050565b8060008084815260200190815260200160002060020154837fbd79b86ffe0ab8e8776151514217cd7cacd52c909f66475c3af44e129f0b00ff60405160405180910390a480600080848152602001908152602001600020600201819055505050565b6200020b816000808581526020019081526020016000206000016200028060201b6200066c1790919060201c565b156200027c57620002216200015d60201b60201c565b73ffffffffffffffffffffffffffffffffffffffff168173ffffffffffffffffffffffffffffffffffffffff16837f2f8788117e7eff1d82e926ec794901d17c78024a50270940304540a733656f0d60405160405180910390a45b5050565b6000620002b0836000018373ffffffffffffffffffffffffffffffffffffffff1660001b620002b860201b60201c565b905092915050565b6000620002cc83836200033260201b60201c565b620003275782600001829080600181540180825580915050600190039060005260206000200160009091909190915055826000018054905083600101600084815260200190815260200160002081905550600190506200032c565b600090505b92915050565b600080836001016000848152602001908152602001600020541415905092915050565b610b4e80620003656000396000f3fe608060405234801561001057600080fd5b50600436106100b45760003560e01c806391d148541161007157806391d1485414610235578063a217fddf14610299578063b1de303e146102b7578063ca15c873146102d5578063d547741f14610317578063fe6d812414610365576100b4565b8063118c4f13146100b9578063248a9ca3146100d75780632f2ff15d1461011957806336568abe1461016757806342d141a1146101b55780639010d07c146101d3575b600080fd5b6100c1610383565b6040518082815260200191505060405180910390f35b610103600480360360208110156100ed57600080fd5b81019080803590602001909291905050506103a7565b6040518082815260200191505060405180910390f35b6101656004803603604081101561012f57600080fd5b8101908080359060200190929190803573ffffffffffffffffffffffffffffffffffffffff1690602001909291905050506103c6565b005b6101b36004803603604081101561017d57600080fd5b8101908080359060200190929190803573ffffffffffffffffffffffffffffffffffffffff16906020019092919050505061044f565b005b6101bd6104e8565b6040518082815260200191505060405180910390f35b610209600480360360408110156101e957600080fd5b81019080803590602001909291908035906020019092919050505061050c565b604051808273ffffffffffffffffffffffffffffffffffffffff16815260200191505060405180910390f35b6102816004803603604081101561024b57600080fd5b8101908080359060200190929190803573ffffffffffffffffffffffffffffffffffffffff16906020019092919050505061053d565b60405180821515815260200191505060405180910390f35b6102a161056e565b6040518082815260200191505060405180910390f35b6102bf610575565b6040518082815260200191505060405180910390f35b610301600480360360208110156102eb57600080fd5b8101908080359060200190929190505050610599565b6040518082815260200191505060405180910390f35b6103636004803603604081101561032d57600080fd5b8101908080359060200190929190803573ffffffffffffffffffffffffffffffffffffffff1690602001909291905050506105bf565b005b61036d610648565b6040518082815260200191505060405180910390f35b7f9667e80708b6eeeb0053fa0cca44e028ff548e2a9f029edfeac87c118b08b7c881565b6000806000838152602001908152602001600020600201549050919050565b6103ec600080848152602001908152602001600020600201546103e761069c565b61053d565b610441576040517f08c379a000000000000000000000000000000000000000000000000000000000815260040180806020018281038252602f815260200180610a8b602f913960400191505060405180910390fd5b61044b82826106a4565b5050565b61045761069c565b73ffffffffffffffffffffffffffffffffffffffff168173ffffffffffffffffffffffffffffffffffffffff16146104da576040517f08c379a000000000000000000000000000000000000000000000000000000000815260040180806020018281038252602f815260200180610aea602f913960400191505060405180910390fd5b6104e48282610737565b5050565b7fb298fa9636e9050fbd8ff56bd93a3fca017e3e18b3a30f173dee3380c98765ca81565b6000610535826000808681526020019081526020016000206000016107ca90919063ffffffff16565b905092915050565b6000610566826000808681526020019081526020016000206000016107e490919063ffffffff16565b905092915050565b6000801b81565b7ff6e33f9720e4529cb1c710e3344dc00830589a3239198ffa39b07117085d250e81565b60006105b8600080848152602001908152602001600020600001610814565b9050919050565b6105e5600080848152602001908152602001600020600201546105e061069c565b61053d565b61063a576040517f08c379a0000000000000000000000000000000000000000000000000000000008152600401808060200182810382526030815260200180610aba6030913960400191505060405180910390fd5b6106448282610737565b5050565b7ff0887ba65ee2024ea881d91b74c2450ef19e1557f03bed3ea9f16b037cbe2dc981565b6000610694836000018373ffffffffffffffffffffffffffffffffffffffff1660001b610829565b905092915050565b600033905090565b6106cb8160008085815260200190815260200160002060000161066c90919063ffffffff16565b15610733576106d861069c565b73ffffffffffffffffffffffffffffffffffffffff168173ffffffffffffffffffffffffffffffffffffffff16837f2f8788117e7eff1d82e926ec794901d17c78024a50270940304540a733656f0d60405160405180910390a45b5050565b61075e8160008085815260200190815260200160002060000161089990919063ffffffff16565b156107c65761076b61069c565b73ffffffffffffffffffffffffffffffffffffffff168173ffffffffffffffffffffffffffffffffffffffff16837ff6391f5c32d9c69d2a47ea670b442974b53935d1edc7fd64eb21e047a839171b60405160405180910390a45b5050565b60006107d983600001836108c9565b60001c905092915050565b600061080c836000018373ffffffffffffffffffffffffffffffffffffffff1660001b61094c565b905092915050565b60006108228260000161096f565b9050919050565b6000610835838361094c565b61088e578260000182908060018154018082558091505060019003906000526020600020016000909190919091505582600001805490508360010160008481526020019081526020016000208190555060019050610893565b600090505b92915050565b60006108c1836000018373ffffffffffffffffffffffffffffffffffffffff1660001b610980565b905092915050565b60008183600001805490501161092a576040517f08c379a0000000000000000000000000000000000000000000000000000000008152600401808060200182810382526022815260200180610a696022913960400191505060405180910390fd5b82600001828154811061093957fe5b9060005260206000200154905092915050565b600080836001016000848152602001908152602001600020541415905092915050565b600081600001805490509050919050565b60008083600101600084815260200190815260200160002054905060008114610a5c57600060018203905060006001866000018054905003905060008660000182815481106109cb57fe5b90600052602060002001549050808760000184815481106109e857fe5b9060005260206000200181905550600183018760010160008381526020019081526020016000208190555086600001805480610a2057fe5b60019003818190600052602060002001600090559055866001016000878152602001908152602001600020600090556001945050505050610a62565b60009150505b9291505056fe456e756d657261626c655365743a20696e646578206f7574206f6620626f756e6473416363657373436f6e74726f6c3a2073656e646572206d75737420626520616e2061646d696e20746f206772616e74416363657373436f6e74726f6c3a2073656e646572206d75737420626520616e2061646d696e20746f207265766f6b65416363657373436f6e74726f6c3a2063616e206f6e6c792072656e6f756e636520726f6c657320666f722073656c66a26469706673582212207fd2e3ff56854445bbffd50e90c412058a034df090de0374faf8936c41293abc64736f6c63430007030033",
  "linkReferences": {},
  "deployedLinkReferences": {}
}