{
  "_format": "hh-sol-artifact-1",
  "contractName": "ERC1155",
  "sourceName": "contracts/openzeppelin/contracts/token/ERC1155/ERC1155.sol",
  "abi": [
    {
      "inputs": [],
      "stateMutability": "nonpayable",
      "type": "constructor"
    },
    {
      "anonymous": false,
      "inputs": [
        {
          "indexed": true,
          "internalType": "address",
          "name": "account",
          "type": "address"
        },
        {
          "indexed": true,
          "internalType": "address",
          "name": "operator",
          "type": "address"
        },
        {
          "indexed": false,
          "internalType": "bool",
          "name": "approved",
          "type": "bool"
        }
      ],
      "name": "ApprovalForAll",
      "type": "event"
    },
    {
      "anonymous": false,
      "inputs": [
        {
          "indexed": true,
          "internalType": "address",
          "name": "operator",
          "type": "address"
        },
        {
          "indexed": true,
          "internalType": "address",
          "name": "from",
          "type": "address"
        },
        {
          "indexed": true,
          "internalType": "address",
          "name": "to",
          "type": "address"
        },
        {
          "indexed": false,
          "internalType": "uint256[]",
          "name": "ids",
          "type": "uint256[]"
        },
        {
          "indexed": false,
          "internalType": "uint256[]",
          "name": "values",
          "type": "uint256[]"
        }
      ],
      "name": "TransferBatch",
      "type": "event"
    },
    {
      "anonymous": false,
      "inputs": [
        {
          "indexed": true,
          "internalType": "address",
          "name": "operator",
          "type": "address"
        },
        {
          "indexed": true,
          "internalType": "address",
          "name": "from",
          "type": "address"
        },
        {
          "indexed": true,
          "internalType": "address",
          "name": "to",
          "type": "address"
        },
        {
          "indexed": false,
          "internalType": "uint256",
          "name": "id",
          "type": "uint256"
        },
        {
          "indexed": false,
          "internalType": "uint256",
          "name": "value",
          "type": "uint256"
        }
      ],
      "name": "TransferSingle",
      "type": "event"
    },
    {
      "anonymous": false,
      "inputs": [
        {
          "indexed": false,
          "internalType": "string",
          "name": "value",
          "type": "string"
        },
        {
          "indexed": true,
          "internalType": "uint256",
          "name": "id",
          "type": "uint256"
        }
      ],
      "name": "URI",
      "type": "event"
    },
    {
      "inputs": [
        {
          "internalType": "address",
          "name": "account",
          "type": "address"
        },
        {
          "internalType": "uint256",
          "name": "id",
          "type": "uint256"
        }
      ],
      "name": "balanceOf",
      "outputs": [
        {
          "internalType": "uint256",
          "name": "",
          "type": "uint256"
        }
      ],
      "stateMutability": "view",
      "type": "function"
    },
    {
      "inputs": [
        {
          "internalType": "address[]",
          "name": "accounts",
          "type": "address[]"
        },
        {
          "internalType": "uint256[]",
          "name": "ids",
          "type": "uint256[]"
        }
      ],
      "name": "balanceOfBatch",
      "outputs": [
        {
          "internalType": "uint256[]",
          "name": "",
          "type": "uint256[]"
        }
      ],
      "stateMutability": "view",
      "type": "function"
    },
    {
      "inputs": [
        {
          "internalType": "address",
          "name": "account",
          "type": "address"
        },
        {
          "internalType": "address",
          "name": "operator",
          "type": "address"
        }
      ],
      "name": "isApprovedForAll",
      "outputs": [
        {
          "internalType": "bool",
          "name": "",
          "type": "bool"
        }
      ],
      "stateMutability": "view",
      "type": "function"
    },
    {
      "inputs": [
        {
          "internalType": "uint256",
          "name": "id",
          "type": "uint256"
        }
      ],
      "name": "isLockedToken",
      "outputs": [
        {
          "internalType": "bool",
          "name": "",
          "type": "bool"
        }
      ],
      "stateMutability": "nonpayable",
      "type": "function"
    },
    {
      "inputs": [
        {
          "internalType": "address",
          "name": "from",
          "type": "address"
        },
        {
          "internalType": "address",
          "name": "to",
          "type": "address"
        },
        {
          "internalType": "uint256[]",
          "name": "ids",
          "type": "uint256[]"
        },
        {
          "internalType": "uint256[]",
          "name": "amounts",
          "type": "uint256[]"
        },
        {
          "internalType": "bytes",
          "name": "data",
          "type": "bytes"
        }
      ],
      "name": "safeBatchTransferFrom",
      "outputs": [],
      "stateMutability": "nonpayable",
      "type": "function"
    },
    {
      "inputs": [
        {
          "internalType": "address",
          "name": "from",
          "type": "address"
        },
        {
          "internalType": "address",
          "name": "to",
          "type": "address"
        },
        {
          "internalType": "uint256",
          "name": "id",
          "type": "uint256"
        },
        {
          "internalType": "uint256",
          "name": "amount",
          "type": "uint256"
        },
        {
          "internalType": "bytes",
          "name": "data",
          "type": "bytes"
        }
      ],
      "name": "safeTransferFrom",
      "outputs": [],
      "stateMutability": "nonpayable",
      "type": "function"
    },
    {
      "inputs": [
        {
          "internalType": "address",
          "name": "operator",
          "type": "address"
        },
        {
          "internalType": "bool",
          "name": "approved",
          "type": "bool"
        }
      ],
      "name": "setApprovalForAll",
      "outputs": [],
      "stateMutability": "nonpayable",
      "type": "function"
    },
    {
      "inputs": [
        {
          "internalType": "bytes4",
          "name": "interfaceId",
          "type": "bytes4"
        }
      ],
      "name": "supportsInterface",
      "outputs": [
        {
          "internalType": "bool",
          "name": "",
          "type": "bool"
        }
      ],
      "stateMutability": "view",
      "type": "function"
    }
  ],
  "bytecode": "0x60806040526d04ee2d6d415b85acef81000000006001553480156200002357600080fd5b506200003c6301ffc9a760e01b6200007260201b60201c565b6200005463d9b67a2660e01b6200007260201b60201c565b6200006c630e89341c60e01b6200007260201b60201c565b6200017b565b63ffffffff60e01b817bffffffffffffffffffffffffffffffffffffffffffffffffffffffff191614156200010f576040517f08c379a000000000000000000000000000000000000000000000000000000000815260040180806020018281038252601c8152602001807f4552433136353a20696e76616c696420696e746572666163652069640000000081525060200191505060405180910390fd5b6001600080837bffffffffffffffffffffffffffffffffffffffffffffffffffffffff19167bffffffffffffffffffffffffffffffffffffffffffffffffffffffff1916815260200190815260200160002060006101000a81548160ff02191690831515021790555050565b6122aa806200018b6000396000f3fe608060405234801561001057600080fd5b50600436106100875760003560e01c8063a22cb4651161005b578063a22cb46514610515578063bba75c8314610565578063e985e9c5146105a9578063f242432a1461062357610087565b8062fdd58e1461008c57806301ffc9a7146100ee5780632eb2c2d6146101515780634e1273f414610374575b600080fd5b6100d8600480360360408110156100a257600080fd5b81019080803573ffffffffffffffffffffffffffffffffffffffff16906020019092919080359060200190929190505050610732565b6040518082815260200191505060405180910390f35b6101396004803603602081101561010457600080fd5b8101908080357bffffffffffffffffffffffffffffffffffffffffffffffffffffffff19169060200190929190505050610812565b60405180821515815260200191505060405180910390f35b610372600480360360a081101561016757600080fd5b81019080803573ffffffffffffffffffffffffffffffffffffffff169060200190929190803573ffffffffffffffffffffffffffffffffffffffff169060200190929190803590602001906401000000008111156101c457600080fd5b8201836020820111156101d657600080fd5b803590602001918460208302840111640100000000831117156101f857600080fd5b919080806020026020016040519081016040528093929190818152602001838360200280828437600081840152601f19601f8201169050808301925050505050505091929192908035906020019064010000000081111561025857600080fd5b82018360208201111561026a57600080fd5b8035906020019184602083028401116401000000008311171561028c57600080fd5b919080806020026020016040519081016040528093929190818152602001838360200280828437600081840152601f19601f820116905080830192505050505050509192919290803590602001906401000000008111156102ec57600080fd5b8201836020820111156102fe57600080fd5b8035906020019184600183028401116401000000008311171561032057600080fd5b91908080601f016020809104026020016040519081016040528093929190818152602001838380828437600081840152601f19601f820116905080830192505050505050509192919290505050610879565b005b6104be6004803603604081101561038a57600080fd5b81019080803590602001906401000000008111156103a757600080fd5b8201836020820111156103b957600080fd5b803590602001918460208302840111640100000000831117156103db57600080fd5b919080806020026020016040519081016040528093929190818152602001838360200280828437600081840152601f19601f8201169050808301925050505050505091929192908035906020019064010000000081111561043b57600080fd5b82018360208201111561044d57600080fd5b8035906020019184602083028401116401000000008311171561046f57600080fd5b919080806020026020016040519081016040528093929190818152602001838360200280828437600081840152601f19601f820116905080830192505050505050509192919290505050610d7c565b6040518080602001828103825283818151815260200191508051906020019060200280838360005b838110156105015780820151818401526020810190506104e6565b505050509050019250505060405180910390f35b6105636004803603604081101561052b57600080fd5b81019080803573ffffffffffffffffffffffffffffffffffffffff169060200190929190803515159060200190929190505050610f6e565b005b6105916004803603602081101561057b57600080fd5b8101908080359060200190929190505050611107565b60405180821515815260200191505060405180910390f35b61060b600480360360408110156105bf57600080fd5b81019080803573ffffffffffffffffffffffffffffffffffffffff169060200190929190803573ffffffffffffffffffffffffffffffffffffffff16906020019092919050505061116f565b60405180821515815260200191505060405180910390f35b610730600480360360a081101561063957600080fd5b81019080803573ffffffffffffffffffffffffffffffffffffffff169060200190929190803573ffffffffffffffffffffffffffffffffffffffff1690602001909291908035906020019092919080359060200190929190803590602001906401000000008111156106aa57600080fd5b8201836020820111156106bc57600080fd5b803590602001918460018302840111640100000000831117156106de57600080fd5b91908080601f016020809104026020016040519081016040528093929190818152602001838380828437600081840152601f19601f820116905080830192505050505050509192919290505050611203565b005b60008073ffffffffffffffffffffffffffffffffffffffff168373ffffffffffffffffffffffffffffffffffffffff1614156107b9576040517f08c379a000000000000000000000000000000000000000000000000000000000815260040180806020018281038252602b8152602001806120cd602b913960400191505060405180910390fd5b6002600083815260200190815260200160002060008473ffffffffffffffffffffffffffffffffffffffff1673ffffffffffffffffffffffffffffffffffffffff16815260200190815260200160002054905092915050565b6000806000837bffffffffffffffffffffffffffffffffffffffffffffffffffffffff19167bffffffffffffffffffffffffffffffffffffffffffffffffffffffff1916815260200190815260200160002060009054906101000a900460ff169050919050565b81518351146108d3576040517f08c379a000000000000000000000000000000000000000000000000000000000815260040180806020018281038252602881526020018061224d6028913960400191505060405180910390fd5b600073ffffffffffffffffffffffffffffffffffffffff168473ffffffffffffffffffffffffffffffffffffffff161415610959576040517f08c379a00000000000000000000000000000000000000000000000000000000081526004018080602001828103825260258152602001806121526025913960400191505060405180910390fd5b610961611663565b73ffffffffffffffffffffffffffffffffffffffff168573ffffffffffffffffffffffffffffffffffffffff1614806109a757506109a6856109a1611663565b61116f565b5b6109fc576040517f08c379a00000000000000000000000000000000000000000000000000000000081526004018080602001828103825260328152602001806121776032913960400191505060405180910390fd5b6000610a06611663565b9050610a1681878787878761166b565b60005b8451811015610c5f5760001515610a42868381518110610a3557fe5b6020026020010151611107565b151514610a9a576040517f08c379a00000000000000000000000000000000000000000000000000000000081526004018080602001828103825260288152602001806121d36028913960400191505060405180910390fd5b6000858281518110610aa857fe5b602002602001015190506000858381518110610ac057fe5b60200260200101519050610b47816040518060600160405280602a81526020016121a9602a91396002600086815260200190815260200160002060008d73ffffffffffffffffffffffffffffffffffffffff1673ffffffffffffffffffffffffffffffffffffffff168152602001908152602001600020546116739092919063ffffffff16565b6002600084815260200190815260200160002060008b73ffffffffffffffffffffffffffffffffffffffff1673ffffffffffffffffffffffffffffffffffffffff16815260200190815260200160002081905550610bfe816002600085815260200190815260200160002060008b73ffffffffffffffffffffffffffffffffffffffff1673ffffffffffffffffffffffffffffffffffffffff1681526020019081526020016000205461173390919063ffffffff16565b6002600084815260200190815260200160002060008a73ffffffffffffffffffffffffffffffffffffffff1673ffffffffffffffffffffffffffffffffffffffff168152602001908152602001600020819055505050806001019050610a19565b508473ffffffffffffffffffffffffffffffffffffffff168673ffffffffffffffffffffffffffffffffffffffff168273ffffffffffffffffffffffffffffffffffffffff167f4a39dc06d4c0dbc64b70af90fd698a233a518aa5d07e595d983b8c0526c8f7fb8787604051808060200180602001838103835285818151815260200191508051906020019060200280838360005b83811015610d0f578082015181840152602081019050610cf4565b50505050905001838103825284818151815260200191508051906020019060200280838360005b83811015610d51578082015181840152602081019050610d36565b5050505090500194505050505060405180910390a4610d748187878787876117bb565b505050505050565b60608151835114610dd8576040517f08c379a00000000000000000000000000000000000000000000000000000000081526004018080602001828103825260298152602001806122246029913960400191505060405180910390fd5b6060835167ffffffffffffffff81118015610df257600080fd5b50604051908082528060200260200182016040528015610e215781602001602082028036833780820191505090505b50905060005b8451811015610f6357600073ffffffffffffffffffffffffffffffffffffffff16858281518110610e5457fe5b602002602001015173ffffffffffffffffffffffffffffffffffffffff161415610ec9576040517f08c379a00000000000000000000000000000000000000000000000000000000081526004018080602001828103825260318152602001806120f86031913960400191505060405180910390fd5b60026000858381518110610ed957fe5b602002602001015181526020019081526020016000206000868381518110610efd57fe5b602002602001015173ffffffffffffffffffffffffffffffffffffffff1673ffffffffffffffffffffffffffffffffffffffff16815260200190815260200160002054828281518110610f4c57fe5b602002602001018181525050806001019050610e27565b508091505092915050565b8173ffffffffffffffffffffffffffffffffffffffff16610f8d611663565b73ffffffffffffffffffffffffffffffffffffffff161415610ffa576040517f08c379a00000000000000000000000000000000000000000000000000000000081526004018080602001828103825260298152602001806121fb6029913960400191505060405180910390fd5b8060046000611007611663565b73ffffffffffffffffffffffffffffffffffffffff1673ffffffffffffffffffffffffffffffffffffffff16815260200190815260200160002060008473ffffffffffffffffffffffffffffffffffffffff1673ffffffffffffffffffffffffffffffffffffffff16815260200190815260200160002060006101000a81548160ff0219169083151502179055508173ffffffffffffffffffffffffffffffffffffffff166110b4611663565b73ffffffffffffffffffffffffffffffffffffffff167f17307eab39ab6107e8899845ad3d59bd9653f200f220920489ca2b5937696c318360405180821515815260200191505060405180910390a35050565b600061111d600154838161111757fe5b04611b4a565b6000662386f26fc10000600154848161113257fe5b048161113a57fe5b06905061114681611b4a565b6003600082815260200190815260200160002060009054906101000a900460ff16915050919050565b6000600460008473ffffffffffffffffffffffffffffffffffffffff1673ffffffffffffffffffffffffffffffffffffffff16815260200190815260200160002060008373ffffffffffffffffffffffffffffffffffffffff1673ffffffffffffffffffffffffffffffffffffffff16815260200190815260200160002060009054906101000a900460ff16905092915050565b600073ffffffffffffffffffffffffffffffffffffffff168473ffffffffffffffffffffffffffffffffffffffff161415611289576040517f08c379a00000000000000000000000000000000000000000000000000000000081526004018080602001828103825260258152602001806121526025913960400191505060405180910390fd5b600073ffffffffffffffffffffffffffffffffffffffff168473ffffffffffffffffffffffffffffffffffffffff16141561130f576040517f08c379a00000000000000000000000000000000000000000000000000000000081526004018080602001828103825260258152602001806121526025913960400191505060405180910390fd5b611317611663565b73ffffffffffffffffffffffffffffffffffffffff168573ffffffffffffffffffffffffffffffffffffffff16148061135d575061135c85611357611663565b61116f565b5b6113b2576040517f08c379a00000000000000000000000000000000000000000000000000000000081526004018080602001828103825260298152602001806121296029913960400191505060405180910390fd5b600015156113bf84611107565b151514611417576040517f08c379a00000000000000000000000000000000000000000000000000000000081526004018080602001828103825260288152602001806121d36028913960400191505060405180910390fd5b6000611421611663565b905061144181878761143288611be3565b61143b88611be3565b8761166b565b6114be836040518060600160405280602a81526020016121a9602a91396002600088815260200190815260200160002060008a73ffffffffffffffffffffffffffffffffffffffff1673ffffffffffffffffffffffffffffffffffffffff168152602001908152602001600020546116739092919063ffffffff16565b6002600086815260200190815260200160002060008873ffffffffffffffffffffffffffffffffffffffff1673ffffffffffffffffffffffffffffffffffffffff16815260200190815260200160002081905550611575836002600087815260200190815260200160002060008873ffffffffffffffffffffffffffffffffffffffff1673ffffffffffffffffffffffffffffffffffffffff1681526020019081526020016000205461173390919063ffffffff16565b6002600086815260200190815260200160002060008773ffffffffffffffffffffffffffffffffffffffff1673ffffffffffffffffffffffffffffffffffffffff168152602001908152602001600020819055508473ffffffffffffffffffffffffffffffffffffffff168673ffffffffffffffffffffffffffffffffffffffff168273ffffffffffffffffffffffffffffffffffffffff167fc3d58168c5ae7397731d063d5bbf3d657854427343f4c083240f7aacaa2d0f628787604051808381526020018281526020019250505060405180910390a461165b818787878787611c53565b505050505050565b600033905090565b505050505050565b6000838311158290611720576040517f08c379a00000000000000000000000000000000000000000000000000000000081526004018080602001828103825283818151815260200191508051906020019080838360005b838110156116e55780820151818401526020810190506116ca565b50505050905090810190601f1680156117125780820380516001836020036101000a031916815260200191505b509250505060405180910390fd5b5060008385039050809150509392505050565b6000808284019050838110156117b1576040517f08c379a000000000000000000000000000000000000000000000000000000000815260040180806020018281038252601b8152602001807f536166654d6174683a206164646974696f6e206f766572666c6f77000000000081525060200191505060405180910390fd5b8091505092915050565b6117da8473ffffffffffffffffffffffffffffffffffffffff16611f60565b15611b42578373ffffffffffffffffffffffffffffffffffffffff1663bc197c8187878686866040518663ffffffff1660e01b8152600401808673ffffffffffffffffffffffffffffffffffffffff1681526020018573ffffffffffffffffffffffffffffffffffffffff168152602001806020018060200180602001848103845287818151815260200191508051906020019060200280838360005b83811015611892578082015181840152602081019050611877565b50505050905001848103835286818151815260200191508051906020019060200280838360005b838110156118d45780820151818401526020810190506118b9565b50505050905001848103825285818151815260200191508051906020019080838360005b838110156119135780820151818401526020810190506118f8565b50505050905090810190601f1680156119405780820380516001836020036101000a031916815260200191505b5098505050505050505050602060405180830381600087803b15801561196557600080fd5b505af192505050801561199957506040513d602081101561198557600080fd5b810190808051906020019092919050505060015b611aa3576119a5611fba565b806119b05750611a52565b806040517f08c379a00000000000000000000000000000000000000000000000000000000081526004018080602001828103825283818151815260200191508051906020019080838360005b83811015611a175780820151818401526020810190506119fc565b50505050905090810190601f168015611a445780820380516001836020036101000a031916815260200191505b509250505060405180910390fd5b6040517f08c379a00000000000000000000000000000000000000000000000000000000081526004018080602001828103825260348152602001806120716034913960400191505060405180910390fd5b63bc197c8160e01b7bffffffffffffffffffffffffffffffffffffffffffffffffffffffff1916817bffffffffffffffffffffffffffffffffffffffffffffffffffffffff191614611b40576040517f08c379a00000000000000000000000000000000000000000000000000000000081526004018080602001828103825260288152602001806120a56028913960400191505060405180910390fd5b505b505050505050565b611be081604051602401808281526020019150506040516020818303038152906040527ff5b1bba9000000000000000000000000000000000000000000000000000000007bffffffffffffffffffffffffffffffffffffffffffffffffffffffff19166020820180517bffffffffffffffffffffffffffffffffffffffffffffffffffffffff8381831617835250505050611f73565b50565b606080600167ffffffffffffffff81118015611bfe57600080fd5b50604051908082528060200260200182016040528015611c2d5781602001602082028036833780820191505090505b5090508281600081518110611c3e57fe5b60200260200101818152505080915050919050565b611c728473ffffffffffffffffffffffffffffffffffffffff16611f60565b15611f58578373ffffffffffffffffffffffffffffffffffffffff1663f23a6e6187878686866040518663ffffffff1660e01b8152600401808673ffffffffffffffffffffffffffffffffffffffff1681526020018573ffffffffffffffffffffffffffffffffffffffff16815260200184815260200183815260200180602001828103825283818151815260200191508051906020019080838360005b83811015611d2b578082015181840152602081019050611d10565b50505050905090810190601f168015611d585780820380516001836020036101000a031916815260200191505b509650505050505050602060405180830381600087803b158015611d7b57600080fd5b505af1925050508015611daf57506040513d6020811015611d9b57600080fd5b810190808051906020019092919050505060015b611eb957611dbb611fba565b80611dc65750611e68565b806040517f08c379a00000000000000000000000000000000000000000000000000000000081526004018080602001828103825283818151815260200191508051906020019080838360005b83811015611e2d578082015181840152602081019050611e12565b50505050905090810190601f168015611e5a5780820380516001836020036101000a031916815260200191505b509250505060405180910390fd5b6040517f08c379a00000000000000000000000000000000000000000000000000000000081526004018080602001828103825260348152602001806120716034913960400191505060405180910390fd5b63f23a6e6160e01b7bffffffffffffffffffffffffffffffffffffffffffffffffffffffff1916817bffffffffffffffffffffffffffffffffffffffffffffffffffffffff191614611f56576040517f08c379a00000000000000000000000000000000000000000000000000000000081526004018080602001828103825260288152602001806120a56028913960400191505060405180910390fd5b505b505050505050565b600080823b905060008111915050919050565b60008151905060006a636f6e736f6c652e6c6f679050602083016000808483855afa5050505050565b6000601f19601f8301169050919050565b60008160e01c9050919050565b600060443d1015611fca5761206d565b60046000803e611fdb600051611fad565b6308c379a08114611fec575061206d565b60405160043d036004823e80513d602482011167ffffffffffffffff821117156120185750505061206d565b808201805167ffffffffffffffff81111561203757505050505061206d565b8060208301013d85018111156120525750505050505061206d565b61205b82611f9c565b60208401016040528296505050505050505b9056fe455243313135353a207472616e7366657220746f206e6f6e2045524331313535526563656976657220696d706c656d656e746572455243313135353a204552433131353552656365697665722072656a656374656420746f6b656e73455243313135353a2062616c616e636520717565727920666f7220746865207a65726f2061646472657373455243313135353a2062617463682062616c616e636520717565727920666f7220746865207a65726f2061646472657373455243313135353a2063616c6c6572206973206e6f74206f776e6572206e6f7220617070726f766564455243313135353a207472616e7366657220746f20746865207a65726f2061646472657373455243313135353a207472616e736665722063616c6c6572206973206e6f74206f776e6572206e6f7220617070726f766564455243313135353a20696e73756666696369656e742062616c616e636520666f72207472616e73666572746f6b656e207472616e736665727320617265206c6f636b656420666f7220746869732074797065455243313135353a2073657474696e6720617070726f76616c2073746174757320666f722073656c66455243313135353a206163636f756e747320616e6420696473206c656e677468206d69736d61746368455243313135353a2069647320616e6420616d6f756e7473206c656e677468206d69736d61746368a264697066735822122020dbb089d0c88f0acf9ac5081b1692e54eaf041bd87ffaa95782aae0ea3dae0964736f6c63430007030033",
  "linkReferences": {},
  "deployedLinkReferences": {}
}