{
  "_format": "hh-sol-artifact-1",
  "contractName": "saasPurchase",
  "sourceName": "contracts/saasPurchase.sol",
  "abi": [
    {
      "inputs": [
        {
          "internalType": "address payable",
          "name": "_wallet",
          "type": "address"
        }
      ],
      "stateMutability": "nonpayable",
      "type": "constructor"
    },
    {
      "anonymous": false,
      "inputs": [
        {
          "indexed": true,
          "internalType": "bytes32",
          "name": "role",
          "type": "bytes32"
        },
        {
          "indexed": true,
          "internalType": "bytes32",
          "name": "previousAdminRole",
          "type": "bytes32"
        },
        {
          "indexed": true,
          "internalType": "bytes32",
          "name": "newAdminRole",
          "type": "bytes32"
        }
      ],
      "name": "RoleAdminChanged",
      "type": "event"
    },
    {
      "anonymous": false,
      "inputs": [
        {
          "indexed": true,
          "internalType": "bytes32",
          "name": "role",
          "type": "bytes32"
        },
        {
          "indexed": true,
          "internalType": "address",
          "name": "account",
          "type": "address"
        },
        {
          "indexed": true,
          "internalType": "address",
          "name": "sender",
          "type": "address"
        }
      ],
      "name": "RoleGranted",
      "type": "event"
    },
    {
      "anonymous": false,
      "inputs": [
        {
          "indexed": true,
          "internalType": "bytes32",
          "name": "role",
          "type": "bytes32"
        },
        {
          "indexed": true,
          "internalType": "address",
          "name": "account",
          "type": "address"
        },
        {
          "indexed": true,
          "internalType": "address",
          "name": "sender",
          "type": "address"
        }
      ],
      "name": "RoleRevoked",
      "type": "event"
    },
    {
      "inputs": [],
      "name": "BURNER",
      "outputs": [
        {
          "internalType": "bytes32",
          "name": "",
          "type": "bytes32"
        }
      ],
      "stateMutability": "view",
      "type": "function"
    },
    {
      "inputs": [],
      "name": "DEFAULT_ADMIN_ROLE",
      "outputs": [
        {
          "internalType": "bytes32",
          "name": "",
          "type": "bytes32"
        }
      ],
      "stateMutability": "view",
      "type": "function"
    },
    {
      "inputs": [],
      "name": "GUEST",
      "outputs": [
        {
          "internalType": "bytes32",
          "name": "",
          "type": "bytes32"
        }
      ],
      "stateMutability": "view",
      "type": "function"
    },
    {
      "inputs": [],
      "name": "METADATA_ADMIN",
      "outputs": [
        {
          "internalType": "bytes32",
          "name": "",
          "type": "bytes32"
        }
      ],
      "stateMutability": "view",
      "type": "function"
    },
    {
      "inputs": [],
      "name": "MINTER",
      "outputs": [
        {
          "internalType": "bytes32",
          "name": "",
          "type": "bytes32"
        }
      ],
      "stateMutability": "view",
      "type": "function"
    },
    {
      "inputs": [
        {
          "internalType": "bytes32",
          "name": "role",
          "type": "bytes32"
        }
      ],
      "name": "getRoleAdmin",
      "outputs": [
        {
          "internalType": "bytes32",
          "name": "",
          "type": "bytes32"
        }
      ],
      "stateMutability": "view",
      "type": "function"
    },
    {
      "inputs": [
        {
          "internalType": "bytes32",
          "name": "role",
          "type": "bytes32"
        },
        {
          "internalType": "uint256",
          "name": "index",
          "type": "uint256"
        }
      ],
      "name": "getRoleMember",
      "outputs": [
        {
          "internalType": "address",
          "name": "",
          "type": "address"
        }
      ],
      "stateMutability": "view",
      "type": "function"
    },
    {
      "inputs": [
        {
          "internalType": "bytes32",
          "name": "role",
          "type": "bytes32"
        }
      ],
      "name": "getRoleMemberCount",
      "outputs": [
        {
          "internalType": "uint256",
          "name": "",
          "type": "uint256"
        }
      ],
      "stateMutability": "view",
      "type": "function"
    },
    {
      "inputs": [
        {
          "internalType": "bytes32",
          "name": "role",
          "type": "bytes32"
        },
        {
          "internalType": "address",
          "name": "account",
          "type": "address"
        }
      ],
      "name": "grantRole",
      "outputs": [],
      "stateMutability": "nonpayable",
      "type": "function"
    },
    {
      "inputs": [
        {
          "internalType": "bytes32",
          "name": "role",
          "type": "bytes32"
        },
        {
          "internalType": "address",
          "name": "account",
          "type": "address"
        }
      ],
      "name": "hasRole",
      "outputs": [
        {
          "internalType": "bool",
          "name": "",
          "type": "bool"
        }
      ],
      "stateMutability": "view",
      "type": "function"
    },
    {
      "inputs": [],
      "name": "lunarToken",
      "outputs": [
        {
          "internalType": "contract saasNFT",
          "name": "",
          "type": "address"
        }
      ],
      "stateMutability": "view",
      "type": "function"
    },
    {
      "inputs": [],
      "name": "maxType",
      "outputs": [
        {
          "internalType": "uint256",
          "name": "",
          "type": "uint256"
        }
      ],
      "stateMutability": "view",
      "type": "function"
    },
    {
      "inputs": [
        {
          "internalType": "uint256",
          "name": "_type",
          "type": "uint256"
        }
      ],
      "name": "purchase",
      "outputs": [],
      "stateMutability": "payable",
      "type": "function"
    },
    {
      "inputs": [
        {
          "internalType": "bytes32",
          "name": "role",
          "type": "bytes32"
        },
        {
          "internalType": "address",
          "name": "account",
          "type": "address"
        }
      ],
      "name": "renounceRole",
      "outputs": [],
      "stateMutability": "nonpayable",
      "type": "function"
    },
    {
      "inputs": [
        {
          "internalType": "bytes32",
          "name": "role",
          "type": "bytes32"
        },
        {
          "internalType": "address",
          "name": "account",
          "type": "address"
        }
      ],
      "name": "revokeRole",
      "outputs": [],
      "stateMutability": "nonpayable",
      "type": "function"
    },
    {
      "inputs": [],
      "name": "salesOpen",
      "outputs": [
        {
          "internalType": "bool",
          "name": "",
          "type": "bool"
        }
      ],
      "stateMutability": "view",
      "type": "function"
    },
    {
      "inputs": [
        {
          "internalType": "uint256[]",
          "name": "prices",
          "type": "uint256[]"
        },
        {
          "internalType": "uint256[]",
          "name": "ids",
          "type": "uint256[]"
        }
      ],
      "name": "setPrices",
      "outputs": [],
      "stateMutability": "nonpayable",
      "type": "function"
    },
    {
      "inputs": [
        {
          "internalType": "address payable",
          "name": "a",
          "type": "address"
        }
      ],
      "name": "setWallet",
      "outputs": [],
      "stateMutability": "nonpayable",
      "type": "function"
    },
    {
      "inputs": [],
      "name": "toggleSales",
      "outputs": [],
      "stateMutability": "nonpayable",
      "type": "function"
    },
    {
      "inputs": [
        {
          "internalType": "uint256",
          "name": "",
          "type": "uint256"
        }
      ],
      "name": "tokenPrices",
      "outputs": [
        {
          "internalType": "uint256",
          "name": "",
          "type": "uint256"
        }
      ],
      "stateMutability": "view",
      "type": "function"
    },
    {
      "inputs": [],
      "name": "wallet",
      "outputs": [
        {
          "internalType": "address payable",
          "name": "",
          "type": "address"
        }
      ],
      "stateMutability": "view",
      "type": "function"
    }
  ],
  "bytecode": "0x6080604052600c6003553480156200001657600080fd5b50604051620017a3380380620017a3833981810160405260208110156200003c57600080fd5b8101908080519060200190929190505050620000716000801b62000065620001da60201b60201c565b620001e260201b60201c565b620000b27ff6e33f9720e4529cb1c710e3344dc00830589a3239198ffa39b07117085d250e620000a6620001da60201b60201c565b620001e260201b60201c565b620000f37ff0887ba65ee2024ea881d91b74c2450ef19e1557f03bed3ea9f16b037cbe2dc9620000e7620001da60201b60201c565b620001e260201b60201c565b620001286000801b7ff0887ba65ee2024ea881d91b74c2450ef19e1557f03bed3ea9f16b037cbe2dc9620001f860201b60201c565b6200015d6000801b7fb298fa9636e9050fbd8ff56bd93a3fca017e3e18b3a30f173dee3380c98765ca620001f860201b60201c565b620001926000801b7ff6e33f9720e4529cb1c710e3344dc00830589a3239198ffa39b07117085d250e620001f860201b60201c565b80600260006101000a81548173ffffffffffffffffffffffffffffffffffffffff021916908373ffffffffffffffffffffffffffffffffffffffff16021790555050620003d2565b600033905090565b620001f482826200025a60201b60201c565b5050565b8060008084815260200190815260200160002060020154837fbd79b86ffe0ab8e8776151514217cd7cacd52c909f66475c3af44e129f0b00ff60405160405180910390a480600080848152602001908152602001600020600201819055505050565b6200028881600080858152602001908152602001600020600001620002fd60201b62000edf1790919060201c565b15620002f9576200029e620001da60201b60201c565b73ffffffffffffffffffffffffffffffffffffffff168173ffffffffffffffffffffffffffffffffffffffff16837f2f8788117e7eff1d82e926ec794901d17c78024a50270940304540a733656f0d60405160405180910390a45b5050565b60006200032d836000018373ffffffffffffffffffffffffffffffffffffffff1660001b6200033560201b60201c565b905092915050565b6000620003498383620003af60201b60201c565b620003a4578260000182908060018154018082558091505060019003906000526020600020016000909190919091505582600001805490508360010160008481526020019081526020016000208190555060019050620003a9565b600090505b92915050565b600080836001016000848152602001908152602001600020541415905092915050565b6113c180620003e26000396000f3fe60806040526004361061012a5760003560e01c80639bf37284116100ab578063d547741f1161006f578063d547741f14610642578063dbd30ae01461069d578063deaa59df146106b4578063e5afe3e614610705578063efef39a114610754578063fe6d8124146107825761012a565b80639bf3728414610403578063a217fddf14610444578063b1de303e1461046f578063ca15c8731461049a578063d05eaae0146104e95761012a565b8063521eb273116100f2578063521eb2731461028a57806362f11528146102cb578063729205e7146102f65780639010d07c1461032357806391d14854146103925761012a565b8063118c4f131461012f578063248a9ca31461015a5780632f2ff15d146101a957806336568abe1461020457806342d141a11461025f575b600080fd5b34801561013b57600080fd5b506101446107ad565b6040518082815260200191505060405180910390f35b34801561016657600080fd5b506101936004803603602081101561017d57600080fd5b81019080803590602001909291905050506107d1565b6040518082815260200191505060405180910390f35b3480156101b557600080fd5b50610202600480360360408110156101cc57600080fd5b8101908080359060200190929190803573ffffffffffffffffffffffffffffffffffffffff1690602001909291905050506107f0565b005b34801561021057600080fd5b5061025d6004803603604081101561022757600080fd5b8101908080359060200190929190803573ffffffffffffffffffffffffffffffffffffffff169060200190929190505050610879565b005b34801561026b57600080fd5b50610274610912565b6040518082815260200191505060405180910390f35b34801561029657600080fd5b5061029f610936565b604051808273ffffffffffffffffffffffffffffffffffffffff16815260200191505060405180910390f35b3480156102d757600080fd5b506102e061095c565b6040518082815260200191505060405180910390f35b34801561030257600080fd5b5061030b610962565b60405180821515815260200191505060405180910390f35b34801561032f57600080fd5b506103666004803603604081101561034657600080fd5b810190808035906020019092919080359060200190929190505050610975565b604051808273ffffffffffffffffffffffffffffffffffffffff16815260200191505060405180910390f35b34801561039e57600080fd5b506103eb600480360360408110156103b557600080fd5b8101908080359060200190929190803573ffffffffffffffffffffffffffffffffffffffff1690602001909291905050506109a6565b60405180821515815260200191505060405180910390f35b34801561040f57600080fd5b506104186109d7565b604051808273ffffffffffffffffffffffffffffffffffffffff16815260200191505060405180910390f35b34801561045057600080fd5b506104596109fd565b6040518082815260200191505060405180910390f35b34801561047b57600080fd5b50610484610a04565b6040518082815260200191505060405180910390f35b3480156104a657600080fd5b506104d3600480360360208110156104bd57600080fd5b8101908080359060200190929190505050610a28565b6040518082815260200191505060405180910390f35b3480156104f557600080fd5b506106406004803603604081101561050c57600080fd5b810190808035906020019064010000000081111561052957600080fd5b82018360208201111561053b57600080fd5b8035906020019184602083028401116401000000008311171561055d57600080fd5b919080806020026020016040519081016040528093929190818152602001838360200280828437600081840152601f19601f820116905080830192505050505050509192919290803590602001906401000000008111156105bd57600080fd5b8201836020820111156105cf57600080fd5b803590602001918460208302840111640100000000831117156105f157600080fd5b919080806020026020016040519081016040528093929190818152602001838360200280828437600081840152601f19601f820116905080830192505050505050509192919290505050610a4e565b005b34801561064e57600080fd5b5061069b6004803603604081101561066557600080fd5b8101908080359060200190929190803573ffffffffffffffffffffffffffffffffffffffff169060200190929190505050610b37565b005b3480156106a957600080fd5b506106b2610bc0565b005b3480156106c057600080fd5b50610703600480360360208110156106d757600080fd5b81019080803573ffffffffffffffffffffffffffffffffffffffff169060200190929190505050610c02565b005b34801561071157600080fd5b5061073e6004803603602081101561072857600080fd5b8101908080359060200190929190505050610c5c565b6040518082815260200191505060405180910390f35b6107806004803603602081101561076a57600080fd5b8101908080359060200190929190505050610c74565b005b34801561078e57600080fd5b50610797610ebb565b6040518082815260200191505060405180910390f35b7f9667e80708b6eeeb0053fa0cca44e028ff548e2a9f029edfeac87c118b08b7c881565b6000806000838152602001908152602001600020600201549050919050565b61081660008084815260200190815260200160002060020154610811610f0f565b6109a6565b61086b576040517f08c379a000000000000000000000000000000000000000000000000000000000815260040180806020018281038252602f8152602001806112fe602f913960400191505060405180910390fd5b6108758282610f17565b5050565b610881610f0f565b73ffffffffffffffffffffffffffffffffffffffff168173ffffffffffffffffffffffffffffffffffffffff1614610904576040517f08c379a000000000000000000000000000000000000000000000000000000000815260040180806020018281038252602f81526020018061135d602f913960400191505060405180910390fd5b61090e8282610faa565b5050565b7fb298fa9636e9050fbd8ff56bd93a3fca017e3e18b3a30f173dee3380c98765ca81565b600260009054906101000a900473ffffffffffffffffffffffffffffffffffffffff1681565b60035481565b600260149054906101000a900460ff1681565b600061099e8260008086815260200190815260200160002060000161103d90919063ffffffff16565b905092915050565b60006109cf8260008086815260200190815260200160002060000161105790919063ffffffff16565b905092915050565b600160009054906101000a900473ffffffffffffffffffffffffffffffffffffffff1681565b6000801b81565b7ff6e33f9720e4529cb1c710e3344dc00830589a3239198ffa39b07117085d250e81565b6000610a47600080848152602001908152602001600020600001611087565b9050919050565b610a5b6000801b336109a6565b610a6457600080fd5b8051825114610adb576040517f08c379a00000000000000000000000000000000000000000000000000000000081526004018080602001828103825260198152602001807f70726963657320616e6420696473206d757374206d617463680000000000000081525060200191505060405180910390fd5b60005b8251811015610b3257828181518110610af357fe5b602002602001015160046000848481518110610b0b57fe5b60200260200101518152602001908152602001600020819055508080600101915050610ade565b505050565b610b5d60008084815260200190815260200160002060020154610b58610f0f565b6109a6565b610bb2576040517f08c379a000000000000000000000000000000000000000000000000000000000815260040180806020018281038252603081526020018061132d6030913960400191505060405180910390fd5b610bbc8282610faa565b5050565b610bcd6000801b336109a6565b610bd657600080fd5b600260149054906101000a900460ff1615600260146101000a81548160ff021916908315150217905550565b610c0f6000801b336109a6565b610c1857600080fd5b80600260006101000a81548173ffffffffffffffffffffffffffffffffffffffff021916908373ffffffffffffffffffffffffffffffffffffffff16021790555050565b60046020528060005260406000206000915090505481565b60006004600083815260200190815260200160002054905080341015610d02576040517f08c379a00000000000000000000000000000000000000000000000000000000081526004018080602001828103825260208152602001807f75736572206d7573742073656e642074686520636f72726563742076616c756581525060200191505060405180910390fd5b600082118015610d1457506003548211155b610d86576040517f08c379a00000000000000000000000000000000000000000000000000000000081526004018080602001828103825260148152602001807f4e4654206964206d7573742062652076616c696400000000000000000000000081525060200191505060405180910390fd5b600160009054906101000a900473ffffffffffffffffffffffffffffffffffffffff1673ffffffffffffffffffffffffffffffffffffffff1663731133e9338460016040518463ffffffff1660e01b8152600401808473ffffffffffffffffffffffffffffffffffffffff16815260200183815260200182815260200180602001828103825260008152602001602001945050505050600060405180830381600087803b158015610e3657600080fd5b505af1158015610e4a573d6000803e3d6000fd5b50505050600260009054906101000a900473ffffffffffffffffffffffffffffffffffffffff1673ffffffffffffffffffffffffffffffffffffffff166108fc349081150290604051600060405180830381858888f19350505050158015610eb6573d6000803e3d6000fd5b505050565b7ff0887ba65ee2024ea881d91b74c2450ef19e1557f03bed3ea9f16b037cbe2dc981565b6000610f07836000018373ffffffffffffffffffffffffffffffffffffffff1660001b61109c565b905092915050565b600033905090565b610f3e81600080858152602001908152602001600020600001610edf90919063ffffffff16565b15610fa657610f4b610f0f565b73ffffffffffffffffffffffffffffffffffffffff168173ffffffffffffffffffffffffffffffffffffffff16837f2f8788117e7eff1d82e926ec794901d17c78024a50270940304540a733656f0d60405160405180910390a45b5050565b610fd18160008085815260200190815260200160002060000161110c90919063ffffffff16565b1561103957610fde610f0f565b73ffffffffffffffffffffffffffffffffffffffff168173ffffffffffffffffffffffffffffffffffffffff16837ff6391f5c32d9c69d2a47ea670b442974b53935d1edc7fd64eb21e047a839171b60405160405180910390a45b5050565b600061104c836000018361113c565b60001c905092915050565b600061107f836000018373ffffffffffffffffffffffffffffffffffffffff1660001b6111bf565b905092915050565b6000611095826000016111e2565b9050919050565b60006110a883836111bf565b611101578260000182908060018154018082558091505060019003906000526020600020016000909190919091505582600001805490508360010160008481526020019081526020016000208190555060019050611106565b600090505b92915050565b6000611134836000018373ffffffffffffffffffffffffffffffffffffffff1660001b6111f3565b905092915050565b60008183600001805490501161119d576040517f08c379a00000000000000000000000000000000000000000000000000000000081526004018080602001828103825260228152602001806112dc6022913960400191505060405180910390fd5b8260000182815481106111ac57fe5b9060005260206000200154905092915050565b600080836001016000848152602001908152602001600020541415905092915050565b600081600001805490509050919050565b600080836001016000848152602001908152602001600020549050600081146112cf576000600182039050600060018660000180549050039050600086600001828154811061123e57fe5b906000526020600020015490508087600001848154811061125b57fe5b906000526020600020018190555060018301876001016000838152602001908152602001600020819055508660000180548061129357fe5b600190038181906000526020600020016000905590558660010160008781526020019081526020016000206000905560019450505050506112d5565b60009150505b9291505056fe456e756d657261626c655365743a20696e646578206f7574206f6620626f756e6473416363657373436f6e74726f6c3a2073656e646572206d75737420626520616e2061646d696e20746f206772616e74416363657373436f6e74726f6c3a2073656e646572206d75737420626520616e2061646d696e20746f207265766f6b65416363657373436f6e74726f6c3a2063616e206f6e6c792072656e6f756e636520726f6c657320666f722073656c66a2646970667358221220352b3c3c8a549d1393f69f73d5c07bddff61e07384cc6882693619db2750fbdf64736f6c63430007030033",
  "linkReferences": {},
  "deployedLinkReferences": {}
}