{
  "_format": "hh-sol-artifact-1",
  "contractName": "ERC1155PresetMinterPauser",
  "sourceName": "contracts/openzeppelin/contracts/presets/ERC1155PresetMinterPauser.sol",
  "abi": [
    {
      "inputs": [],
      "stateMutability": "nonpayable",
      "type": "constructor"
    },
    {
      "anonymous": false,
      "inputs": [
        {
          "indexed": true,
          "internalType": "address",
          "name": "account",
          "type": "address"
        },
        {
          "indexed": true,
          "internalType": "address",
          "name": "operator",
          "type": "address"
        },
        {
          "indexed": false,
          "internalType": "bool",
          "name": "approved",
          "type": "bool"
        }
      ],
      "name": "ApprovalForAll",
      "type": "event"
    },
    {
      "anonymous": false,
      "inputs": [
        {
          "indexed": false,
          "internalType": "address",
          "name": "account",
          "type": "address"
        }
      ],
      "name": "Paused",
      "type": "event"
    },
    {
      "anonymous": false,
      "inputs": [
        {
          "indexed": true,
          "internalType": "bytes32",
          "name": "role",
          "type": "bytes32"
        },
        {
          "indexed": true,
          "internalType": "bytes32",
          "name": "previousAdminRole",
          "type": "bytes32"
        },
        {
          "indexed": true,
          "internalType": "bytes32",
          "name": "newAdminRole",
          "type": "bytes32"
        }
      ],
      "name": "RoleAdminChanged",
      "type": "event"
    },
    {
      "anonymous": false,
      "inputs": [
        {
          "indexed": true,
          "internalType": "bytes32",
          "name": "role",
          "type": "bytes32"
        },
        {
          "indexed": true,
          "internalType": "address",
          "name": "account",
          "type": "address"
        },
        {
          "indexed": true,
          "internalType": "address",
          "name": "sender",
          "type": "address"
        }
      ],
      "name": "RoleGranted",
      "type": "event"
    },
    {
      "anonymous": false,
      "inputs": [
        {
          "indexed": true,
          "internalType": "bytes32",
          "name": "role",
          "type": "bytes32"
        },
        {
          "indexed": true,
          "internalType": "address",
          "name": "account",
          "type": "address"
        },
        {
          "indexed": true,
          "internalType": "address",
          "name": "sender",
          "type": "address"
        }
      ],
      "name": "RoleRevoked",
      "type": "event"
    },
    {
      "anonymous": false,
      "inputs": [
        {
          "indexed": true,
          "internalType": "address",
          "name": "operator",
          "type": "address"
        },
        {
          "indexed": true,
          "internalType": "address",
          "name": "from",
          "type": "address"
        },
        {
          "indexed": true,
          "internalType": "address",
          "name": "to",
          "type": "address"
        },
        {
          "indexed": false,
          "internalType": "uint256[]",
          "name": "ids",
          "type": "uint256[]"
        },
        {
          "indexed": false,
          "internalType": "uint256[]",
          "name": "values",
          "type": "uint256[]"
        }
      ],
      "name": "TransferBatch",
      "type": "event"
    },
    {
      "anonymous": false,
      "inputs": [
        {
          "indexed": true,
          "internalType": "address",
          "name": "operator",
          "type": "address"
        },
        {
          "indexed": true,
          "internalType": "address",
          "name": "from",
          "type": "address"
        },
        {
          "indexed": true,
          "internalType": "address",
          "name": "to",
          "type": "address"
        },
        {
          "indexed": false,
          "internalType": "uint256",
          "name": "id",
          "type": "uint256"
        },
        {
          "indexed": false,
          "internalType": "uint256",
          "name": "value",
          "type": "uint256"
        }
      ],
      "name": "TransferSingle",
      "type": "event"
    },
    {
      "anonymous": false,
      "inputs": [
        {
          "indexed": false,
          "internalType": "string",
          "name": "value",
          "type": "string"
        },
        {
          "indexed": true,
          "internalType": "uint256",
          "name": "id",
          "type": "uint256"
        }
      ],
      "name": "URI",
      "type": "event"
    },
    {
      "anonymous": false,
      "inputs": [
        {
          "indexed": false,
          "internalType": "address",
          "name": "account",
          "type": "address"
        }
      ],
      "name": "Unpaused",
      "type": "event"
    },
    {
      "inputs": [],
      "name": "DEFAULT_ADMIN_ROLE",
      "outputs": [
        {
          "internalType": "bytes32",
          "name": "",
          "type": "bytes32"
        }
      ],
      "stateMutability": "view",
      "type": "function"
    },
    {
      "inputs": [],
      "name": "MINTER_ROLE",
      "outputs": [
        {
          "internalType": "bytes32",
          "name": "",
          "type": "bytes32"
        }
      ],
      "stateMutability": "view",
      "type": "function"
    },
    {
      "inputs": [],
      "name": "PAUSER_ROLE",
      "outputs": [
        {
          "internalType": "bytes32",
          "name": "",
          "type": "bytes32"
        }
      ],
      "stateMutability": "view",
      "type": "function"
    },
    {
      "inputs": [
        {
          "internalType": "address",
          "name": "account",
          "type": "address"
        },
        {
          "internalType": "uint256",
          "name": "id",
          "type": "uint256"
        }
      ],
      "name": "balanceOf",
      "outputs": [
        {
          "internalType": "uint256",
          "name": "",
          "type": "uint256"
        }
      ],
      "stateMutability": "view",
      "type": "function"
    },
    {
      "inputs": [
        {
          "internalType": "address[]",
          "name": "accounts",
          "type": "address[]"
        },
        {
          "internalType": "uint256[]",
          "name": "ids",
          "type": "uint256[]"
        }
      ],
      "name": "balanceOfBatch",
      "outputs": [
        {
          "internalType": "uint256[]",
          "name": "",
          "type": "uint256[]"
        }
      ],
      "stateMutability": "view",
      "type": "function"
    },
    {
      "inputs": [
        {
          "internalType": "address",
          "name": "account",
          "type": "address"
        },
        {
          "internalType": "uint256",
          "name": "id",
          "type": "uint256"
        },
        {
          "internalType": "uint256",
          "name": "value",
          "type": "uint256"
        }
      ],
      "name": "burn",
      "outputs": [],
      "stateMutability": "nonpayable",
      "type": "function"
    },
    {
      "inputs": [
        {
          "internalType": "address",
          "name": "account",
          "type": "address"
        },
        {
          "internalType": "uint256[]",
          "name": "ids",
          "type": "uint256[]"
        },
        {
          "internalType": "uint256[]",
          "name": "values",
          "type": "uint256[]"
        }
      ],
      "name": "burnBatch",
      "outputs": [],
      "stateMutability": "nonpayable",
      "type": "function"
    },
    {
      "inputs": [
        {
          "internalType": "bytes32",
          "name": "role",
          "type": "bytes32"
        }
      ],
      "name": "getRoleAdmin",
      "outputs": [
        {
          "internalType": "bytes32",
          "name": "",
          "type": "bytes32"
        }
      ],
      "stateMutability": "view",
      "type": "function"
    },
    {
      "inputs": [
        {
          "internalType": "bytes32",
          "name": "role",
          "type": "bytes32"
        },
        {
          "internalType": "uint256",
          "name": "index",
          "type": "uint256"
        }
      ],
      "name": "getRoleMember",
      "outputs": [
        {
          "internalType": "address",
          "name": "",
          "type": "address"
        }
      ],
      "stateMutability": "view",
      "type": "function"
    },
    {
      "inputs": [
        {
          "internalType": "bytes32",
          "name": "role",
          "type": "bytes32"
        }
      ],
      "name": "getRoleMemberCount",
      "outputs": [
        {
          "internalType": "uint256",
          "name": "",
          "type": "uint256"
        }
      ],
      "stateMutability": "view",
      "type": "function"
    },
    {
      "inputs": [
        {
          "internalType": "bytes32",
          "name": "role",
          "type": "bytes32"
        },
        {
          "internalType": "address",
          "name": "account",
          "type": "address"
        }
      ],
      "name": "grantRole",
      "outputs": [],
      "stateMutability": "nonpayable",
      "type": "function"
    },
    {
      "inputs": [
        {
          "internalType": "bytes32",
          "name": "role",
          "type": "bytes32"
        },
        {
          "internalType": "address",
          "name": "account",
          "type": "address"
        }
      ],
      "name": "hasRole",
      "outputs": [
        {
          "internalType": "bool",
          "name": "",
          "type": "bool"
        }
      ],
      "stateMutability": "view",
      "type": "function"
    },
    {
      "inputs": [
        {
          "internalType": "address",
          "name": "account",
          "type": "address"
        },
        {
          "internalType": "address",
          "name": "operator",
          "type": "address"
        }
      ],
      "name": "isApprovedForAll",
      "outputs": [
        {
          "internalType": "bool",
          "name": "",
          "type": "bool"
        }
      ],
      "stateMutability": "view",
      "type": "function"
    },
    {
      "inputs": [
        {
          "internalType": "uint256",
          "name": "id",
          "type": "uint256"
        }
      ],
      "name": "isLockedToken",
      "outputs": [
        {
          "internalType": "bool",
          "name": "",
          "type": "bool"
        }
      ],
      "stateMutability": "nonpayable",
      "type": "function"
    },
    {
      "inputs": [
        {
          "internalType": "address",
          "name": "to",
          "type": "address"
        },
        {
          "internalType": "uint256",
          "name": "id",
          "type": "uint256"
        },
        {
          "internalType": "uint256",
          "name": "amount",
          "type": "uint256"
        },
        {
          "internalType": "bytes",
          "name": "data",
          "type": "bytes"
        }
      ],
      "name": "mint",
      "outputs": [],
      "stateMutability": "nonpayable",
      "type": "function"
    },
    {
      "inputs": [
        {
          "internalType": "address",
          "name": "to",
          "type": "address"
        },
        {
          "internalType": "uint256[]",
          "name": "ids",
          "type": "uint256[]"
        },
        {
          "internalType": "uint256[]",
          "name": "amounts",
          "type": "uint256[]"
        },
        {
          "internalType": "bytes",
          "name": "data",
          "type": "bytes"
        }
      ],
      "name": "mintBatch",
      "outputs": [],
      "stateMutability": "nonpayable",
      "type": "function"
    },
    {
      "inputs": [],
      "name": "pause",
      "outputs": [],
      "stateMutability": "nonpayable",
      "type": "function"
    },
    {
      "inputs": [],
      "name": "paused",
      "outputs": [
        {
          "internalType": "bool",
          "name": "",
          "type": "bool"
        }
      ],
      "stateMutability": "view",
      "type": "function"
    },
    {
      "inputs": [
        {
          "internalType": "bytes32",
          "name": "role",
          "type": "bytes32"
        },
        {
          "internalType": "address",
          "name": "account",
          "type": "address"
        }
      ],
      "name": "renounceRole",
      "outputs": [],
      "stateMutability": "nonpayable",
      "type": "function"
    },
    {
      "inputs": [
        {
          "internalType": "bytes32",
          "name": "role",
          "type": "bytes32"
        },
        {
          "internalType": "address",
          "name": "account",
          "type": "address"
        }
      ],
      "name": "revokeRole",
      "outputs": [],
      "stateMutability": "nonpayable",
      "type": "function"
    },
    {
      "inputs": [
        {
          "internalType": "address",
          "name": "from",
          "type": "address"
        },
        {
          "internalType": "address",
          "name": "to",
          "type": "address"
        },
        {
          "internalType": "uint256[]",
          "name": "ids",
          "type": "uint256[]"
        },
        {
          "internalType": "uint256[]",
          "name": "amounts",
          "type": "uint256[]"
        },
        {
          "internalType": "bytes",
          "name": "data",
          "type": "bytes"
        }
      ],
      "name": "safeBatchTransferFrom",
      "outputs": [],
      "stateMutability": "nonpayable",
      "type": "function"
    },
    {
      "inputs": [
        {
          "internalType": "address",
          "name": "from",
          "type": "address"
        },
        {
          "internalType": "address",
          "name": "to",
          "type": "address"
        },
        {
          "internalType": "uint256",
          "name": "id",
          "type": "uint256"
        },
        {
          "internalType": "uint256",
          "name": "amount",
          "type": "uint256"
        },
        {
          "internalType": "bytes",
          "name": "data",
          "type": "bytes"
        }
      ],
      "name": "safeTransferFrom",
      "outputs": [],
      "stateMutability": "nonpayable",
      "type": "function"
    },
    {
      "inputs": [
        {
          "internalType": "address",
          "name": "operator",
          "type": "address"
        },
        {
          "internalType": "bool",
          "name": "approved",
          "type": "bool"
        }
      ],
      "name": "setApprovalForAll",
      "outputs": [],
      "stateMutability": "nonpayable",
      "type": "function"
    },
    {
      "inputs": [
        {
          "internalType": "bytes4",
          "name": "interfaceId",
          "type": "bytes4"
        }
      ],
      "name": "supportsInterface",
      "outputs": [
        {
          "internalType": "bool",
          "name": "",
          "type": "bool"
        }
      ],
      "stateMutability": "view",
      "type": "function"
    },
    {
      "inputs": [],
      "name": "unpause",
      "outputs": [],
      "stateMutability": "nonpayable",
      "type": "function"
    }
  ],
  "bytecode": "0x60806040526d04ee2d6d415b85acef81000000006002553480156200002357600080fd5b506200003c6301ffc9a760e01b6200013360201b60201c565b6200005463d9b67a2660e01b6200013360201b60201c565b6200006c630e89341c60e01b6200013360201b60201c565b6000600760006101000a81548160ff021916908315150217905550620000ab6000801b6200009f6200023c60201b60201c565b6200024460201b60201c565b620000ec7f9f2df0fed2c77648de5860a4cc508cd0818c85b8b8a1ab4ceeef8d981c8956a6620000e06200023c60201b60201c565b6200024460201b60201c565b6200012d7f65d7a28e3265b37a6474929f336521b332c1681b933f6cb9f3376673440d862a620001216200023c60201b60201c565b6200024460201b60201c565b620003d2565b63ffffffff60e01b817bffffffffffffffffffffffffffffffffffffffffffffffffffffffff19161415620001d0576040517f08c379a000000000000000000000000000000000000000000000000000000000815260040180806020018281038252601c8152602001807f4552433136353a20696e76616c696420696e746572666163652069640000000081525060200191505060405180910390fd5b6001806000837bffffffffffffffffffffffffffffffffffffffffffffffffffffffff19167bffffffffffffffffffffffffffffffffffffffffffffffffffffffff1916815260200190815260200160002060006101000a81548160ff02191690831515021790555050565b600033905090565b6200025682826200025a60201b60201c565b5050565b6200028881600080858152602001908152602001600020600001620002fd60201b620025351790919060201c565b15620002f9576200029e6200023c60201b60201c565b73ffffffffffffffffffffffffffffffffffffffff168173ffffffffffffffffffffffffffffffffffffffff16837f2f8788117e7eff1d82e926ec794901d17c78024a50270940304540a733656f0d60405160405180910390a45b5050565b60006200032d836000018373ffffffffffffffffffffffffffffffffffffffff1660001b6200033560201b60201c565b905092915050565b6000620003498383620003af60201b60201c565b620003a4578260000182908060018154018082558091505060019003906000526020600020016000909190919091505582600001805490508360010160008481526020019081526020016000208190555060019050620003a9565b600090505b92915050565b600080836001016000848152602001908152602001600020541415905092915050565b61444d80620003e26000396000f3fe608060405234801561001057600080fd5b50600436106101725760003560e01c80638456cb59116100de578063ca15c87311610097578063e63ab1e911610071578063e63ab1e914610d96578063e985e9c514610db4578063f242432a14610e2e578063f5298aca14610f3d57610172565b8063ca15c87314610ce8578063d539139314610d2a578063d547741f14610d4857610172565b80638456cb5914610b665780639010d07c14610b7057806391d1485414610bd2578063a217fddf14610c36578063a22cb46514610c54578063bba75c8314610ca457610172565b806336568abe1161013057806336568abe146106f25780633f4ba83a146107405780634e1273f41461074a5780635c975abb146108eb5780636b20c4541461090b578063731133e914610a7757610172565b8062fdd58e1461017757806301ffc9a7146101d95780631f7fdffa1461023c578063248a9ca31461043f5780632eb2c2d6146104815780632f2ff15d146106a4575b600080fd5b6101c36004803603604081101561018d57600080fd5b81019080803573ffffffffffffffffffffffffffffffffffffffff16906020019092919080359060200190929190505050610f95565b6040518082815260200191505060405180910390f35b610224600480360360208110156101ef57600080fd5b8101908080357bffffffffffffffffffffffffffffffffffffffffffffffffffffffff19169060200190929190505050611075565b60405180821515815260200191505060405180910390f35b61043d6004803603608081101561025257600080fd5b81019080803573ffffffffffffffffffffffffffffffffffffffff1690602001909291908035906020019064010000000081111561028f57600080fd5b8201836020820111156102a157600080fd5b803590602001918460208302840111640100000000831117156102c357600080fd5b919080806020026020016040519081016040528093929190818152602001838360200280828437600081840152601f19601f8201169050808301925050505050505091929192908035906020019064010000000081111561032357600080fd5b82018360208201111561033557600080fd5b8035906020019184602083028401116401000000008311171561035757600080fd5b919080806020026020016040519081016040528093929190818152602001838360200280828437600081840152601f19601f820116905080830192505050505050509192919290803590602001906401000000008111156103b757600080fd5b8201836020820111156103c957600080fd5b803590602001918460018302840111640100000000831117156103eb57600080fd5b91908080601f016020809104026020016040519081016040528093929190818152602001838380828437600081840152601f19601f8201169050808301925050505050505091929192905050506110dd565b005b61046b6004803603602081101561045557600080fd5b8101908080359060200190929190505050611175565b6040518082815260200191505060405180910390f35b6106a2600480360360a081101561049757600080fd5b81019080803573ffffffffffffffffffffffffffffffffffffffff169060200190929190803573ffffffffffffffffffffffffffffffffffffffff169060200190929190803590602001906401000000008111156104f457600080fd5b82018360208201111561050657600080fd5b8035906020019184602083028401116401000000008311171561052857600080fd5b919080806020026020016040519081016040528093929190818152602001838360200280828437600081840152601f19601f8201169050808301925050505050505091929192908035906020019064010000000081111561058857600080fd5b82018360208201111561059a57600080fd5b803590602001918460208302840111640100000000831117156105bc57600080fd5b919080806020026020016040519081016040528093929190818152602001838360200280828437600081840152601f19601f8201169050808301925050505050505091929192908035906020019064010000000081111561061c57600080fd5b82018360208201111561062e57600080fd5b8035906020019184600183028401116401000000008311171561065057600080fd5b91908080601f016020809104026020016040519081016040528093929190818152602001838380828437600081840152601f19601f820116905080830192505050505050509192919290505050611194565b005b6106f0600480360360408110156106ba57600080fd5b8101908080359060200190929190803573ffffffffffffffffffffffffffffffffffffffff169060200190929190505050611697565b005b61073e6004803603604081101561070857600080fd5b8101908080359060200190929190803573ffffffffffffffffffffffffffffffffffffffff169060200190929190505050611720565b005b6107486117b9565b005b6108946004803603604081101561076057600080fd5b810190808035906020019064010000000081111561077d57600080fd5b82018360208201111561078f57600080fd5b803590602001918460208302840111640100000000831117156107b157600080fd5b919080806020026020016040519081016040528093929190818152602001838360200280828437600081840152601f19601f8201169050808301925050505050505091929192908035906020019064010000000081111561081157600080fd5b82018360208201111561082357600080fd5b8035906020019184602083028401116401000000008311171561084557600080fd5b919080806020026020016040519081016040528093929190818152602001838360200280828437600081840152601f19601f820116905080830192505050505050509192919290505050611849565b6040518080602001828103825283818151815260200191508051906020019060200280838360005b838110156108d75780820151818401526020810190506108bc565b505050509050019250505060405180910390f35b6108f3611a3b565b60405180821515815260200191505060405180910390f35b610a756004803603606081101561092157600080fd5b81019080803573ffffffffffffffffffffffffffffffffffffffff1690602001909291908035906020019064010000000081111561095e57600080fd5b82018360208201111561097057600080fd5b8035906020019184602083028401116401000000008311171561099257600080fd5b919080806020026020016040519081016040528093929190818152602001838360200280828437600081840152601f19601f820116905080830192505050505050509192919290803590602001906401000000008111156109f257600080fd5b820183602082011115610a0457600080fd5b80359060200191846020830284011164010000000083111715610a2657600080fd5b919080806020026020016040519081016040528093929190818152602001838360200280828437600081840152601f19601f820116905080830192505050505050509192919290505050611a52565b005b610b6460048036036080811015610a8d57600080fd5b81019080803573ffffffffffffffffffffffffffffffffffffffff169060200190929190803590602001909291908035906020019092919080359060200190640100000000811115610ade57600080fd5b820183602082011115610af057600080fd5b80359060200191846001830284011164010000000083111715610b1257600080fd5b91908080601f016020809104026020016040519081016040528093929190818152602001838380828437600081840152601f19601f820116905080830192505050505050509192919290505050611b05565b005b610b6e611b9d565b005b610ba660048036036040811015610b8657600080fd5b810190808035906020019092919080359060200190929190505050611c2d565b604051808273ffffffffffffffffffffffffffffffffffffffff16815260200191505060405180910390f35b610c1e60048036036040811015610be857600080fd5b8101908080359060200190929190803573ffffffffffffffffffffffffffffffffffffffff169060200190929190505050611c5e565b60405180821515815260200191505060405180910390f35b610c3e611c8f565b6040518082815260200191505060405180910390f35b610ca260048036036040811015610c6a57600080fd5b81019080803573ffffffffffffffffffffffffffffffffffffffff169060200190929190803515159060200190929190505050611c96565b005b610cd060048036036020811015610cba57600080fd5b8101908080359060200190929190505050611e2f565b60405180821515815260200191505060405180910390f35b610d1460048036036020811015610cfe57600080fd5b8101908080359060200190929190505050611e97565b6040518082815260200191505060405180910390f35b610d32611ebd565b6040518082815260200191505060405180910390f35b610d9460048036036040811015610d5e57600080fd5b8101908080359060200190929190803573ffffffffffffffffffffffffffffffffffffffff169060200190929190505050611ee1565b005b610d9e611f6a565b6040518082815260200191505060405180910390f35b610e1660048036036040811015610dca57600080fd5b81019080803573ffffffffffffffffffffffffffffffffffffffff169060200190929190803573ffffffffffffffffffffffffffffffffffffffff169060200190929190505050611f8e565b60405180821515815260200191505060405180910390f35b610f3b600480360360a0811015610e4457600080fd5b81019080803573ffffffffffffffffffffffffffffffffffffffff169060200190929190803573ffffffffffffffffffffffffffffffffffffffff169060200190929190803590602001909291908035906020019092919080359060200190640100000000811115610eb557600080fd5b820183602082011115610ec757600080fd5b80359060200191846001830284011164010000000083111715610ee957600080fd5b91908080601f016020809104026020016040519081016040528093929190818152602001838380828437600081840152601f19601f820116905080830192505050505050509192919290505050612022565b005b610f9360048036036060811015610f5357600080fd5b81019080803573ffffffffffffffffffffffffffffffffffffffff1690602001909291908035906020019092919080359060200190929190505050612482565b005b60008073ffffffffffffffffffffffffffffffffffffffff168373ffffffffffffffffffffffffffffffffffffffff16141561101c576040517f08c379a000000000000000000000000000000000000000000000000000000000815260040180806020018281038252602b8152602001806140d1602b913960400191505060405180910390fd5b6003600083815260200190815260200160002060008473ffffffffffffffffffffffffffffffffffffffff1673ffffffffffffffffffffffffffffffffffffffff16815260200190815260200160002054905092915050565b600060016000837bffffffffffffffffffffffffffffffffffffffffffffffffffffffff19167bffffffffffffffffffffffffffffffffffffffffffffffffffffffff1916815260200190815260200160002060009054906101000a900460ff169050919050565b61110e7f9f2df0fed2c77648de5860a4cc508cd0818c85b8b8a1ab4ceeef8d981c8956a6611109612565565b611c5e565b611163576040517f08c379a00000000000000000000000000000000000000000000000000000000081526004018080602001828103825260388152602001806142506038913960400191505060405180910390fd5b61116f8484848461256d565b50505050565b6000806000838152602001908152602001600020600201549050919050565b81518351146111ee576040517f08c379a00000000000000000000000000000000000000000000000000000000081526004018080602001828103825260288152602001806143a06028913960400191505060405180910390fd5b600073ffffffffffffffffffffffffffffffffffffffff168473ffffffffffffffffffffffffffffffffffffffff161415611274576040517f08c379a00000000000000000000000000000000000000000000000000000000081526004018080602001828103825260258152602001806141d66025913960400191505060405180910390fd5b61127c612565565b73ffffffffffffffffffffffffffffffffffffffff168573ffffffffffffffffffffffffffffffffffffffff1614806112c257506112c1856112bc612565565b611f8e565b5b611317576040517f08c379a00000000000000000000000000000000000000000000000000000000081526004018080602001828103825260328152602001806141fb6032913960400191505060405180910390fd5b6000611321612565565b905061133181878787878761288f565b60005b845181101561157a576000151561135d86838151811061135057fe5b6020026020010151611e2f565b1515146113b5576040517f08c379a00000000000000000000000000000000000000000000000000000000081526004018080602001828103825260288152602001806142b26028913960400191505060405180910390fd5b60008582815181106113c357fe5b6020026020010151905060008583815181106113db57fe5b60200260200101519050611462816040518060600160405280602a8152602001614288602a91396003600086815260200190815260200160002060008d73ffffffffffffffffffffffffffffffffffffffff1673ffffffffffffffffffffffffffffffffffffffff168152602001908152602001600020546128a59092919063ffffffff16565b6003600084815260200190815260200160002060008b73ffffffffffffffffffffffffffffffffffffffff1673ffffffffffffffffffffffffffffffffffffffff16815260200190815260200160002081905550611519816003600085815260200190815260200160002060008b73ffffffffffffffffffffffffffffffffffffffff1673ffffffffffffffffffffffffffffffffffffffff1681526020019081526020016000205461296590919063ffffffff16565b6003600084815260200190815260200160002060008a73ffffffffffffffffffffffffffffffffffffffff1673ffffffffffffffffffffffffffffffffffffffff168152602001908152602001600020819055505050806001019050611334565b508473ffffffffffffffffffffffffffffffffffffffff168673ffffffffffffffffffffffffffffffffffffffff168273ffffffffffffffffffffffffffffffffffffffff167f4a39dc06d4c0dbc64b70af90fd698a233a518aa5d07e595d983b8c0526c8f7fb8787604051808060200180602001838103835285818151815260200191508051906020019060200280838360005b8381101561162a57808201518184015260208101905061160f565b50505050905001838103825284818151815260200191508051906020019060200280838360005b8381101561166c578082015181840152602081019050611651565b5050505090500194505050505060405180910390a461168f8187878787876129ed565b505050505050565b6116bd600080848152602001908152602001600020600201546116b8612565565b611c5e565b611712576040517f08c379a000000000000000000000000000000000000000000000000000000000815260040180806020018281038252602f8152602001806140a2602f913960400191505060405180910390fd5b61171c8282612d7c565b5050565b611728612565565b73ffffffffffffffffffffffffffffffffffffffff168173ffffffffffffffffffffffffffffffffffffffff16146117ab576040517f08c379a000000000000000000000000000000000000000000000000000000000815260040180806020018281038252602f8152602001806143e9602f913960400191505060405180910390fd5b6117b58282612e0f565b5050565b6117ea7f65d7a28e3265b37a6474929f336521b332c1681b933f6cb9f3376673440d862a6117e5612565565b611c5e565b61183f576040517f08c379a000000000000000000000000000000000000000000000000000000000815260040180806020018281038252603b8152602001806142da603b913960400191505060405180910390fd5b611847612ea2565b565b606081518351146118a5576040517f08c379a00000000000000000000000000000000000000000000000000000000081526004018080602001828103825260298152602001806143776029913960400191505060405180910390fd5b6060835167ffffffffffffffff811180156118bf57600080fd5b506040519080825280602002602001820160405280156118ee5781602001602082028036833780820191505090505b50905060005b8451811015611a3057600073ffffffffffffffffffffffffffffffffffffffff1685828151811061192157fe5b602002602001015173ffffffffffffffffffffffffffffffffffffffff161415611996576040517f08c379a00000000000000000000000000000000000000000000000000000000081526004018080602001828103825260318152602001806140fc6031913960400191505060405180910390fd5b600360008583815181106119a657fe5b6020026020010151815260200190815260200160002060008683815181106119ca57fe5b602002602001015173ffffffffffffffffffffffffffffffffffffffff1673ffffffffffffffffffffffffffffffffffffffff16815260200190815260200160002054828281518110611a1957fe5b6020026020010181815250508060010190506118f4565b508091505092915050565b6000600760009054906101000a900460ff16905090565b611a5a612565565b73ffffffffffffffffffffffffffffffffffffffff168373ffffffffffffffffffffffffffffffffffffffff161480611aa05750611a9f83611a9a612565565b611f8e565b5b611af5576040517f08c379a000000000000000000000000000000000000000000000000000000000815260040180806020018281038252602981526020018061417d6029913960400191505060405180910390fd5b611b00838383612f95565b505050565b611b367f9f2df0fed2c77648de5860a4cc508cd0818c85b8b8a1ab4ceeef8d981c8956a6611b31612565565b611c5e565b611b8b576040517f08c379a00000000000000000000000000000000000000000000000000000000081526004018080602001828103825260388152602001806142506038913960400191505060405180910390fd5b611b97848484846132d0565b50505050565b611bce7f65d7a28e3265b37a6474929f336521b332c1681b933f6cb9f3376673440d862a611bc9612565565b611c5e565b611c23576040517f08c379a00000000000000000000000000000000000000000000000000000000081526004018080602001828103825260398152602001806143156039913960400191505060405180910390fd5b611c2b6134d3565b565b6000611c56826000808681526020019081526020016000206000016135c790919063ffffffff16565b905092915050565b6000611c87826000808681526020019081526020016000206000016135e190919063ffffffff16565b905092915050565b6000801b81565b8173ffffffffffffffffffffffffffffffffffffffff16611cb5612565565b73ffffffffffffffffffffffffffffffffffffffff161415611d22576040517f08c379a000000000000000000000000000000000000000000000000000000000815260040180806020018281038252602981526020018061434e6029913960400191505060405180910390fd5b8060056000611d2f612565565b73ffffffffffffffffffffffffffffffffffffffff1673ffffffffffffffffffffffffffffffffffffffff16815260200190815260200160002060008473ffffffffffffffffffffffffffffffffffffffff1673ffffffffffffffffffffffffffffffffffffffff16815260200190815260200160002060006101000a81548160ff0219169083151502179055508173ffffffffffffffffffffffffffffffffffffffff16611ddc612565565b73ffffffffffffffffffffffffffffffffffffffff167f17307eab39ab6107e8899845ad3d59bd9653f200f220920489ca2b5937696c318360405180821515815260200191505060405180910390a35050565b6000611e456002548381611e3f57fe5b04613611565b6000662386f26fc100006002548481611e5a57fe5b0481611e6257fe5b069050611e6e81613611565b6004600082815260200190815260200160002060009054906101000a900460ff16915050919050565b6000611eb66000808481526020019081526020016000206000016136aa565b9050919050565b7f9f2df0fed2c77648de5860a4cc508cd0818c85b8b8a1ab4ceeef8d981c8956a681565b611f0760008084815260200190815260200160002060020154611f02612565565b611c5e565b611f5c576040517f08c379a00000000000000000000000000000000000000000000000000000000081526004018080602001828103825260308152602001806141a66030913960400191505060405180910390fd5b611f668282612e0f565b5050565b7f65d7a28e3265b37a6474929f336521b332c1681b933f6cb9f3376673440d862a81565b6000600560008473ffffffffffffffffffffffffffffffffffffffff1673ffffffffffffffffffffffffffffffffffffffff16815260200190815260200160002060008373ffffffffffffffffffffffffffffffffffffffff1673ffffffffffffffffffffffffffffffffffffffff16815260200190815260200160002060009054906101000a900460ff16905092915050565b600073ffffffffffffffffffffffffffffffffffffffff168473ffffffffffffffffffffffffffffffffffffffff1614156120a8576040517f08c379a00000000000000000000000000000000000000000000000000000000081526004018080602001828103825260258152602001806141d66025913960400191505060405180910390fd5b600073ffffffffffffffffffffffffffffffffffffffff168473ffffffffffffffffffffffffffffffffffffffff16141561212e576040517f08c379a00000000000000000000000000000000000000000000000000000000081526004018080602001828103825260258152602001806141d66025913960400191505060405180910390fd5b612136612565565b73ffffffffffffffffffffffffffffffffffffffff168573ffffffffffffffffffffffffffffffffffffffff16148061217c575061217b85612176612565565b611f8e565b5b6121d1576040517f08c379a000000000000000000000000000000000000000000000000000000000815260040180806020018281038252602981526020018061417d6029913960400191505060405180910390fd5b600015156121de84611e2f565b151514612236576040517f08c379a00000000000000000000000000000000000000000000000000000000081526004018080602001828103825260288152602001806142b26028913960400191505060405180910390fd5b6000612240612565565b9050612260818787612251886136bf565b61225a886136bf565b8761288f565b6122dd836040518060600160405280602a8152602001614288602a91396003600088815260200190815260200160002060008a73ffffffffffffffffffffffffffffffffffffffff1673ffffffffffffffffffffffffffffffffffffffff168152602001908152602001600020546128a59092919063ffffffff16565b6003600086815260200190815260200160002060008873ffffffffffffffffffffffffffffffffffffffff1673ffffffffffffffffffffffffffffffffffffffff16815260200190815260200160002081905550612394836003600087815260200190815260200160002060008873ffffffffffffffffffffffffffffffffffffffff1673ffffffffffffffffffffffffffffffffffffffff1681526020019081526020016000205461296590919063ffffffff16565b6003600086815260200190815260200160002060008773ffffffffffffffffffffffffffffffffffffffff1673ffffffffffffffffffffffffffffffffffffffff168152602001908152602001600020819055508473ffffffffffffffffffffffffffffffffffffffff168673ffffffffffffffffffffffffffffffffffffffff168273ffffffffffffffffffffffffffffffffffffffff167fc3d58168c5ae7397731d063d5bbf3d657854427343f4c083240f7aacaa2d0f628787604051808381526020018281526020019250505060405180910390a461247a81878787878761372f565b505050505050565b61248a612565565b73ffffffffffffffffffffffffffffffffffffffff168373ffffffffffffffffffffffffffffffffffffffff1614806124d057506124cf836124ca612565565b611f8e565b5b612525576040517f08c379a000000000000000000000000000000000000000000000000000000000815260040180806020018281038252602981526020018061417d6029913960400191505060405180910390fd5b612530838383613a3c565b505050565b600061255d836000018373ffffffffffffffffffffffffffffffffffffffff1660001b613c58565b905092915050565b600033905090565b600073ffffffffffffffffffffffffffffffffffffffff168473ffffffffffffffffffffffffffffffffffffffff1614156125f3576040517f08c379a00000000000000000000000000000000000000000000000000000000081526004018080602001828103825260218152602001806143c86021913960400191505060405180910390fd5b815183511461264d576040517f08c379a00000000000000000000000000000000000000000000000000000000081526004018080602001828103825260288152602001806143a06028913960400191505060405180910390fd5b6000612657612565565b90506126688160008787878761288f565b60005b8451811015612771576126fd6003600087848151811061268757fe5b6020026020010151815260200190815260200160002060008873ffffffffffffffffffffffffffffffffffffffff1673ffffffffffffffffffffffffffffffffffffffff168152602001908152602001600020548583815181106126e757fe5b602002602001015161296590919063ffffffff16565b6003600087848151811061270d57fe5b6020026020010151815260200190815260200160002060008873ffffffffffffffffffffffffffffffffffffffff1673ffffffffffffffffffffffffffffffffffffffff16815260200190815260200160002081905550808060010191505061266b565b508473ffffffffffffffffffffffffffffffffffffffff16600073ffffffffffffffffffffffffffffffffffffffff168273ffffffffffffffffffffffffffffffffffffffff167f4a39dc06d4c0dbc64b70af90fd698a233a518aa5d07e595d983b8c0526c8f7fb8787604051808060200180602001838103835285818151815260200191508051906020019060200280838360005b83811015612822578082015181840152602081019050612807565b50505050905001838103825284818151815260200191508051906020019060200280838360005b83811015612864578082015181840152602081019050612849565b5050505090500194505050505060405180910390a4612888816000878787876129ed565b5050505050565b61289d868686868686613cc8565b505050505050565b6000838311158290612952576040517f08c379a00000000000000000000000000000000000000000000000000000000081526004018080602001828103825283818151815260200191508051906020019080838360005b838110156129175780820151818401526020810190506128fc565b50505050905090810190601f1680156129445780820380516001836020036101000a031916815260200191505b509250505060405180910390fd5b5060008385039050809150509392505050565b6000808284019050838110156129e3576040517f08c379a000000000000000000000000000000000000000000000000000000000815260040180806020018281038252601b8152602001807f536166654d6174683a206164646974696f6e206f766572666c6f77000000000081525060200191505060405180910390fd5b8091505092915050565b612a0c8473ffffffffffffffffffffffffffffffffffffffff16613d3c565b15612d74578373ffffffffffffffffffffffffffffffffffffffff1663bc197c8187878686866040518663ffffffff1660e01b8152600401808673ffffffffffffffffffffffffffffffffffffffff1681526020018573ffffffffffffffffffffffffffffffffffffffff168152602001806020018060200180602001848103845287818151815260200191508051906020019060200280838360005b83811015612ac4578082015181840152602081019050612aa9565b50505050905001848103835286818151815260200191508051906020019060200280838360005b83811015612b06578082015181840152602081019050612aeb565b50505050905001848103825285818151815260200191508051906020019080838360005b83811015612b45578082015181840152602081019050612b2a565b50505050905090810190601f168015612b725780820380516001836020036101000a031916815260200191505b5098505050505050505050602060405180830381600087803b158015612b9757600080fd5b505af1925050508015612bcb57506040513d6020811015612bb757600080fd5b810190808051906020019092919050505060015b612cd557612bd7613f6d565b80612be25750612c84565b806040517f08c379a00000000000000000000000000000000000000000000000000000000081526004018080602001828103825283818151815260200191508051906020019080838360005b83811015612c49578082015181840152602081019050612c2e565b50505050905090810190601f168015612c765780820380516001836020036101000a031916815260200191505b509250505060405180910390fd5b6040517f08c379a00000000000000000000000000000000000000000000000000000000081526004018080602001828103825260348152602001806140246034913960400191505060405180910390fd5b63bc197c8160e01b7bffffffffffffffffffffffffffffffffffffffffffffffffffffffff1916817bffffffffffffffffffffffffffffffffffffffffffffffffffffffff191614612d72576040517f08c379a000000000000000000000000000000000000000000000000000000000815260040180806020018281038252602881526020018061407a6028913960400191505060405180910390fd5b505b505050505050565b612da38160008085815260200190815260200160002060000161253590919063ffffffff16565b15612e0b57612db0612565565b73ffffffffffffffffffffffffffffffffffffffff168173ffffffffffffffffffffffffffffffffffffffff16837f2f8788117e7eff1d82e926ec794901d17c78024a50270940304540a733656f0d60405160405180910390a45b5050565b612e3681600080858152602001908152602001600020600001613d4f90919063ffffffff16565b15612e9e57612e43612565565b73ffffffffffffffffffffffffffffffffffffffff168173ffffffffffffffffffffffffffffffffffffffff16837ff6391f5c32d9c69d2a47ea670b442974b53935d1edc7fd64eb21e047a839171b60405160405180910390a45b5050565b600760009054906101000a900460ff16612f24576040517f08c379a00000000000000000000000000000000000000000000000000000000081526004018080602001828103825260148152602001807f5061757361626c653a206e6f742070617573656400000000000000000000000081525060200191505060405180910390fd5b6000600760006101000a81548160ff0219169083151502179055507f5db9ee0a495bf2e6ff9c91a7834c1ba4fdd244a5e8aa4e537bd38aeae4b073aa612f68612565565b604051808273ffffffffffffffffffffffffffffffffffffffff16815260200191505060405180910390a1565b600073ffffffffffffffffffffffffffffffffffffffff168373ffffffffffffffffffffffffffffffffffffffff16141561301b576040517f08c379a000000000000000000000000000000000000000000000000000000000815260040180806020018281038252602381526020018061422d6023913960400191505060405180910390fd5b8051825114613075576040517f08c379a00000000000000000000000000000000000000000000000000000000081526004018080602001828103825260288152602001806143a06028913960400191505060405180910390fd5b600061307f612565565b905061309f8185600086866040518060200160405280600081525061288f565b60005b83518110156131c25761314e8382815181106130ba57fe5b602002602001015160405180606001604052806024815260200161412d60249139600360008886815181106130eb57fe5b6020026020010151815260200190815260200160002060008973ffffffffffffffffffffffffffffffffffffffff1673ffffffffffffffffffffffffffffffffffffffff168152602001908152602001600020546128a59092919063ffffffff16565b6003600086848151811061315e57fe5b6020026020010151815260200190815260200160002060008773ffffffffffffffffffffffffffffffffffffffff1673ffffffffffffffffffffffffffffffffffffffff1681526020019081526020016000208190555080806001019150506130a2565b50600073ffffffffffffffffffffffffffffffffffffffff168473ffffffffffffffffffffffffffffffffffffffff168273ffffffffffffffffffffffffffffffffffffffff167f4a39dc06d4c0dbc64b70af90fd698a233a518aa5d07e595d983b8c0526c8f7fb8686604051808060200180602001838103835285818151815260200191508051906020019060200280838360005b83811015613273578082015181840152602081019050613258565b50505050905001838103825284818151815260200191508051906020019060200280838360005b838110156132b557808201518184015260208101905061329a565b5050505090500194505050505060405180910390a450505050565b600073ffffffffffffffffffffffffffffffffffffffff168473ffffffffffffffffffffffffffffffffffffffff161415613356576040517f08c379a00000000000000000000000000000000000000000000000000000000081526004018080602001828103825260218152602001806143c86021913960400191505060405180910390fd5b6000613360612565565b905061338181600087613372886136bf565b61337b886136bf565b8761288f565b6133e4836003600087815260200190815260200160002060008873ffffffffffffffffffffffffffffffffffffffff1673ffffffffffffffffffffffffffffffffffffffff1681526020019081526020016000205461296590919063ffffffff16565b6003600086815260200190815260200160002060008773ffffffffffffffffffffffffffffffffffffffff1673ffffffffffffffffffffffffffffffffffffffff168152602001908152602001600020819055508473ffffffffffffffffffffffffffffffffffffffff16600073ffffffffffffffffffffffffffffffffffffffff168273ffffffffffffffffffffffffffffffffffffffff167fc3d58168c5ae7397731d063d5bbf3d657854427343f4c083240f7aacaa2d0f628787604051808381526020018281526020019250505060405180910390a46134cc8160008787878761372f565b5050505050565b600760009054906101000a900460ff1615613556576040517f08c379a00000000000000000000000000000000000000000000000000000000081526004018080602001828103825260108152602001807f5061757361626c653a207061757365640000000000000000000000000000000081525060200191505060405180910390fd5b6001600760006101000a81548160ff0219169083151502179055507f62e78cea01bee320cd4e420270b5ea74000d11b0c9f74754ebdbfc544b05a25861359a612565565b604051808273ffffffffffffffffffffffffffffffffffffffff16815260200191505060405180910390a1565b60006135d68360000183613d7f565b60001c905092915050565b6000613609836000018373ffffffffffffffffffffffffffffffffffffffff1660001b613e02565b905092915050565b6136a781604051602401808281526020019150506040516020818303038152906040527ff5b1bba9000000000000000000000000000000000000000000000000000000007bffffffffffffffffffffffffffffffffffffffffffffffffffffffff19166020820180517bffffffffffffffffffffffffffffffffffffffffffffffffffffffff8381831617835250505050613e25565b50565b60006136b882600001613e4e565b9050919050565b606080600167ffffffffffffffff811180156136da57600080fd5b506040519080825280602002602001820160405280156137095781602001602082028036833780820191505090505b509050828160008151811061371a57fe5b60200260200101818152505080915050919050565b61374e8473ffffffffffffffffffffffffffffffffffffffff16613d3c565b15613a34578373ffffffffffffffffffffffffffffffffffffffff1663f23a6e6187878686866040518663ffffffff1660e01b8152600401808673ffffffffffffffffffffffffffffffffffffffff1681526020018573ffffffffffffffffffffffffffffffffffffffff16815260200184815260200183815260200180602001828103825283818151815260200191508051906020019080838360005b838110156138075780820151818401526020810190506137ec565b50505050905090810190601f1680156138345780820380516001836020036101000a031916815260200191505b509650505050505050602060405180830381600087803b15801561385757600080fd5b505af192505050801561388b57506040513d602081101561387757600080fd5b810190808051906020019092919050505060015b61399557613897613f6d565b806138a25750613944565b806040517f08c379a00000000000000000000000000000000000000000000000000000000081526004018080602001828103825283818151815260200191508051906020019080838360005b838110156139095780820151818401526020810190506138ee565b50505050905090810190601f1680156139365780820380516001836020036101000a031916815260200191505b509250505060405180910390fd5b6040517f08c379a00000000000000000000000000000000000000000000000000000000081526004018080602001828103825260348152602001806140246034913960400191505060405180910390fd5b63f23a6e6160e01b7bffffffffffffffffffffffffffffffffffffffffffffffffffffffff1916817bffffffffffffffffffffffffffffffffffffffffffffffffffffffff191614613a32576040517f08c379a000000000000000000000000000000000000000000000000000000000815260040180806020018281038252602881526020018061407a6028913960400191505060405180910390fd5b505b505050505050565b600073ffffffffffffffffffffffffffffffffffffffff168373ffffffffffffffffffffffffffffffffffffffff161415613ac2576040517f08c379a000000000000000000000000000000000000000000000000000000000815260040180806020018281038252602381526020018061422d6023913960400191505060405180910390fd5b6000613acc612565565b9050613afc81856000613ade876136bf565b613ae7876136bf565b6040518060200160405280600081525061288f565b613b798260405180606001604052806024815260200161412d602491396003600087815260200190815260200160002060008873ffffffffffffffffffffffffffffffffffffffff1673ffffffffffffffffffffffffffffffffffffffff168152602001908152602001600020546128a59092919063ffffffff16565b6003600085815260200190815260200160002060008673ffffffffffffffffffffffffffffffffffffffff1673ffffffffffffffffffffffffffffffffffffffff16815260200190815260200160002081905550600073ffffffffffffffffffffffffffffffffffffffff168473ffffffffffffffffffffffffffffffffffffffff168273ffffffffffffffffffffffffffffffffffffffff167fc3d58168c5ae7397731d063d5bbf3d657854427343f4c083240f7aacaa2d0f628686604051808381526020018281526020019250505060405180910390a450505050565b6000613c648383613e02565b613cbd578260000182908060018154018082558091505060019003906000526020600020016000909190919091505582600001805490508360010160008481526020019081526020016000208190555060019050613cc2565b600090505b92915050565b613cd6868686868686613e5f565b613cde611a3b565b15613d34576040517f08c379a000000000000000000000000000000000000000000000000000000000815260040180806020018281038252602c815260200180614151602c913960400191505060405180910390fd5b505050505050565b600080823b905060008111915050919050565b6000613d77836000018373ffffffffffffffffffffffffffffffffffffffff1660001b613e67565b905092915050565b600081836000018054905011613de0576040517f08c379a00000000000000000000000000000000000000000000000000000000081526004018080602001828103825260228152602001806140586022913960400191505060405180910390fd5b826000018281548110613def57fe5b9060005260206000200154905092915050565b600080836001016000848152602001908152602001600020541415905092915050565b60008151905060006a636f6e736f6c652e6c6f679050602083016000808483855afa5050505050565b600081600001805490509050919050565b505050505050565b60008083600101600084815260200190815260200160002054905060008114613f435760006001820390506000600186600001805490500390506000866000018281548110613eb257fe5b9060005260206000200154905080876000018481548110613ecf57fe5b9060005260206000200181905550600183018760010160008381526020019081526020016000208190555086600001805480613f0757fe5b60019003818190600052602060002001600090559055866001016000878152602001908152602001600020600090556001945050505050613f49565b60009150505b92915050565b6000601f19601f8301169050919050565b60008160e01c9050919050565b600060443d1015613f7d57614020565b60046000803e613f8e600051613f60565b6308c379a08114613f9f5750614020565b60405160043d036004823e80513d602482011167ffffffffffffffff82111715613fcb57505050614020565b808201805167ffffffffffffffff811115613fea575050505050614020565b8060208301013d850181111561400557505050505050614020565b61400e82613f4f565b60208401016040528296505050505050505b9056fe455243313135353a207472616e7366657220746f206e6f6e2045524331313535526563656976657220696d706c656d656e746572456e756d657261626c655365743a20696e646578206f7574206f6620626f756e6473455243313135353a204552433131353552656365697665722072656a656374656420746f6b656e73416363657373436f6e74726f6c3a2073656e646572206d75737420626520616e2061646d696e20746f206772616e74455243313135353a2062616c616e636520717565727920666f7220746865207a65726f2061646472657373455243313135353a2062617463682062616c616e636520717565727920666f7220746865207a65726f2061646472657373455243313135353a206275726e20616d6f756e7420657863656564732062616c616e6365455243313135355061757361626c653a20746f6b656e207472616e73666572207768696c6520706175736564455243313135353a2063616c6c6572206973206e6f74206f776e6572206e6f7220617070726f766564416363657373436f6e74726f6c3a2073656e646572206d75737420626520616e2061646d696e20746f207265766f6b65455243313135353a207472616e7366657220746f20746865207a65726f2061646472657373455243313135353a207472616e736665722063616c6c6572206973206e6f74206f776e6572206e6f7220617070726f766564455243313135353a206275726e2066726f6d20746865207a65726f2061646472657373455243313135355072657365744d696e7465725061757365723a206d7573742068617665206d696e74657220726f6c6520746f206d696e74455243313135353a20696e73756666696369656e742062616c616e636520666f72207472616e73666572746f6b656e207472616e736665727320617265206c6f636b656420666f7220746869732074797065455243313135355072657365744d696e7465725061757365723a206d75737420686176652070617573657220726f6c6520746f20756e7061757365455243313135355072657365744d696e7465725061757365723a206d75737420686176652070617573657220726f6c6520746f207061757365455243313135353a2073657474696e6720617070726f76616c2073746174757320666f722073656c66455243313135353a206163636f756e747320616e6420696473206c656e677468206d69736d61746368455243313135353a2069647320616e6420616d6f756e7473206c656e677468206d69736d61746368455243313135353a206d696e7420746f20746865207a65726f2061646472657373416363657373436f6e74726f6c3a2063616e206f6e6c792072656e6f756e636520726f6c657320666f722073656c66a2646970667358221220a7f5325305d83bc5244d8f7e3bc674cb03db4a6b83e66b3ba6dfbd7d969ccc5d64736f6c63430007030033",
  "linkReferences": {},
  "deployedLinkReferences": {}
}